{
  "abi": [
    {
      "inputs": [],
      "stateMutability": "nonpayable",
      "type": "constructor"
    },
    {
      "anonymous": false,
      "inputs": [
        {
          "indexed": false,
          "internalType": "address",
          "name": "previousAdmin",
          "type": "address"
        },
        {
          "indexed": false,
          "internalType": "address",
          "name": "newAdmin",
          "type": "address"
        }
      ],
      "name": "AdminChanged",
      "type": "event"
    },
    {
      "anonymous": false,
      "inputs": [
        {
          "indexed": true,
          "internalType": "address",
          "name": "beacon",
          "type": "address"
        }
      ],
      "name": "BeaconUpgraded",
      "type": "event"
    },
    {
      "anonymous": false,
      "inputs": [
        {
          "indexed": false,
          "internalType": "uint256",
          "name": "id",
          "type": "uint256"
        },
        {
          "indexed": false,
          "internalType": "uint8",
          "name": "support",
          "type": "uint8"
        }
      ],
      "name": "Log",
      "type": "event"
    },
    {
      "anonymous": false,
      "inputs": [
        {
          "indexed": true,
          "internalType": "address",
          "name": "_member",
          "type": "address"
        }
      ],
      "name": "MemberBanned",
      "type": "event"
    },
    {
      "anonymous": false,
      "inputs": [
        {
          "indexed": true,
          "internalType": "address",
          "name": "_member",
          "type": "address"
        }
      ],
      "name": "MemberCreated",
      "type": "event"
    },
    {
      "anonymous": false,
      "inputs": [
        {
          "indexed": true,
          "internalType": "bytes32",
          "name": "role",
          "type": "bytes32"
        },
        {
          "indexed": true,
          "internalType": "bytes32",
          "name": "previousAdminRole",
          "type": "bytes32"
        },
        {
          "indexed": true,
          "internalType": "bytes32",
          "name": "newAdminRole",
          "type": "bytes32"
        }
      ],
      "name": "RoleAdminChanged",
      "type": "event"
    },
    {
      "anonymous": false,
      "inputs": [
        {
          "indexed": true,
          "internalType": "bytes32",
          "name": "role",
          "type": "bytes32"
        },
        {
          "indexed": true,
          "internalType": "address",
          "name": "account",
          "type": "address"
        },
        {
          "indexed": true,
          "internalType": "address",
          "name": "sender",
          "type": "address"
        }
      ],
      "name": "RoleGranted",
      "type": "event"
    },
    {
      "anonymous": false,
      "inputs": [
        {
          "indexed": true,
          "internalType": "bytes32",
          "name": "role",
          "type": "bytes32"
        },
        {
          "indexed": true,
          "internalType": "address",
          "name": "account",
          "type": "address"
        },
        {
          "indexed": true,
          "internalType": "address",
          "name": "sender",
          "type": "address"
        }
      ],
      "name": "RoleRevoked",
      "type": "event"
    },
    {
      "anonymous": false,
      "inputs": [
        {
          "indexed": true,
          "internalType": "address",
          "name": "implementation",
          "type": "address"
        }
      ],
      "name": "Upgraded",
      "type": "event"
    },
    {
      "inputs": [],
      "name": "DEFAULT_ADMIN_ROLE",
      "outputs": [
        {
          "internalType": "bytes32",
          "name": "",
          "type": "bytes32"
        }
      ],
      "stateMutability": "view",
      "type": "function",
      "constant": true
    },
    {
      "inputs": [
        {
          "internalType": "bytes32",
          "name": "role",
          "type": "bytes32"
        }
      ],
      "name": "getRoleAdmin",
      "outputs": [
        {
          "internalType": "bytes32",
          "name": "",
          "type": "bytes32"
        }
      ],
      "stateMutability": "view",
      "type": "function",
      "constant": true
    },
    {
      "inputs": [
        {
          "internalType": "bytes32",
          "name": "role",
          "type": "bytes32"
        },
        {
          "internalType": "uint256",
          "name": "index",
          "type": "uint256"
        }
      ],
      "name": "getRoleMember",
      "outputs": [
        {
          "internalType": "address",
          "name": "",
          "type": "address"
        }
      ],
      "stateMutability": "view",
      "type": "function",
      "constant": true
    },
    {
      "inputs": [
        {
          "internalType": "bytes32",
          "name": "role",
          "type": "bytes32"
        }
      ],
      "name": "getRoleMemberCount",
      "outputs": [
        {
          "internalType": "uint256",
          "name": "",
          "type": "uint256"
        }
      ],
      "stateMutability": "view",
      "type": "function",
      "constant": true
    },
    {
      "inputs": [
        {
          "internalType": "bytes32",
          "name": "role",
          "type": "bytes32"
        },
        {
          "internalType": "address",
          "name": "account",
          "type": "address"
        }
      ],
      "name": "grantRole",
      "outputs": [],
      "stateMutability": "nonpayable",
      "type": "function"
    },
    {
      "inputs": [
        {
          "internalType": "bytes32",
          "name": "role",
          "type": "bytes32"
        },
        {
          "internalType": "address",
          "name": "account",
          "type": "address"
        }
      ],
      "name": "hasRole",
      "outputs": [
        {
          "internalType": "bool",
          "name": "",
          "type": "bool"
        }
      ],
      "stateMutability": "view",
      "type": "function",
      "constant": true
    },
    {
      "inputs": [
        {
          "internalType": "address",
          "name": "",
          "type": "address"
        },
        {
          "internalType": "address",
          "name": "",
          "type": "address"
        },
        {
          "internalType": "uint256",
          "name": "",
          "type": "uint256"
        },
        {
          "internalType": "bytes",
          "name": "",
          "type": "bytes"
        }
      ],
      "name": "onERC721Received",
      "outputs": [
        {
          "internalType": "bytes4",
          "name": "",
          "type": "bytes4"
        }
      ],
      "stateMutability": "nonpayable",
      "type": "function"
    },
    {
      "inputs": [
        {
          "internalType": "bytes32",
          "name": "role",
          "type": "bytes32"
        },
        {
          "internalType": "address",
          "name": "account",
          "type": "address"
        }
      ],
      "name": "renounceRole",
      "outputs": [],
      "stateMutability": "nonpayable",
      "type": "function"
    },
    {
      "inputs": [
        {
          "internalType": "bytes32",
          "name": "role",
          "type": "bytes32"
        },
        {
          "internalType": "address",
          "name": "account",
          "type": "address"
        }
      ],
      "name": "revokeRole",
      "outputs": [],
      "stateMutability": "nonpayable",
      "type": "function"
    },
    {
      "inputs": [
        {
          "internalType": "bytes4",
          "name": "interfaceId",
          "type": "bytes4"
        }
      ],
      "name": "supportsInterface",
      "outputs": [
        {
          "internalType": "bool",
          "name": "",
          "type": "bool"
        }
      ],
      "stateMutability": "view",
      "type": "function",
      "constant": true
    },
    {
      "inputs": [
        {
          "internalType": "address",
          "name": "newImplementation",
          "type": "address"
        }
      ],
      "name": "upgradeTo",
      "outputs": [],
      "stateMutability": "nonpayable",
      "type": "function"
    },
    {
      "inputs": [
        {
          "internalType": "address",
          "name": "newImplementation",
          "type": "address"
        },
        {
          "internalType": "bytes",
          "name": "data",
          "type": "bytes"
        }
      ],
      "name": "upgradeToAndCall",
      "outputs": [],
      "stateMutability": "payable",
      "type": "function",
      "payable": true
    },
    {
      "inputs": [
        {
          "internalType": "address",
          "name": "govAddress",
          "type": "address"
        },
        {
          "internalType": "address",
          "name": "timelockerAddress",
          "type": "address"
        },
        {
          "internalType": "address",
          "name": "tokenAddress",
          "type": "address"
        }
      ],
      "name": "__IkonDAO_init",
      "outputs": [],
      "stateMutability": "nonpayable",
      "type": "function"
    },
    {
      "inputs": [
        {
          "internalType": "address[]",
          "name": "targets",
          "type": "address[]"
        },
        {
          "internalType": "uint256[]",
          "name": "values",
          "type": "uint256[]"
        },
        {
          "internalType": "bytes[]",
          "name": "datas",
          "type": "bytes[]"
        },
        {
          "internalType": "string",
          "name": "description",
          "type": "string"
        }
      ],
      "name": "propose",
      "outputs": [
        {
          "internalType": "uint256",
          "name": "_proposalId",
          "type": "uint256"
        }
      ],
      "stateMutability": "nonpayable",
      "type": "function"
    },
    {
      "inputs": [
        {
          "internalType": "uint256",
          "name": "proposalId",
          "type": "uint256"
        },
        {
          "internalType": "uint8",
          "name": "support",
          "type": "uint8"
        }
      ],
      "name": "castVote",
      "outputs": [
        {
          "internalType": "uint256",
          "name": "",
          "type": "uint256"
        }
      ],
      "stateMutability": "nonpayable",
      "type": "function"
    },
    {
      "inputs": [
        {
          "internalType": "address[]",
          "name": "targets",
          "type": "address[]"
        },
        {
          "internalType": "uint256[]",
          "name": "values",
          "type": "uint256[]"
        },
        {
          "internalType": "bytes[]",
          "name": "datas",
          "type": "bytes[]"
        },
        {
          "internalType": "bytes32",
          "name": "descriptionHash",
          "type": "bytes32"
        }
      ],
      "name": "execute",
      "outputs": [
        {
          "internalType": "uint256",
          "name": "",
          "type": "uint256"
        }
      ],
      "stateMutability": "nonpayable",
      "type": "function"
    },
    {
      "inputs": [
        {
          "internalType": "address[]",
          "name": "targets",
          "type": "address[]"
        },
        {
          "internalType": "uint256[]",
          "name": "values",
          "type": "uint256[]"
        },
        {
          "internalType": "bytes[]",
          "name": "datas",
          "type": "bytes[]"
        },
        {
          "internalType": "bytes32",
          "name": "descriptionHash",
          "type": "bytes32"
        }
      ],
      "name": "queue",
      "outputs": [
        {
          "internalType": "uint256",
          "name": "",
          "type": "uint256"
        }
      ],
      "stateMutability": "nonpayable",
      "type": "function"
    },
    {
      "inputs": [],
      "name": "createMember",
      "outputs": [],
      "stateMutability": "nonpayable",
      "type": "function"
    },
    {
      "inputs": [
        {
          "internalType": "address",
          "name": "_account",
          "type": "address"
        }
      ],
      "name": "banMember",
      "outputs": [],
      "stateMutability": "nonpayable",
      "type": "function"
    },
    {
      "inputs": [],
      "name": "transferTokensToTimelocker",
      "outputs": [],
      "stateMutability": "nonpayable",
      "type": "function"
    },
    {
      "inputs": [
        {
          "internalType": "uint256",
          "name": "amount",
          "type": "uint256"
        },
        {
          "internalType": "address",
          "name": "to",
          "type": "address"
        }
      ],
      "name": "mintUtilityTokens",
      "outputs": [],
      "stateMutability": "nonpayable",
      "type": "function"
    }
  ],
  "bytecode": "0x60a06040523073ffffffffffffffffffffffffffffffffffffffff1660809073ffffffffffffffffffffffffffffffffffffffff1681525034801561004357600080fd5b506080516143b161007460003960008181610d9a01528181610e2901528181610f230152610fb201526143b16000f3fe60806040526004361061012a5760003560e01c80633659cfe6116100ab57806391d148541161006f57806391d1485414610417578063a217fddf14610454578063ca15c8731461047f578063d547741f146104bc578063d6f74c45146104e5578063d815e58d1461050e5761012a565b80633659cfe61461031b5780634f1ef2861461034457806356781388146103605780637d5e81e21461039d5780639010d07c146103da5761012a565b8063248a9ca3116100f2578063248a9ca3146102385780632656227d146102755780632f2ff15d146102b257806333449ea3146102db57806336568abe146102f25761012a565b806301ffc9a71461012f5780630524b2161461016c5780630b236f6a14610195578063150b7a02146101be578063160cbed7146101fb575b600080fd5b34801561013b57600080fd5b5061015660048036038101906101519190612be9565b610525565b6040516101639190612c31565b60405180910390f35b34801561017857600080fd5b50610193600480360381019061018e9190612ce0565b61059f565b005b3480156101a157600080fd5b506101bc60048036038101906101b79190612d20565b61070e565b005b3480156101ca57600080fd5b506101e560048036038101906101e09190612eb9565b6109ac565b6040516101f29190612f4b565b60405180910390f35b34801561020757600080fd5b50610222600480360381019061021d9190613133565b6109c0565b60405161022f9190613205565b60405180910390f35b34801561024457600080fd5b5061025f600480360381019061025a9190613220565b610aa9565b60405161026c919061325c565b60405180910390f35b34801561028157600080fd5b5061029c60048036038101906102979190613133565b610ac9565b6040516102a99190613205565b60405180910390f35b3480156102be57600080fd5b506102d960048036038101906102d49190613277565b610bb2565b005b3480156102e757600080fd5b506102f0610be6565b005b3480156102fe57600080fd5b5061031960048036038101906103149190613277565b610d64565b005b34801561032757600080fd5b50610342600480360381019061033d91906132b7565b610d98565b005b61035e600480360381019061035991906132e4565b610f21565b005b34801561036c57600080fd5b5061038760048036038101906103829190613379565b61105e565b6040516103949190613205565b60405180910390f35b3480156103a957600080fd5b506103c460048036038101906103bf919061340f565b61117d565b6040516103d19190613205565b60405180910390f35b3480156103e657600080fd5b5061040160048036038101906103fc91906134f4565b611269565b60405161040e9190613543565b60405180910390f35b34801561042357600080fd5b5061043e60048036038101906104399190613277565b611298565b60405161044b9190612c31565b60405180910390f35b34801561046057600080fd5b50610469611303565b604051610476919061325c565b60405180910390f35b34801561048b57600080fd5b506104a660048036038101906104a19190613220565b61130a565b6040516104b39190613205565b60405180910390f35b3480156104c857600080fd5b506104e360048036038101906104de9190613277565b61132e565b005b3480156104f157600080fd5b5061050c600480360381019061050791906132b7565b611362565b005b34801561051a57600080fd5b50610523611557565b005b60007f5a05180f000000000000000000000000000000000000000000000000000000007bffffffffffffffffffffffffffffffffffffffffffffffffffffffff1916827bffffffffffffffffffffffffffffffffffffffffffffffffffffffff1916148061059857506105978261170b565b5b9050919050565b7f0454d691b20de09c741657b57037379cb9a924a8d5d937a8aedf7cda4a9994076105d1816105cc611785565b61178d565b60fd60009054906101000a900473ffffffffffffffffffffffffffffffffffffffff1673ffffffffffffffffffffffffffffffffffffffff166340c10f198360fd60009054906101000a900473ffffffffffffffffffffffffffffffffffffffff1673ffffffffffffffffffffffffffffffffffffffff1663313ce5676040518163ffffffff1660e01b81526004016020604051808303816000875af115801561067f573d6000803e3d6000fd5b505050506040513d601f19601f820116820180604052508101906106a39190613573565b600a6106af9190613702565b866106ba919061374d565b6040518363ffffffff1660e01b81526004016106d79291906137a7565b600060405180830381600087803b1580156106f157600080fd5b505af1158015610705573d6000803e3d6000fd5b50505050505050565b600060019054906101000a900460ff1680610734575060008054906101000a900460ff16155b610773576040517f08c379a000000000000000000000000000000000000000000000000000000000815260040161076a90613853565b60405180910390fd5b60008060019054906101000a900460ff1615905080156107c3576001600060016101000a81548160ff02191690831515021790555060016000806101000a81548160ff0219169083151502179055505b8360fb60006101000a81548173ffffffffffffffffffffffffffffffffffffffff021916908373ffffffffffffffffffffffffffffffffffffffff1602179055508260fc60006101000a81548173ffffffffffffffffffffffffffffffffffffffff021916908373ffffffffffffffffffffffffffffffffffffffff1602179055508160fd60006101000a81548173ffffffffffffffffffffffffffffffffffffffff021916908373ffffffffffffffffffffffffffffffffffffffff1602179055506108b77f0454d691b20de09c741657b57037379cb9a924a8d5d937a8aedf7cda4a9994076108b2611785565b61182a565b6108e17f0454d691b20de09c741657b57037379cb9a924a8d5d937a8aedf7cda4a9994078061185e565b61092b7f904cf93ea7789378fd50994f44a6b8ab6b4ef94f4df88df8f6fbb087580199727f0454d691b20de09c741657b57037379cb9a924a8d5d937a8aedf7cda4a99940761185e565b6109757fb9ed84f36f908de1c681f1312e8dd20c4c5a485b54305055813d28e3b79bb6247f0454d691b20de09c741657b57037379cb9a924a8d5d937a8aedf7cda4a99940761185e565b61097d6118ba565b6109856119b3565b80156109a65760008060016101000a81548160ff0219169083151502179055505b50505050565b600063150b7a0260e01b9050949350505050565b60007f904cf93ea7789378fd50994f44a6b8ab6b4ef94f4df88df8f6fbb087580199726109f4816109ef611785565b61178d565b60fb60009054906101000a900473ffffffffffffffffffffffffffffffffffffffff1673ffffffffffffffffffffffffffffffffffffffff1663160cbed78989898989896040518763ffffffff1660e01b8152600401610a5996959493929190613af2565b6020604051808303816000875af1158015610a78573d6000803e3d6000fd5b505050506040513d601f19601f82011682018060405250810190610a9c9190613573565b9150509695505050505050565b600060656000838152602001908152602001600020600101549050919050565b60007f904cf93ea7789378fd50994f44a6b8ab6b4ef94f4df88df8f6fbb08758019972610afd81610af8611785565b61178d565b60fb60009054906101000a900473ffffffffffffffffffffffffffffffffffffffff1673ffffffffffffffffffffffffffffffffffffffff16632656227d8989898989896040518763ffffffff1660e01b8152600401610b6296959493929190613af2565b6020604051808303816000875af1158015610b81573d6000803e3d6000fd5b505050506040513d601f19601f82011682018060405250810190610ba59190613573565b9150509695505050505050565b610bbc8282611a94565b610be18160976000858152602001908152602001600020611abd90919063ffffffff16565b505050565b7f0454d691b20de09c741657b57037379cb9a924a8d5d937a8aedf7cda4a999407610c1881610c13611785565b61178d565b600060fd60009054906101000a900473ffffffffffffffffffffffffffffffffffffffff1673ffffffffffffffffffffffffffffffffffffffff1663b98e652a6040518163ffffffff1660e01b81526004016020604051808303816000875af1158015610c89573d6000803e3d6000fd5b505050506040513d601f19601f82011682018060405250810190610cad9190613573565b905060fd60009054906101000a900473ffffffffffffffffffffffffffffffffffffffff1673ffffffffffffffffffffffffffffffffffffffff1663a9059cbb60fc60009054906101000a900473ffffffffffffffffffffffffffffffffffffffff16836040518363ffffffff1660e01b8152600401610d2e9291906137a7565b600060405180830381600087803b158015610d4857600080fd5b505af1158015610d5c573d6000803e3d6000fd5b505050505050565b610d6e8282611aed565b610d938160976000858152602001908152602001600020611b7090919063ffffffff16565b505050565b7f000000000000000000000000000000000000000000000000000000000000000073ffffffffffffffffffffffffffffffffffffffff163073ffffffffffffffffffffffffffffffffffffffff161415610e27576040517f08c379a0000000000000000000000000000000000000000000000000000000008152600401610e1e90613bc2565b60405180910390fd5b7f000000000000000000000000000000000000000000000000000000000000000073ffffffffffffffffffffffffffffffffffffffff16610e66611ba0565b73ffffffffffffffffffffffffffffffffffffffff1614610ebc576040517f08c379a0000000000000000000000000000000000000000000000000000000008152600401610eb390613c54565b60405180910390fd5b610ec581611bf7565b610f1e81600067ffffffffffffffff811115610ee457610ee3612d8e565b5b6040519080825280601f01601f191660200182016040528015610f165781602001600182028036833780820191505090505b506000611c2d565b50565b7f000000000000000000000000000000000000000000000000000000000000000073ffffffffffffffffffffffffffffffffffffffff163073ffffffffffffffffffffffffffffffffffffffff161415610fb0576040517f08c379a0000000000000000000000000000000000000000000000000000000008152600401610fa790613bc2565b60405180910390fd5b7f000000000000000000000000000000000000000000000000000000000000000073ffffffffffffffffffffffffffffffffffffffff16610fef611ba0565b73ffffffffffffffffffffffffffffffffffffffff1614611045576040517f08c379a000000000000000000000000000000000000000000000000000000000815260040161103c90613c54565b60405180910390fd5b61104e82611bf7565b61105a82826001611c2d565b5050565b60007f904cf93ea7789378fd50994f44a6b8ab6b4ef94f4df88df8f6fbb087580199726110928161108d611785565b61178d565b7fd95899af972902d6af9b531da2919d685f90302a0b054fb287872afc2e672f9e84846040516110c3929190613c83565b60405180910390a160fb60009054906101000a900473ffffffffffffffffffffffffffffffffffffffff1673ffffffffffffffffffffffffffffffffffffffff1663cf8795cc85611112611785565b866040518463ffffffff1660e01b815260040161113193929190613cac565b6020604051808303816000875af1158015611150573d6000803e3d6000fd5b505050506040513d601f19601f820116820180604052508101906111749190613573565b91505092915050565b60007f904cf93ea7789378fd50994f44a6b8ab6b4ef94f4df88df8f6fbb087580199726111b1816111ac611785565b61178d565b60fb60009054906101000a900473ffffffffffffffffffffffffffffffffffffffff1673ffffffffffffffffffffffffffffffffffffffff16637d5e81e28a8a8a8a8a8a8a6040518863ffffffff1660e01b81526004016112189796959493929190613d10565b6020604051808303816000875af1158015611237573d6000803e3d6000fd5b505050506040513d601f19601f8201168201806040525081019061125b9190613573565b915050979650505050505050565b60006112908260976000868152602001908152602001600020611dfe90919063ffffffff16565b905092915050565b60006065600084815260200190815260200160002060000160008373ffffffffffffffffffffffffffffffffffffffff1673ffffffffffffffffffffffffffffffffffffffff16815260200190815260200160002060009054906101000a900460ff16905092915050565b6000801b81565b600061132760976000848152602001908152602001600020611e18565b9050919050565b6113388282611e2d565b61135d8160976000858152602001908152602001600020611b7090919063ffffffff16565b505050565b7f0454d691b20de09c741657b57037379cb9a924a8d5d937a8aedf7cda4a9994076113948161138f611785565b61178d565b6113be7fb9ed84f36f908de1c681f1312e8dd20c4c5a485b54305055813d28e3b79bb62483611298565b156040518060400160405280601f81526020017f496b6f6e44414f3a206163636f756e7420616c72656164792062616e6e65640081525090611436576040517f08c379a000000000000000000000000000000000000000000000000000000000815260040161142d9190613dbb565b60405180910390fd5b506114617f904cf93ea7789378fd50994f44a6b8ab6b4ef94f4df88df8f6fbb0875801997283611298565b60405180606001604052806025815260200161433060259139906114bb576040517f08c379a00000000000000000000000000000000000000000000000000000000081526004016114b29190613dbb565b60405180910390fd5b506114e67f904cf93ea7789378fd50994f44a6b8ab6b4ef94f4df88df8f6fbb087580199728361132e565b6115107fb9ed84f36f908de1c681f1312e8dd20c4c5a485b54305055813d28e3b79bb6248361182a565b8173ffffffffffffffffffffffffffffffffffffffff167f2ba372380f7456b33b4165acf7f02e8670adc02314e882c33d506b0919a8b05660405160405180910390a25050565b6115887f904cf93ea7789378fd50994f44a6b8ab6b4ef94f4df88df8f6fbb08758019972611583611785565b611298565b156040518060400160405280601981526020017f496b6f6e44414f3a20616c72656164792061206d656d6265720000000000000081525090611600576040517f08c379a00000000000000000000000000000000000000000000000000000000081526004016115f79190613dbb565b60405180910390fd5b506116327fb9ed84f36f908de1c681f1312e8dd20c4c5a485b54305055813d28e3b79bb62461162d611785565b611298565b156040518060600160405280602b8152602001614305602b91399061168d576040517f08c379a00000000000000000000000000000000000000000000000000000000081526004016116849190613dbb565b60405180910390fd5b506116bf7f904cf93ea7789378fd50994f44a6b8ab6b4ef94f4df88df8f6fbb087580199726116ba611785565b61182a565b6116c7611785565b73ffffffffffffffffffffffffffffffffffffffff167feac79790ec7572f2c7ebd3d58fa84f2bb652383d683c622cb6fddbf2153d82ff60405160405180910390a2565b60007f7965db0b000000000000000000000000000000000000000000000000000000007bffffffffffffffffffffffffffffffffffffffffffffffffffffffff1916827bffffffffffffffffffffffffffffffffffffffffffffffffffffffff1916148061177e575061177d82611e56565b5b9050919050565b600033905090565b6117978282611298565b611826576117bc8173ffffffffffffffffffffffffffffffffffffffff166014611ec0565b6117ca8360001c6020611ec0565b6040516020016117db929190613eb1565b6040516020818303038152906040526040517f08c379a000000000000000000000000000000000000000000000000000000000815260040161181d9190613dbb565b60405180910390fd5b5050565b61183482826120fc565b6118598160976000858152602001908152602001600020611abd90919063ffffffff16565b505050565b600061186983610aa9565b90508160656000858152602001908152602001600020600101819055508181847fbd79b86ffe0ab8e8776151514217cd7cacd52c909f66475c3af44e129f0b00ff60405160405180910390a4505050565b600060019054906101000a900460ff16806118e0575060008054906101000a900460ff16155b61191f576040517f08c379a000000000000000000000000000000000000000000000000000000000815260040161191690613853565b60405180910390fd5b60008060019054906101000a900460ff16159050801561196f576001600060016101000a81548160ff02191690831515021790555060016000806101000a81548160ff0219169083151502179055505b61197761210a565b61197f6121e3565b6119876122bc565b61198f612395565b80156119b05760008060016101000a81548160ff0219169083151502179055505b50565b600060019054906101000a900460ff16806119d9575060008054906101000a900460ff16155b611a18576040517f08c379a0000000000000000000000000000000000000000000000000000000008152600401611a0f90613853565b60405180910390fd5b60008060019054906101000a900460ff161590508015611a68576001600060016101000a81548160ff02191690831515021790555060016000806101000a81548160ff0219169083151502179055505b611a7061246e565b8015611a915760008060016101000a81548160ff0219169083151502179055505b50565b611a9d82610aa9565b611aae81611aa9611785565b61178d565b611ab88383612547565b505050565b6000611ae5836000018373ffffffffffffffffffffffffffffffffffffffff1660001b612628565b905092915050565b611af5611785565b73ffffffffffffffffffffffffffffffffffffffff168173ffffffffffffffffffffffffffffffffffffffff1614611b62576040517f08c379a0000000000000000000000000000000000000000000000000000000008152600401611b5990613f5d565b60405180910390fd5b611b6c8282612698565b5050565b6000611b98836000018373ffffffffffffffffffffffffffffffffffffffff1660001b61277a565b905092915050565b6000611bce7f360894a13ba1a3210667c828492db98dca3e2076cc3735a920a3ca505d382bbc60001b61288e565b60000160009054906101000a900473ffffffffffffffffffffffffffffffffffffffff16905090565b7f0454d691b20de09c741657b57037379cb9a924a8d5d937a8aedf7cda4a999407611c2981611c24611785565b61178d565b5050565b6000611c37611ba0565b9050611c4284612898565b600083511180611c4f5750815b15611c6057611c5e8484612951565b505b6000611c8e7f4910fdfa16fed3260ed0e7147f7cc6da11a60208b5b9406d12a635614ffd914360001b61297e565b90508060000160009054906101000a900460ff16611df75760018160000160006101000a81548160ff021916908315150217905550611d5a8583604051602401611cd89190613543565b6040516020818303038152906040527f3659cfe6000000000000000000000000000000000000000000000000000000007bffffffffffffffffffffffffffffffffffffffffffffffffffffffff19166020820180517bffffffffffffffffffffffffffffffffffffffffffffffffffffffff8381831617835250505050612951565b5060008160000160006101000a81548160ff021916908315150217905550611d80611ba0565b73ffffffffffffffffffffffffffffffffffffffff168273ffffffffffffffffffffffffffffffffffffffff1614611ded576040517f08c379a0000000000000000000000000000000000000000000000000000000008152600401611de490613fef565b60405180910390fd5b611df685612988565b5b5050505050565b6000611e0d83600001836129d7565b60001c905092915050565b6000611e2682600001612a02565b9050919050565b611e3682610aa9565b611e4781611e42611785565b61178d565b611e518383612698565b505050565b60007f01ffc9a7000000000000000000000000000000000000000000000000000000007bffffffffffffffffffffffffffffffffffffffffffffffffffffffff1916827bffffffffffffffffffffffffffffffffffffffffffffffffffffffff1916149050919050565b606060006002836002611ed3919061374d565b611edd919061400f565b67ffffffffffffffff811115611ef657611ef5612d8e565b5b6040519080825280601f01601f191660200182016040528015611f285781602001600182028036833780820191505090505b5090507f300000000000000000000000000000000000000000000000000000000000000081600081518110611f6057611f5f614065565b5b60200101907effffffffffffffffffffffffffffffffffffffffffffffffffffffffffffff1916908160001a9053507f780000000000000000000000000000000000000000000000000000000000000081600181518110611fc457611fc3614065565b5b60200101907effffffffffffffffffffffffffffffffffffffffffffffffffffffffffffff1916908160001a90535060006001846002612004919061374d565b61200e919061400f565b90505b60018111156120ae577f3031323334353637383961626364656600000000000000000000000000000000600f8616601081106120505761204f614065565b5b1a60f81b82828151811061206757612066614065565b5b60200101907effffffffffffffffffffffffffffffffffffffffffffffffffffffffffffff1916908160001a905350600485901c9450806120a790614094565b9050612011565b50600084146120f2576040517f08c379a00000000000000000000000000000000000000000000000000000000081526004016120e99061410a565b60405180910390fd5b8091505092915050565b6121068282612547565b5050565b600060019054906101000a900460ff1680612130575060008054906101000a900460ff16155b61216f576040517f08c379a000000000000000000000000000000000000000000000000000000000815260040161216690613853565b60405180910390fd5b60008060019054906101000a900460ff1615905080156121bf576001600060016101000a81548160ff02191690831515021790555060016000806101000a81548160ff0219169083151502179055505b80156121e05760008060016101000a81548160ff0219169083151502179055505b50565b600060019054906101000a900460ff1680612209575060008054906101000a900460ff16155b612248576040517f08c379a000000000000000000000000000000000000000000000000000000000815260040161223f90613853565b60405180910390fd5b60008060019054906101000a900460ff161590508015612298576001600060016101000a81548160ff02191690831515021790555060016000806101000a81548160ff0219169083151502179055505b80156122b95760008060016101000a81548160ff0219169083151502179055505b50565b600060019054906101000a900460ff16806122e2575060008054906101000a900460ff16155b612321576040517f08c379a000000000000000000000000000000000000000000000000000000000815260040161231890613853565b60405180910390fd5b60008060019054906101000a900460ff161590508015612371576001600060016101000a81548160ff02191690831515021790555060016000806101000a81548160ff0219169083151502179055505b80156123925760008060016101000a81548160ff0219169083151502179055505b50565b600060019054906101000a900460ff16806123bb575060008054906101000a900460ff16155b6123fa576040517f08c379a00000000000000000000000000000000000000000000000000000000081526004016123f190613853565b60405180910390fd5b60008060019054906101000a900460ff16159050801561244a576001600060016101000a81548160ff02191690831515021790555060016000806101000a81548160ff0219169083151502179055505b801561246b5760008060016101000a81548160ff0219169083151502179055505b50565b600060019054906101000a900460ff1680612494575060008054906101000a900460ff16155b6124d3576040517f08c379a00000000000000000000000000000000000000000000000000000000081526004016124ca90613853565b60405180910390fd5b60008060019054906101000a900460ff161590508015612523576001600060016101000a81548160ff02191690831515021790555060016000806101000a81548160ff0219169083151502179055505b80156125445760008060016101000a81548160ff0219169083151502179055505b50565b6125518282611298565b6126245760016065600084815260200190815260200160002060000160008373ffffffffffffffffffffffffffffffffffffffff1673ffffffffffffffffffffffffffffffffffffffff16815260200190815260200160002060006101000a81548160ff0219169083151502179055506125c9611785565b73ffffffffffffffffffffffffffffffffffffffff168173ffffffffffffffffffffffffffffffffffffffff16837f2f8788117e7eff1d82e926ec794901d17c78024a50270940304540a733656f0d60405160405180910390a45b5050565b60006126348383612a13565b61268d578260000182908060018154018082558091505060019003906000526020600020016000909190919091505582600001805490508360010160008481526020019081526020016000208190555060019050612692565b600090505b92915050565b6126a28282611298565b156127765760006065600084815260200190815260200160002060000160008373ffffffffffffffffffffffffffffffffffffffff1673ffffffffffffffffffffffffffffffffffffffff16815260200190815260200160002060006101000a81548160ff02191690831515021790555061271b611785565b73ffffffffffffffffffffffffffffffffffffffff168173ffffffffffffffffffffffffffffffffffffffff16837ff6391f5c32d9c69d2a47ea670b442974b53935d1edc7fd64eb21e047a839171b60405160405180910390a45b5050565b600080836001016000848152602001908152602001600020549050600081146128825760006001826127ac919061412a565b90506000600186600001805490506127c4919061412a565b90508181146128335760008660000182815481106127e5576127e4614065565b5b906000526020600020015490508087600001848154811061280957612808614065565b5b90600052602060002001819055508387600101600083815260200190815260200160002081905550505b856000018054806128475761284661415e565b5b600190038181906000526020600020016000905590558560010160008681526020019081526020016000206000905560019350505050612888565b60009150505b92915050565b6000819050919050565b6128a181612a36565b6128e0576040517f08c379a00000000000000000000000000000000000000000000000000000000081526004016128d7906141ff565b60405180910390fd5b8061290d7f360894a13ba1a3210667c828492db98dca3e2076cc3735a920a3ca505d382bbc60001b61288e565b60000160006101000a81548173ffffffffffffffffffffffffffffffffffffffff021916908373ffffffffffffffffffffffffffffffffffffffff16021790555050565b6060612976838360405180606001604052806027815260200161435560279139612a49565b905092915050565b6000819050919050565b61299181612898565b8073ffffffffffffffffffffffffffffffffffffffff167fbc7cd75a20ee27fd9adebab32041f755214dbc6bffa90cc0225b39da2e5c2d3b60405160405180910390a250565b60008260000182815481106129ef576129ee614065565b5b9060005260206000200154905092915050565b600081600001805490509050919050565b600080836001016000848152602001908152602001600020541415905092915050565b600080823b905060008111915050919050565b6060612a5484612a36565b612a93576040517f08c379a0000000000000000000000000000000000000000000000000000000008152600401612a8a90614291565b60405180910390fd5b6000808573ffffffffffffffffffffffffffffffffffffffff1685604051612abb91906142ed565b600060405180830381855af49150503d8060008114612af6576040519150601f19603f3d011682016040523d82523d6000602084013e612afb565b606091505b5091509150612b0b828286612b16565b925050509392505050565b60608315612b2657829050612b76565b600083511115612b395782518084602001fd5b816040517f08c379a0000000000000000000000000000000000000000000000000000000008152600401612b6d9190613dbb565b60405180910390fd5b9392505050565b6000604051905090565b600080fd5b600080fd5b60007fffffffff0000000000000000000000000000000000000000000000000000000082169050919050565b612bc681612b91565b8114612bd157600080fd5b50565b600081359050612be381612bbd565b92915050565b600060208284031215612bff57612bfe612b87565b5b6000612c0d84828501612bd4565b91505092915050565b60008115159050919050565b612c2b81612c16565b82525050565b6000602082019050612c466000830184612c22565b92915050565b6000819050919050565b612c5f81612c4c565b8114612c6a57600080fd5b50565b600081359050612c7c81612c56565b92915050565b600073ffffffffffffffffffffffffffffffffffffffff82169050919050565b6000612cad82612c82565b9050919050565b612cbd81612ca2565b8114612cc857600080fd5b50565b600081359050612cda81612cb4565b92915050565b60008060408385031215612cf757612cf6612b87565b5b6000612d0585828601612c6d565b9250506020612d1685828601612ccb565b9150509250929050565b600080600060608486031215612d3957612d38612b87565b5b6000612d4786828701612ccb565b9350506020612d5886828701612ccb565b9250506040612d6986828701612ccb565b9150509250925092565b600080fd5b600080fd5b6000601f19601f8301169050919050565b7f4e487b7100000000000000000000000000000000000000000000000000000000600052604160045260246000fd5b612dc682612d7d565b810181811067ffffffffffffffff82111715612de557612de4612d8e565b5b80604052505050565b6000612df8612b7d565b9050612e048282612dbd565b919050565b600067ffffffffffffffff821115612e2457612e23612d8e565b5b612e2d82612d7d565b9050602081019050919050565b82818337600083830152505050565b6000612e5c612e5784612e09565b612dee565b905082815260208101848484011115612e7857612e77612d78565b5b612e83848285612e3a565b509392505050565b600082601f830112612ea057612e9f612d73565b5b8135612eb0848260208601612e49565b91505092915050565b60008060008060808587031215612ed357612ed2612b87565b5b6000612ee187828801612ccb565b9450506020612ef287828801612ccb565b9350506040612f0387828801612c6d565b925050606085013567ffffffffffffffff811115612f2457612f23612b8c565b5b612f3087828801612e8b565b91505092959194509250565b612f4581612b91565b82525050565b6000602082019050612f606000830184612f3c565b92915050565b600080fd5b600080fd5b60008083601f840112612f8657612f85612d73565b5b8235905067ffffffffffffffff811115612fa357612fa2612f66565b5b602083019150836020820283011115612fbf57612fbe612f6b565b5b9250929050565b60008083601f840112612fdc57612fdb612d73565b5b8235905067ffffffffffffffff811115612ff957612ff8612f66565b5b60208301915083602082028301111561301557613014612f6b565b5b9250929050565b600067ffffffffffffffff82111561303757613036612d8e565b5b602082029050602081019050919050565b600061305b6130568461301c565b612dee565b9050808382526020820190506020840283018581111561307e5761307d612f6b565b5b835b818110156130c557803567ffffffffffffffff8111156130a3576130a2612d73565b5b8086016130b08982612e8b565b85526020850194505050602081019050613080565b5050509392505050565b600082601f8301126130e4576130e3612d73565b5b81356130f4848260208601613048565b91505092915050565b6000819050919050565b613110816130fd565b811461311b57600080fd5b50565b60008135905061312d81613107565b92915050565b600080600080600080608087890312156131505761314f612b87565b5b600087013567ffffffffffffffff81111561316e5761316d612b8c565b5b61317a89828a01612f70565b9650965050602087013567ffffffffffffffff81111561319d5761319c612b8c565b5b6131a989828a01612fc6565b9450945050604087013567ffffffffffffffff8111156131cc576131cb612b8c565b5b6131d889828a016130cf565b92505060606131e989828a0161311e565b9150509295509295509295565b6131ff81612c4c565b82525050565b600060208201905061321a60008301846131f6565b92915050565b60006020828403121561323657613235612b87565b5b60006132448482850161311e565b91505092915050565b613256816130fd565b82525050565b6000602082019050613271600083018461324d565b92915050565b6000806040838503121561328e5761328d612b87565b5b600061329c8582860161311e565b92505060206132ad85828601612ccb565b9150509250929050565b6000602082840312156132cd576132cc612b87565b5b60006132db84828501612ccb565b91505092915050565b600080604083850312156132fb576132fa612b87565b5b600061330985828601612ccb565b925050602083013567ffffffffffffffff81111561332a57613329612b8c565b5b61333685828601612e8b565b9150509250929050565b600060ff82169050919050565b61335681613340565b811461336157600080fd5b50565b6000813590506133738161334d565b92915050565b600080604083850312156133905761338f612b87565b5b600061339e85828601612c6d565b92505060206133af85828601613364565b9150509250929050565b60008083601f8401126133cf576133ce612d73565b5b8235905067ffffffffffffffff8111156133ec576133eb612f66565b5b60208301915083600182028301111561340857613407612f6b565b5b9250929050565b60008060008060008060006080888a03121561342e5761342d612b87565b5b600088013567ffffffffffffffff81111561344c5761344b612b8c565b5b6134588a828b01612f70565b9750975050602088013567ffffffffffffffff81111561347b5761347a612b8c565b5b6134878a828b01612fc6565b9550955050604088013567ffffffffffffffff8111156134aa576134a9612b8c565b5b6134b68a828b016130cf565b935050606088013567ffffffffffffffff8111156134d7576134d6612b8c565b5b6134e38a828b016133b9565b925092505092959891949750929550565b6000806040838503121561350b5761350a612b87565b5b60006135198582860161311e565b925050602061352a85828601612c6d565b9150509250929050565b61353d81612ca2565b82525050565b60006020820190506135586000830184613534565b92915050565b60008151905061356d81612c56565b92915050565b60006020828403121561358957613588612b87565b5b60006135978482850161355e565b91505092915050565b7f4e487b7100000000000000000000000000000000000000000000000000000000600052601160045260246000fd5b60008160011c9050919050565b6000808291508390505b600185111561362657808604811115613602576136016135a0565b5b60018516156136115780820291505b808102905061361f856135cf565b94506135e6565b94509492505050565b60008261363f57600190506136fb565b8161364d57600090506136fb565b8160018114613663576002811461366d5761369c565b60019150506136fb565b60ff84111561367f5761367e6135a0565b5b8360020a915084821115613696576136956135a0565b5b506136fb565b5060208310610133831016604e8410600b84101617156136d15782820a9050838111156136cc576136cb6135a0565b5b6136fb565b6136de84848460016135dc565b925090508184048111156136f5576136f46135a0565b5b81810290505b9392505050565b600061370d82612c4c565b915061371883612c4c565b92506137457fffffffffffffffffffffffffffffffffffffffffffffffffffffffffffffffff848461362f565b905092915050565b600061375882612c4c565b915061376383612c4c565b9250817fffffffffffffffffffffffffffffffffffffffffffffffffffffffffffffffff048311821515161561379c5761379b6135a0565b5b828202905092915050565b60006040820190506137bc6000830185613534565b6137c960208301846131f6565b9392505050565b600082825260208201905092915050565b7f496e697469616c697a61626c653a20636f6e747261637420697320616c72656160008201527f647920696e697469616c697a6564000000000000000000000000000000000000602082015250565b600061383d602e836137d0565b9150613848826137e1565b604082019050919050565b6000602082019050818103600083015261386c81613830565b9050919050565b600082825260208201905092915050565b6000819050919050565b61389781612ca2565b82525050565b60006138a9838361388e565b60208301905092915050565b60006138c46020840184612ccb565b905092915050565b6000602082019050919050565b60006138e58385613873565b93506138f082613884565b8060005b858110156139295761390682846138b5565b613910888261389d565b975061391b836138cc565b9250506001810190506138f4565b5085925050509392505050565b600082825260208201905092915050565b600080fd5b60006139588385613936565b93507f07ffffffffffffffffffffffffffffffffffffffffffffffffffffffffffffff83111561398b5761398a613947565b5b60208302925061399c838584612e3a565b82840190509392505050565b600081519050919050565b600082825260208201905092915050565b6000819050602082019050919050565b600081519050919050565b600082825260208201905092915050565b60005b83811015613a0e5780820151818401526020810190506139f3565b83811115613a1d576000848401525b50505050565b6000613a2e826139d4565b613a3881856139df565b9350613a488185602086016139f0565b613a5181612d7d565b840191505092915050565b6000613a688383613a23565b905092915050565b6000602082019050919050565b6000613a88826139a8565b613a9281856139b3565b935083602082028501613aa4856139c4565b8060005b85811015613ae05784840389528151613ac18582613a5c565b9450613acc83613a70565b925060208a01995050600181019050613aa8565b50829750879550505050505092915050565b60006080820190508181036000830152613b0d81888a6138d9565b90508181036020830152613b2281868861394c565b90508181036040830152613b368185613a7d565b9050613b45606083018461324d565b979650505050505050565b7f46756e6374696f6e206d7573742062652063616c6c6564207468726f7567682060008201527f64656c656761746563616c6c0000000000000000000000000000000000000000602082015250565b6000613bac602c836137d0565b9150613bb782613b50565b604082019050919050565b60006020820190508181036000830152613bdb81613b9f565b9050919050565b7f46756e6374696f6e206d7573742062652063616c6c6564207468726f7567682060008201527f6163746976652070726f78790000000000000000000000000000000000000000602082015250565b6000613c3e602c836137d0565b9150613c4982613be2565b604082019050919050565b60006020820190508181036000830152613c6d81613c31565b9050919050565b613c7d81613340565b82525050565b6000604082019050613c9860008301856131f6565b613ca56020830184613c74565b9392505050565b6000606082019050613cc160008301866131f6565b613cce6020830185613534565b613cdb6040830184613c74565b949350505050565b6000613cef83856137d0565b9350613cfc838584612e3a565b613d0583612d7d565b840190509392505050565b60006080820190508181036000830152613d2b81898b6138d9565b90508181036020830152613d4081878961394c565b90508181036040830152613d548186613a7d565b90508181036060830152613d69818486613ce3565b905098975050505050505050565b600081519050919050565b6000613d8d82613d77565b613d9781856137d0565b9350613da78185602086016139f0565b613db081612d7d565b840191505092915050565b60006020820190508181036000830152613dd58184613d82565b905092915050565b600081905092915050565b7f416363657373436f6e74726f6c3a206163636f756e7420000000000000000000600082015250565b6000613e1e601783613ddd565b9150613e2982613de8565b601782019050919050565b6000613e3f82613d77565b613e498185613ddd565b9350613e598185602086016139f0565b80840191505092915050565b7f206973206d697373696e6720726f6c6520000000000000000000000000000000600082015250565b6000613e9b601183613ddd565b9150613ea682613e65565b601182019050919050565b6000613ebc82613e11565b9150613ec88285613e34565b9150613ed382613e8e565b9150613edf8284613e34565b91508190509392505050565b7f416363657373436f6e74726f6c3a2063616e206f6e6c792072656e6f756e636560008201527f20726f6c657320666f722073656c660000000000000000000000000000000000602082015250565b6000613f47602f836137d0565b9150613f5282613eeb565b604082019050919050565b60006020820190508181036000830152613f7681613f3a565b9050919050565b7f45524331393637557067726164653a207570677261646520627265616b73206660008201527f7572746865722075706772616465730000000000000000000000000000000000602082015250565b6000613fd9602f836137d0565b9150613fe482613f7d565b604082019050919050565b6000602082019050818103600083015261400881613fcc565b9050919050565b600061401a82612c4c565b915061402583612c4c565b9250827fffffffffffffffffffffffffffffffffffffffffffffffffffffffffffffffff0382111561405a576140596135a0565b5b828201905092915050565b7f4e487b7100000000000000000000000000000000000000000000000000000000600052603260045260246000fd5b600061409f82612c4c565b915060008214156140b3576140b26135a0565b5b600182039050919050565b7f537472696e67733a20686578206c656e67746820696e73756666696369656e74600082015250565b60006140f46020836137d0565b91506140ff826140be565b602082019050919050565b60006020820190508181036000830152614123816140e7565b9050919050565b600061413582612c4c565b915061414083612c4c565b925082821015614153576141526135a0565b5b828203905092915050565b7f4e487b7100000000000000000000000000000000000000000000000000000000600052603160045260246000fd5b7f455243313936373a206e657720696d706c656d656e746174696f6e206973206e60008201527f6f74206120636f6e747261637400000000000000000000000000000000000000602082015250565b60006141e9602d836137d0565b91506141f48261418d565b604082019050919050565b60006020820190508181036000830152614218816141dc565b9050919050565b7f416464726573733a2064656c65676174652063616c6c20746f206e6f6e2d636f60008201527f6e74726163740000000000000000000000000000000000000000000000000000602082015250565b600061427b6026836137d0565b91506142868261421f565b604082019050919050565b600060208201905081810360008301526142aa8161426e565b9050919050565b600081905092915050565b60006142c7826139d4565b6142d181856142b1565b93506142e18185602086016139f0565b80840191505092915050565b60006142f982846142bc565b91508190509291505056fe496b6f6e44414f3a2062616e6e65642075736572732063616e6e6f74206265636f6d65206d656d62657273496b6f6e44414f3a206e6f6e206d656d626572732063616e6e6f742062652062616e6e6564416464726573733a206c6f772d6c6576656c2064656c65676174652063616c6c206661696c6564a2646970667358221220efa146f1d07b64b39fa09dc9dd6e2d9dd2720a4134457e5c852b667f511a202f64736f6c634300080a0033",
  "immutableReferences": {
    "5108": [
      {
        "length": 32,
        "start": 3482
      },
      {
        "length": 32,
        "start": 3625
      },
      {
        "length": 32,
        "start": 3875
      },
      {
        "length": 32,
        "start": 4018
      }
    ]
  },
  "source": "// SPDX-License-Identifier: MIT\npragma solidity ^0.8.2;\n\n/// @title The IKONDAO - a distributed collective for icon, vector graphics, animated svg's creators and creative artists\n/// @author Fernando M. Trouw\n/// @notice this contract experimental \n/// @notice this contract is an experimental contract and should not be used to initiate project that will hold real value\n\nimport \"@openzeppelin/contracts/governance/IGovernor.sol\";\nimport \"@openzeppelin/contracts-upgradeable/access/OwnableUpgradeable.sol\";\nimport \"@openzeppelin/contracts-upgradeable/access/AccessControlEnumerableUpgradeable.sol\";\nimport \"@openzeppelin/contracts/utils/structs/EnumerableSet.sol\"; \nimport \"@openzeppelin/contracts/proxy/utils/UUPSUpgradeable.sol\";\nimport \"@openzeppelin/contracts-upgradeable/token/ERC721/utils/ERC721HolderUpgradeable.sol\";\n\nimport \"./IkonDAOGovernor.sol\";\nimport \"./IkonDAOGovernanceToken.sol\";\nimport \"./IkonDAOToken.sol\";\nimport \"./Constants.sol\";\nimport \"./IIkonDAO.sol\";\n\n// import \"./Helpers.sol\"; \n\ncontract IkonDAO is Constants, AccessControlEnumerableUpgradeable, ERC721HolderUpgradeable, UUPSUpgradeable {\n    \n    IIkonDAO private governor;\n    address private timelocker;    \n    IIkonDAO private token; \n    // IIkonDAO private votes;\n    // mapping(uint256 => Proposal) public proposals;\n    // mapping(address => uint256[]) private memberProposals;\n    // mapping(Avatar => IIkonDAO) private avatar;  \n\n    event MemberCreated(address indexed _member); \n    event MemberBanned(address indexed _member); \n    event Log(uint256 id, uint8 support);\n\n    /// @notice unsafe allow     \n    constructor (){} \n\n    /// @notice initializes ikonDAO\n    function __IkonDAO_init(address govAddress, address timelockerAddress, address tokenAddress) external initializer(){\n\n        /// @notice instantiate dao interface\n        governor = IIkonDAO(govAddress);\n        timelocker = timelockerAddress;\n        token = IIkonDAO(tokenAddress);\n                \n        /// @notice setRoles\n        _setupRole(ADMIN_ROLE, _msgSender());\n        _setRoleAdmin(ADMIN_ROLE, ADMIN_ROLE);\n        _setRoleAdmin(MEMBER_ROLE, ADMIN_ROLE);\n        _setRoleAdmin(BANNED_ROLE, ADMIN_ROLE);\n        __AccessControlEnumerable_init();\n        __ERC721Holder_init(); // give nft holding capacity of erc721 token\n    }\n\n    /// @dev creates new dao proposal\n    /// @param targets contract from calldatas should be executed\n    /// @param values values thaat will be sent to the targets\n    /// @param datas datas that will be called by the targets\n    /// @param description description of the proposal\n    function propose (\n        address[] calldata targets, \n        uint256[] calldata values, \n        bytes[] memory datas,\n        string calldata description\n    ) public onlyRole(MEMBER_ROLE) returns (uint256 _proposalId) {\n        _proposalId = governor.propose(targets, values, datas, description);\n    }\n\n    function castVote(uint256 proposalId, uint8 support) external onlyRole(MEMBER_ROLE) returns (uint256) {\n        emit Log(proposalId, support);\n        return governor.castVote(proposalId, _msgSender(), support); \n    }   \n\n    /// @dev executes proposal through dao governor\n    /// @param targets contract from calldatas should be executed\n    /// @param values values thaat will be sent to the targets\n    /// @param datas datas that will be called by the targets\n    /// @param descriptionHash description of the proposal\n    function execute(\n        address[] calldata targets, \n        uint256[] calldata values, \n        bytes[] memory datas,\n        bytes32 descriptionHash\n    ) public onlyRole(MEMBER_ROLE) returns (uint256) {\n        return governor.execute(targets, values, datas, descriptionHash);\n    }\n\n    /// @dev queues a succeeded proposal to the timelock\n    /// @param targets contract from calldatas should be executed\n    /// @param values values thaat will be sent to the targets\n    /// @param datas datas that will be called by the targets\n    /// @param descriptionHash description of the proposal\n    function queue(\n        address[] calldata targets, \n        uint256[] calldata values, \n        bytes[] memory datas,\n        bytes32 descriptionHash\n    ) public onlyRole(MEMBER_ROLE) returns (uint256) {\n        return governor.queue(targets, values, datas, descriptionHash); \n    }\n\n    /// @dev makes a member of the caller of this function\n    function createMember() external {\n        require(!hasRole(MEMBER_ROLE, _msgSender()), REQUIRE_CREATEMEMBER_ALREADY_CREATED);\n        require(!hasRole(BANNED_ROLE, _msgSender()), REQUIRE_CREATEMEMBER_USER_BANNED);\n        _setupRole(MEMBER_ROLE, _msgSender());\n        emit MemberCreated(_msgSender());\n    }\n   \n    /// @dev bans member\n    /// @param _account target account to be banned\n    function banMember(address _account) external onlyRole(ADMIN_ROLE) {\n        require(!hasRole(BANNED_ROLE, _account), REQUIRE_BANMEMBER_ALREADY_BANNED);\n        require(hasRole(MEMBER_ROLE, _account), REQUIRE_BANMEMBER_ONLY_MEMBERS);\n        revokeRole(MEMBER_ROLE, _account);\n        _setupRole(BANNED_ROLE, _account);\n        emit MemberBanned(_account);\n    } \n\n    /// @dev transfers utility tokens for user rewards\n    function transferTokensToTimelocker() external onlyRole(ADMIN_ROLE) {\n        uint256 baseReward = token.getBaseReward(); \n        token.transfer(address(timelocker), baseReward);\n    } \n\n    /// @dev mints tokens to the proxy address\n    /// @param amount amount of tokens that will be minted to proxy address\n    function mintUtilityTokens(uint256 amount, address to) external onlyRole(ADMIN_ROLE) {\n        token.mint(to, amount * 10 ** token.decimals());\n    }\n\n    /// @dev authorizes upgrades to this contract\n    /// @param newImplementation address to wich to upgrade\n    function _authorizeUpgrade(address newImplementation) internal override onlyRole(ADMIN_ROLE) {}\n\n    // /// @dev upgrades the implemenation contract\n    // /// @param newImplementation address to wich to upgrade\n    // function upgradeTo(address newImplementation) external override onlyRole(ADMIN_ROLE) {\n    //     super.upgradeTo(newImplementation);\n    // }\n\n\n}",
  "sourcePath": "/home/rasguy92/Documents/blockchain-developer-bootcamp-final-project/contracts/IkonDAO.sol",
  "compiler": {
    "name": "solc",
    "version": "0.8.10+commit.fc410830.Emscripten.clang"
  },
  "schemaVersion": "3.4.3",
  "updatedAt": "2021-11-25T08:44:08.426Z",
  "networkType": "ethereum",
  "devdoc": {
    "kind": "dev",
    "methods": {
      "banMember(address)": {
        "details": "bans member",
        "params": {
          "_account": "target account to be banned"
        }
      },
      "createMember()": {
        "details": "makes a member of the caller of this function"
      },
      "execute(address[],uint256[],bytes[],bytes32)": {
        "details": "executes proposal through dao governor",
        "params": {
          "datas": "datas that will be called by the targets",
          "descriptionHash": "description of the proposal",
          "targets": "contract from calldatas should be executed",
          "values": "values thaat will be sent to the targets"
        }
      },
      "getRoleAdmin(bytes32)": {
        "details": "Returns the admin role that controls `role`. See {grantRole} and {revokeRole}. To change a role's admin, use {_setRoleAdmin}."
      },
      "getRoleMember(bytes32,uint256)": {
        "details": "Returns one of the accounts that have `role`. `index` must be a value between 0 and {getRoleMemberCount}, non-inclusive. Role bearers are not sorted in any particular way, and their ordering may change at any point. WARNING: When using {getRoleMember} and {getRoleMemberCount}, make sure you perform all queries on the same block. See the following https://forum.openzeppelin.com/t/iterating-over-elements-on-enumerableset-in-openzeppelin-contracts/2296[forum post] for more information."
      },
      "getRoleMemberCount(bytes32)": {
        "details": "Returns the number of accounts that have `role`. Can be used together with {getRoleMember} to enumerate all bearers of a role."
      },
      "grantRole(bytes32,address)": {
        "details": "Overload {grantRole} to track enumerable memberships"
      },
      "hasRole(bytes32,address)": {
        "details": "Returns `true` if `account` has been granted `role`."
      },
      "mintUtilityTokens(uint256,address)": {
        "details": "mints tokens to the proxy address",
        "params": {
          "amount": "amount of tokens that will be minted to proxy address"
        }
      },
      "onERC721Received(address,address,uint256,bytes)": {
        "details": "See {IERC721Receiver-onERC721Received}. Always returns `IERC721Receiver.onERC721Received.selector`."
      },
      "propose(address[],uint256[],bytes[],string)": {
        "details": "creates new dao proposal",
        "params": {
          "datas": "datas that will be called by the targets",
          "description": "description of the proposal",
          "targets": "contract from calldatas should be executed",
          "values": "values thaat will be sent to the targets"
        }
      },
      "queue(address[],uint256[],bytes[],bytes32)": {
        "details": "queues a succeeded proposal to the timelock",
        "params": {
          "datas": "datas that will be called by the targets",
          "descriptionHash": "description of the proposal",
          "targets": "contract from calldatas should be executed",
          "values": "values thaat will be sent to the targets"
        }
      },
      "renounceRole(bytes32,address)": {
        "details": "Overload {renounceRole} to track enumerable memberships"
      },
      "revokeRole(bytes32,address)": {
        "details": "Overload {revokeRole} to track enumerable memberships"
      },
      "supportsInterface(bytes4)": {
        "details": "See {IERC165-supportsInterface}."
      },
      "transferTokensToTimelocker()": {
        "details": "transfers utility tokens for user rewards"
      },
      "upgradeTo(address)": {
        "details": "Upgrade the implementation of the proxy to `newImplementation`. Calls {_authorizeUpgrade}. Emits an {Upgraded} event."
      },
      "upgradeToAndCall(address,bytes)": {
        "details": "Upgrade the implementation of the proxy to `newImplementation`, and subsequently execute the function call encoded in `data`. Calls {_authorizeUpgrade}. Emits an {Upgraded} event."
      }
    },
    "version": 1
  },
  "userdoc": {
    "kind": "user",
    "methods": {
      "__IkonDAO_init(address,address,address)": {
        "notice": "initializes ikonDAO"
      },
      "constructor": {
        "notice": "unsafe allow     "
      }
    },
    "version": 1
  }
}