{
  "abi": [
    {
      "inputs": [
        {
          "internalType": "uint256",
          "name": "_baseRewards",
          "type": "uint256"
        }
      ],
      "stateMutability": "nonpayable",
      "type": "constructor"
    },
    {
      "anonymous": false,
      "inputs": [
        {
          "indexed": true,
          "internalType": "address",
          "name": "owner",
          "type": "address"
        },
        {
          "indexed": true,
          "internalType": "address",
          "name": "spender",
          "type": "address"
        },
        {
          "indexed": false,
          "internalType": "uint256",
          "name": "value",
          "type": "uint256"
        }
      ],
      "name": "Approval",
      "type": "event"
    },
    {
      "anonymous": false,
      "inputs": [
        {
          "indexed": true,
          "internalType": "bytes32",
          "name": "role",
          "type": "bytes32"
        },
        {
          "indexed": true,
          "internalType": "bytes32",
          "name": "previousAdminRole",
          "type": "bytes32"
        },
        {
          "indexed": true,
          "internalType": "bytes32",
          "name": "newAdminRole",
          "type": "bytes32"
        }
      ],
      "name": "RoleAdminChanged",
      "type": "event"
    },
    {
      "anonymous": false,
      "inputs": [
        {
          "indexed": true,
          "internalType": "bytes32",
          "name": "role",
          "type": "bytes32"
        },
        {
          "indexed": true,
          "internalType": "address",
          "name": "account",
          "type": "address"
        },
        {
          "indexed": true,
          "internalType": "address",
          "name": "sender",
          "type": "address"
        }
      ],
      "name": "RoleGranted",
      "type": "event"
    },
    {
      "anonymous": false,
      "inputs": [
        {
          "indexed": true,
          "internalType": "bytes32",
          "name": "role",
          "type": "bytes32"
        },
        {
          "indexed": true,
          "internalType": "address",
          "name": "account",
          "type": "address"
        },
        {
          "indexed": true,
          "internalType": "address",
          "name": "sender",
          "type": "address"
        }
      ],
      "name": "RoleRevoked",
      "type": "event"
    },
    {
      "anonymous": false,
      "inputs": [
        {
          "indexed": false,
          "internalType": "uint256",
          "name": "id",
          "type": "uint256"
        }
      ],
      "name": "Snapshot",
      "type": "event"
    },
    {
      "anonymous": false,
      "inputs": [
        {
          "indexed": true,
          "internalType": "address",
          "name": "from",
          "type": "address"
        },
        {
          "indexed": true,
          "internalType": "address",
          "name": "to",
          "type": "address"
        },
        {
          "indexed": false,
          "internalType": "uint256",
          "name": "value",
          "type": "uint256"
        }
      ],
      "name": "Transfer",
      "type": "event"
    },
    {
      "inputs": [],
      "name": "DEFAULT_ADMIN_ROLE",
      "outputs": [
        {
          "internalType": "bytes32",
          "name": "",
          "type": "bytes32"
        }
      ],
      "stateMutability": "view",
      "type": "function",
      "constant": true
    },
    {
      "inputs": [],
      "name": "DOMAIN_SEPARATOR",
      "outputs": [
        {
          "internalType": "bytes32",
          "name": "",
          "type": "bytes32"
        }
      ],
      "stateMutability": "view",
      "type": "function",
      "constant": true
    },
    {
      "inputs": [
        {
          "internalType": "address",
          "name": "owner",
          "type": "address"
        },
        {
          "internalType": "address",
          "name": "spender",
          "type": "address"
        }
      ],
      "name": "allowance",
      "outputs": [
        {
          "internalType": "uint256",
          "name": "",
          "type": "uint256"
        }
      ],
      "stateMutability": "view",
      "type": "function",
      "constant": true
    },
    {
      "inputs": [
        {
          "internalType": "address",
          "name": "spender",
          "type": "address"
        },
        {
          "internalType": "uint256",
          "name": "amount",
          "type": "uint256"
        }
      ],
      "name": "approve",
      "outputs": [
        {
          "internalType": "bool",
          "name": "",
          "type": "bool"
        }
      ],
      "stateMutability": "nonpayable",
      "type": "function"
    },
    {
      "inputs": [
        {
          "internalType": "address",
          "name": "account",
          "type": "address"
        }
      ],
      "name": "balanceOf",
      "outputs": [
        {
          "internalType": "uint256",
          "name": "",
          "type": "uint256"
        }
      ],
      "stateMutability": "view",
      "type": "function",
      "constant": true
    },
    {
      "inputs": [
        {
          "internalType": "address",
          "name": "account",
          "type": "address"
        },
        {
          "internalType": "uint256",
          "name": "snapshotId",
          "type": "uint256"
        }
      ],
      "name": "balanceOfAt",
      "outputs": [
        {
          "internalType": "uint256",
          "name": "",
          "type": "uint256"
        }
      ],
      "stateMutability": "view",
      "type": "function",
      "constant": true
    },
    {
      "inputs": [
        {
          "internalType": "uint256",
          "name": "amount",
          "type": "uint256"
        }
      ],
      "name": "burn",
      "outputs": [],
      "stateMutability": "nonpayable",
      "type": "function"
    },
    {
      "inputs": [
        {
          "internalType": "address",
          "name": "account",
          "type": "address"
        },
        {
          "internalType": "uint256",
          "name": "amount",
          "type": "uint256"
        }
      ],
      "name": "burnFrom",
      "outputs": [],
      "stateMutability": "nonpayable",
      "type": "function"
    },
    {
      "inputs": [],
      "name": "decimals",
      "outputs": [
        {
          "internalType": "uint8",
          "name": "",
          "type": "uint8"
        }
      ],
      "stateMutability": "view",
      "type": "function",
      "constant": true
    },
    {
      "inputs": [
        {
          "internalType": "address",
          "name": "spender",
          "type": "address"
        },
        {
          "internalType": "uint256",
          "name": "subtractedValue",
          "type": "uint256"
        }
      ],
      "name": "decreaseAllowance",
      "outputs": [
        {
          "internalType": "bool",
          "name": "",
          "type": "bool"
        }
      ],
      "stateMutability": "nonpayable",
      "type": "function"
    },
    {
      "inputs": [
        {
          "internalType": "bytes32",
          "name": "role",
          "type": "bytes32"
        }
      ],
      "name": "getRoleAdmin",
      "outputs": [
        {
          "internalType": "bytes32",
          "name": "",
          "type": "bytes32"
        }
      ],
      "stateMutability": "view",
      "type": "function",
      "constant": true
    },
    {
      "inputs": [
        {
          "internalType": "bytes32",
          "name": "role",
          "type": "bytes32"
        },
        {
          "internalType": "address",
          "name": "account",
          "type": "address"
        }
      ],
      "name": "grantRole",
      "outputs": [],
      "stateMutability": "nonpayable",
      "type": "function"
    },
    {
      "inputs": [
        {
          "internalType": "bytes32",
          "name": "role",
          "type": "bytes32"
        },
        {
          "internalType": "address",
          "name": "account",
          "type": "address"
        }
      ],
      "name": "hasRole",
      "outputs": [
        {
          "internalType": "bool",
          "name": "",
          "type": "bool"
        }
      ],
      "stateMutability": "view",
      "type": "function",
      "constant": true
    },
    {
      "inputs": [
        {
          "internalType": "address",
          "name": "spender",
          "type": "address"
        },
        {
          "internalType": "uint256",
          "name": "addedValue",
          "type": "uint256"
        }
      ],
      "name": "increaseAllowance",
      "outputs": [
        {
          "internalType": "bool",
          "name": "",
          "type": "bool"
        }
      ],
      "stateMutability": "nonpayable",
      "type": "function"
    },
    {
      "inputs": [],
      "name": "name",
      "outputs": [
        {
          "internalType": "string",
          "name": "",
          "type": "string"
        }
      ],
      "stateMutability": "view",
      "type": "function",
      "constant": true
    },
    {
      "inputs": [
        {
          "internalType": "address",
          "name": "owner",
          "type": "address"
        }
      ],
      "name": "nonces",
      "outputs": [
        {
          "internalType": "uint256",
          "name": "",
          "type": "uint256"
        }
      ],
      "stateMutability": "view",
      "type": "function",
      "constant": true
    },
    {
      "inputs": [
        {
          "internalType": "address",
          "name": "owner",
          "type": "address"
        },
        {
          "internalType": "address",
          "name": "spender",
          "type": "address"
        },
        {
          "internalType": "uint256",
          "name": "value",
          "type": "uint256"
        },
        {
          "internalType": "uint256",
          "name": "deadline",
          "type": "uint256"
        },
        {
          "internalType": "uint8",
          "name": "v",
          "type": "uint8"
        },
        {
          "internalType": "bytes32",
          "name": "r",
          "type": "bytes32"
        },
        {
          "internalType": "bytes32",
          "name": "s",
          "type": "bytes32"
        }
      ],
      "name": "permit",
      "outputs": [],
      "stateMutability": "nonpayable",
      "type": "function"
    },
    {
      "inputs": [
        {
          "internalType": "bytes32",
          "name": "role",
          "type": "bytes32"
        },
        {
          "internalType": "address",
          "name": "account",
          "type": "address"
        }
      ],
      "name": "renounceRole",
      "outputs": [],
      "stateMutability": "nonpayable",
      "type": "function"
    },
    {
      "inputs": [
        {
          "internalType": "bytes32",
          "name": "role",
          "type": "bytes32"
        },
        {
          "internalType": "address",
          "name": "account",
          "type": "address"
        }
      ],
      "name": "revokeRole",
      "outputs": [],
      "stateMutability": "nonpayable",
      "type": "function"
    },
    {
      "inputs": [
        {
          "internalType": "bytes4",
          "name": "interfaceId",
          "type": "bytes4"
        }
      ],
      "name": "supportsInterface",
      "outputs": [
        {
          "internalType": "bool",
          "name": "",
          "type": "bool"
        }
      ],
      "stateMutability": "view",
      "type": "function",
      "constant": true
    },
    {
      "inputs": [],
      "name": "symbol",
      "outputs": [
        {
          "internalType": "string",
          "name": "",
          "type": "string"
        }
      ],
      "stateMutability": "view",
      "type": "function",
      "constant": true
    },
    {
      "inputs": [],
      "name": "totalSupply",
      "outputs": [
        {
          "internalType": "uint256",
          "name": "",
          "type": "uint256"
        }
      ],
      "stateMutability": "view",
      "type": "function",
      "constant": true
    },
    {
      "inputs": [
        {
          "internalType": "uint256",
          "name": "snapshotId",
          "type": "uint256"
        }
      ],
      "name": "totalSupplyAt",
      "outputs": [
        {
          "internalType": "uint256",
          "name": "",
          "type": "uint256"
        }
      ],
      "stateMutability": "view",
      "type": "function",
      "constant": true
    },
    {
      "inputs": [
        {
          "internalType": "address",
          "name": "recipient",
          "type": "address"
        },
        {
          "internalType": "uint256",
          "name": "amount",
          "type": "uint256"
        }
      ],
      "name": "transfer",
      "outputs": [
        {
          "internalType": "bool",
          "name": "",
          "type": "bool"
        }
      ],
      "stateMutability": "nonpayable",
      "type": "function"
    },
    {
      "inputs": [
        {
          "internalType": "address",
          "name": "sender",
          "type": "address"
        },
        {
          "internalType": "address",
          "name": "recipient",
          "type": "address"
        },
        {
          "internalType": "uint256",
          "name": "amount",
          "type": "uint256"
        }
      ],
      "name": "transferFrom",
      "outputs": [
        {
          "internalType": "bool",
          "name": "",
          "type": "bool"
        }
      ],
      "stateMutability": "nonpayable",
      "type": "function"
    },
    {
      "inputs": [
        {
          "internalType": "address",
          "name": "to",
          "type": "address"
        }
      ],
      "name": "rewardTokens",
      "outputs": [],
      "stateMutability": "nonpayable",
      "type": "function"
    },
    {
      "inputs": [],
      "name": "owner",
      "outputs": [
        {
          "internalType": "address",
          "name": "",
          "type": "address"
        }
      ],
      "stateMutability": "view",
      "type": "function",
      "constant": true
    },
    {
      "inputs": [
        {
          "internalType": "address",
          "name": "newOwner",
          "type": "address"
        }
      ],
      "name": "transferOwnership",
      "outputs": [
        {
          "internalType": "bool",
          "name": "",
          "type": "bool"
        }
      ],
      "stateMutability": "nonpayable",
      "type": "function"
    },
    {
      "inputs": [],
      "name": "getBaseReward",
      "outputs": [
        {
          "internalType": "uint256",
          "name": "",
          "type": "uint256"
        }
      ],
      "stateMutability": "view",
      "type": "function",
      "constant": true
    },
    {
      "inputs": [
        {
          "internalType": "uint256",
          "name": "newBase",
          "type": "uint256"
        }
      ],
      "name": "setBaseReward",
      "outputs": [],
      "stateMutability": "nonpayable",
      "type": "function"
    },
    {
      "inputs": [],
      "name": "snapshot",
      "outputs": [],
      "stateMutability": "nonpayable",
      "type": "function"
    },
    {
      "inputs": [
        {
          "internalType": "address",
          "name": "to",
          "type": "address"
        },
        {
          "internalType": "uint256",
          "name": "amount",
          "type": "uint256"
        }
      ],
      "name": "mint",
      "outputs": [],
      "stateMutability": "nonpayable",
      "type": "function"
    }
  ],
  "bytecode": "0x6101406040527f6e71edae12b1b97f4d1f60370fef10105fa2faae0126114a169c64845d6126c9610120908152503480156200003a57600080fd5b5060405162004f5f38038062004f5f833981810160405281019062000060919062000bf7565b6040518060400160405280600d81526020017f496b6f6e44414f20546f6b656e00000000000000000000000000000000000000815250806040518060400160405280600181526020017f31000000000000000000000000000000000000000000000000000000000000008152506040518060400160405280600d81526020017f496b6f6e44414f20546f6b656e000000000000000000000000000000000000008152506040518060400160405280600381526020017f494b44000000000000000000000000000000000000000000000000000000000081525081600390805190602001906200015192919062000b07565b5080600490805190602001906200016a92919062000b07565b50505060008280519060200120905060008280519060200120905060007f8b73c3c69bb8fe3d512ecc4cf759cc79239f7b179b0ffacaa9a75d522b39400f90508260c081815250508160e081815250504660a08181525050620001d58184846200044360201b60201c565b60808181525050806101008181525050505050505050620001fb6200047f60201b60201c565b600c60006101000a81548173ffffffffffffffffffffffffffffffffffffffff021916908373ffffffffffffffffffffffffffffffffffffffff1602179055506200027c7f0454d691b20de09c741657b57037379cb9a924a8d5d937a8aedf7cda4a999407620002706200047f60201b60201c565b6200048760201b60201c565b620002ae7f0454d691b20de09c741657b57037379cb9a924a8d5d937a8aedf7cda4a999407806200049d60201b60201c565b620002ef7fe2ee388674bf803621aa1aa895721341f3e06d0025bb34256e032326917ccbcb620002e36200047f60201b60201c565b6200048760201b60201c565b620003417fe2ee388674bf803621aa1aa895721341f3e06d0025bb34256e032326917ccbcb7f0454d691b20de09c741657b57037379cb9a924a8d5d937a8aedf7cda4a9994076200049d60201b60201c565b620003a2600c60009054906101000a900473ffffffffffffffffffffffffffffffffffffffff16620003786200050160201b60201c565b600a62000386919062000db9565b620f424062000396919062000e0a565b6200050a60201b60201c565b620003e37fd797ca08f626d4faf17808f01eb5aa9d1375776546369e264714a5daf31ea9ae620003d76200047f60201b60201c565b6200048760201b60201c565b620004357fd797ca08f626d4faf17808f01eb5aa9d1375776546369e264714a5daf31ea9ae7f0454d691b20de09c741657b57037379cb9a924a8d5d937a8aedf7cda4a9994076200049d60201b60201c565b80600b819055505062001105565b600083838346306040516020016200046095949392919062000edc565b6040516020818303038152906040528051906020012090509392505050565b600033905090565b6200049982826200068360201b60201c565b5050565b6000620004b0836200077560201b60201c565b90508160096000858152602001908152602001600020600101819055508181847fbd79b86ffe0ab8e8776151514217cd7cacd52c909f66475c3af44e129f0b00ff60405160405180910390a4505050565b60006012905090565b600073ffffffffffffffffffffffffffffffffffffffff168273ffffffffffffffffffffffffffffffffffffffff1614156200057d576040517f08c379a0000000000000000000000000000000000000000000000000000000008152600401620005749062000f9a565b60405180910390fd5b62000591600083836200079560201b60201c565b8060026000828254620005a5919062000fbc565b92505081905550806000808473ffffffffffffffffffffffffffffffffffffffff1673ffffffffffffffffffffffffffffffffffffffff1681526020019081526020016000206000828254620005fc919062000fbc565b925050819055508173ffffffffffffffffffffffffffffffffffffffff16600073ffffffffffffffffffffffffffffffffffffffff167fddf252ad1be2c89b69c2b068fc378daa952ba7f163c4a11628f55a4df523b3ef8360405162000663919062001019565b60405180910390a36200067f60008383620007b260201b60201c565b5050565b620006958282620007b760201b60201c565b620007715760016009600084815260200190815260200160002060000160008373ffffffffffffffffffffffffffffffffffffffff1673ffffffffffffffffffffffffffffffffffffffff16815260200190815260200160002060006101000a81548160ff021916908315150217905550620007166200047f60201b60201c565b73ffffffffffffffffffffffffffffffffffffffff168173ffffffffffffffffffffffffffffffffffffffff16837f2f8788117e7eff1d82e926ec794901d17c78024a50270940304540a733656f0d60405160405180910390a45b5050565b600060096000838152602001908152602001600020600101549050919050565b620007ad8383836200082260201b620012131760201c565b505050565b505050565b60006009600084815260200190815260200160002060000160008373ffffffffffffffffffffffffffffffffffffffff1673ffffffffffffffffffffffffffffffffffffffff16815260200190815260200160002060009054906101000a900460ff16905092915050565b6200083a8383836200091d60201b620012cd1760201c565b600073ffffffffffffffffffffffffffffffffffffffff168373ffffffffffffffffffffffffffffffffffffffff161415620008975762000881826200092260201b60201c565b620008916200098560201b60201c565b62000918565b600073ffffffffffffffffffffffffffffffffffffffff168273ffffffffffffffffffffffffffffffffffffffff161415620008f457620008de836200092260201b60201c565b620008ee6200098560201b60201c565b62000917565b62000905836200092260201b60201c565b62000916826200092260201b60201c565b5b5b505050565b505050565b62000982600560008373ffffffffffffffffffffffffffffffffffffffff1673ffffffffffffffffffffffffffffffffffffffff1681526020019081526020016000206200097683620009a960201b60201c565b620009f160201b60201c565b50565b620009a760066200099b62000a7d60201b60201c565b620009f160201b60201c565b565b60008060008373ffffffffffffffffffffffffffffffffffffffff1673ffffffffffffffffffffffffffffffffffffffff168152602001908152602001600020549050919050565b600062000a0362000a8760201b60201c565b90508062000a1a8460000162000aa560201b60201c565b101562000a785782600001819080600181540180825580915050600190039060005260206000200160009091909190915055826001018290806001815401808255809150506001900390600052602060002001600090919091909150555b505050565b6000600254905090565b600062000aa0600862000af960201b620012d21760201c565b905090565b6000808280549050141562000abe576000905062000af4565b816001838054905062000ad2919062001036565b8154811062000ae65762000ae562001071565b5b906000526020600020015490505b919050565b600081600001549050919050565b82805462000b1590620010cf565b90600052602060002090601f01602090048101928262000b39576000855562000b85565b82601f1062000b5457805160ff191683800117855562000b85565b8280016001018555821562000b85579182015b8281111562000b8457825182559160200191906001019062000b67565b5b50905062000b94919062000b98565b5090565b5b8082111562000bb357600081600090555060010162000b99565b5090565b600080fd5b6000819050919050565b62000bd18162000bbc565b811462000bdd57600080fd5b50565b60008151905062000bf18162000bc6565b92915050565b60006020828403121562000c105762000c0f62000bb7565b5b600062000c208482850162000be0565b91505092915050565b7f4e487b7100000000000000000000000000000000000000000000000000000000600052601160045260246000fd5b60008160011c9050919050565b6000808291508390505b600185111562000cb75780860481111562000c8f5762000c8e62000c29565b5b600185161562000c9f5780820291505b808102905062000caf8562000c58565b945062000c6f565b94509492505050565b60008262000cd2576001905062000da5565b8162000ce2576000905062000da5565b816001811462000cfb576002811462000d065762000d3c565b600191505062000da5565b60ff84111562000d1b5762000d1a62000c29565b5b8360020a91508482111562000d355762000d3462000c29565b5b5062000da5565b5060208310610133831016604e8410600b841016171562000d765782820a90508381111562000d705762000d6f62000c29565b5b62000da5565b62000d85848484600162000c65565b9250905081840481111562000d9f5762000d9e62000c29565b5b81810290505b9392505050565b600060ff82169050919050565b600062000dc68262000bbc565b915062000dd38362000dac565b925062000e027fffffffffffffffffffffffffffffffffffffffffffffffffffffffffffffffff848462000cc0565b905092915050565b600062000e178262000bbc565b915062000e248362000bbc565b9250817fffffffffffffffffffffffffffffffffffffffffffffffffffffffffffffffff048311821515161562000e605762000e5f62000c29565b5b828202905092915050565b6000819050919050565b62000e808162000e6b565b82525050565b62000e918162000bbc565b82525050565b600073ffffffffffffffffffffffffffffffffffffffff82169050919050565b600062000ec48262000e97565b9050919050565b62000ed68162000eb7565b82525050565b600060a08201905062000ef3600083018862000e75565b62000f02602083018762000e75565b62000f11604083018662000e75565b62000f20606083018562000e86565b62000f2f608083018462000ecb565b9695505050505050565b600082825260208201905092915050565b7f45524332303a206d696e7420746f20746865207a65726f206164647265737300600082015250565b600062000f82601f8362000f39565b915062000f8f8262000f4a565b602082019050919050565b6000602082019050818103600083015262000fb58162000f73565b9050919050565b600062000fc98262000bbc565b915062000fd68362000bbc565b9250827fffffffffffffffffffffffffffffffffffffffffffffffffffffffffffffffff038211156200100e576200100d62000c29565b5b828201905092915050565b600060208201905062001030600083018462000e86565b92915050565b6000620010438262000bbc565b9150620010508362000bbc565b92508282101562001066576200106562000c29565b5b828203905092915050565b7f4e487b7100000000000000000000000000000000000000000000000000000000600052603260045260246000fd5b7f4e487b7100000000000000000000000000000000000000000000000000000000600052602260045260246000fd5b60006002820490506001821680620010e857607f821691505b60208210811415620010ff57620010fe620010a0565b5b50919050565b60805160a05160c05160e0516101005161012051613e0a620011556000396000610f5301526000611973015260006119b50152600061199401526000611920015260006119480152613e0a6000f3fe608060405234801561001057600080fd5b50600436106101f05760003560e01c806379cc67901161010f578063a457c2d7116100a2578063d547741f11610071578063d547741f146105f3578063dd62ed3e1461060f578063f2fde38b1461063f578063f5ab16cc1461066f576101f0565b8063a457c2d714610559578063a9059cbb14610589578063b98e652a146105b9578063d505accf146105d7576101f0565b806395d89b41116100de57806395d89b41146104e35780639711715a14610501578063981b24d01461050b578063a217fddf1461053b576101f0565b806379cc6790146104495780637ecebe00146104655780638da5cb5b1461049557806391d14854146104b3576101f0565b8063313ce5671161018757806340c10f191161015657806340c10f19146103b157806342966c68146103cd5780634ee2cd7e146103e957806370a0823114610419576101f0565b8063313ce567146103295780633644e5151461034757806336568abe146103655780633950935114610381576101f0565b806318160ddd116101c357806318160ddd1461028f57806323b872dd146102ad578063248a9ca3146102dd5780632f2ff15d1461030d576101f0565b806301ffc9a7146101f55780630373a23a1461022557806306fdde0314610241578063095ea7b31461025f575b600080fd5b61020f600480360381019061020a91906128cf565b61068b565b60405161021c9190612917565b60405180910390f35b61023f600480360381019061023a9190612968565b610705565b005b610249610742565b6040516102569190612a2e565b60405180910390f35b61027960048036038101906102749190612aae565b6107d4565b6040516102869190612917565b60405180910390f35b6102976107f2565b6040516102a49190612afd565b60405180910390f35b6102c760048036038101906102c29190612b18565b6107fc565b6040516102d49190612917565b60405180910390f35b6102f760048036038101906102f29190612ba1565b6108f4565b6040516103049190612bdd565b60405180910390f35b61032760048036038101906103229190612bf8565b610914565b005b61033161093d565b60405161033e9190612c54565b60405180910390f35b61034f610946565b60405161035c9190612bdd565b60405180910390f35b61037f600480360381019061037a9190612bf8565b610955565b005b61039b60048036038101906103969190612aae565b6109d8565b6040516103a89190612917565b60405180910390f35b6103cb60048036038101906103c69190612aae565b610a84565b005b6103e760048036038101906103e29190612968565b610ac5565b005b61040360048036038101906103fe9190612aae565b610ad9565b6040516104109190612afd565b60405180910390f35b610433600480360381019061042e9190612c6f565b610b49565b6040516104409190612afd565b60405180910390f35b610463600480360381019061045e9190612aae565b610b91565b005b61047f600480360381019061047a9190612c6f565b610c0c565b60405161048c9190612afd565b60405180910390f35b61049d610c5c565b6040516104aa9190612cab565b60405180910390f35b6104cd60048036038101906104c89190612bf8565b610c86565b6040516104da9190612917565b60405180910390f35b6104eb610cf1565b6040516104f89190612a2e565b60405180910390f35b610509610d83565b005b61052560048036038101906105209190612968565b610dc1565b6040516105329190612afd565b60405180910390f35b610543610df2565b6040516105509190612bdd565b60405180910390f35b610573600480360381019061056e9190612aae565b610df9565b6040516105809190612917565b60405180910390f35b6105a3600480360381019061059e9190612aae565b610ee4565b6040516105b09190612917565b60405180910390f35b6105c1610f02565b6040516105ce9190612afd565b60405180910390f35b6105f160048036038101906105ec9190612cf2565b610f0c565b005b61060d60048036038101906106089190612bf8565b61104e565b005b61062960048036038101906106249190612d94565b611077565b6040516106369190612afd565b60405180910390f35b61065960048036038101906106549190612c6f565b6110fe565b6040516106669190612917565b60405180910390f35b61068960048036038101906106849190612c6f565b6111d4565b005b60007f7965db0b000000000000000000000000000000000000000000000000000000007bffffffffffffffffffffffffffffffffffffffffffffffffffffffff1916827bffffffffffffffffffffffffffffffffffffffffffffffffffffffff191614806106fe57506106fd826112e0565b5b9050919050565b7f0454d691b20de09c741657b57037379cb9a924a8d5d937a8aedf7cda4a9994076107378161073261134a565b611352565b81600b819055505050565b60606003805461075190612e03565b80601f016020809104026020016040519081016040528092919081815260200182805461077d90612e03565b80156107ca5780601f1061079f576101008083540402835291602001916107ca565b820191906000526020600020905b8154815290600101906020018083116107ad57829003601f168201915b5050505050905090565b60006107e86107e161134a565b84846113ef565b6001905092915050565b6000600254905090565b60006108098484846115ba565b6000600160008673ffffffffffffffffffffffffffffffffffffffff1673ffffffffffffffffffffffffffffffffffffffff168152602001908152602001600020600061085461134a565b73ffffffffffffffffffffffffffffffffffffffff1673ffffffffffffffffffffffffffffffffffffffff168152602001908152602001600020549050828110156108d4576040517f08c379a00000000000000000000000000000000000000000000000000000000081526004016108cb90612ea7565b60405180910390fd5b6108e8856108e061134a565b8584036113ef565b60019150509392505050565b600060096000838152602001908152602001600020600101549050919050565b61091d826108f4565b61092e8161092961134a565b611352565b610938838361183b565b505050565b60006012905090565b600061095061191c565b905090565b61095d61134a565b73ffffffffffffffffffffffffffffffffffffffff168173ffffffffffffffffffffffffffffffffffffffff16146109ca576040517f08c379a00000000000000000000000000000000000000000000000000000000081526004016109c190612f39565b60405180910390fd5b6109d482826119df565b5050565b6000610a7a6109e561134a565b8484600160006109f361134a565b73ffffffffffffffffffffffffffffffffffffffff1673ffffffffffffffffffffffffffffffffffffffff16815260200190815260200160002060008873ffffffffffffffffffffffffffffffffffffffff1673ffffffffffffffffffffffffffffffffffffffff16815260200190815260200160002054610a759190612f88565b6113ef565b6001905092915050565b7fd797ca08f626d4faf17808f01eb5aa9d1375776546369e264714a5daf31ea9ae610ab681610ab161134a565b611352565b610ac08383611ac1565b505050565b610ad6610ad061134a565b82611c21565b50565b6000806000610b2684600560008873ffffffffffffffffffffffffffffffffffffffff1673ffffffffffffffffffffffffffffffffffffffff168152602001908152602001600020611df8565b9150915081610b3d57610b3885610b49565b610b3f565b805b9250505092915050565b60008060008373ffffffffffffffffffffffffffffffffffffffff1673ffffffffffffffffffffffffffffffffffffffff168152602001908152602001600020549050919050565b6000610ba483610b9f61134a565b611077565b905081811015610be9576040517f08c379a0000000000000000000000000000000000000000000000000000000008152600401610be090613050565b60405180910390fd5b610bfd83610bf561134a565b8484036113ef565b610c078383611c21565b505050565b6000610c55600a60008473ffffffffffffffffffffffffffffffffffffffff1673ffffffffffffffffffffffffffffffffffffffff1681526020019081526020016000206112d2565b9050919050565b6000600c60009054906101000a900473ffffffffffffffffffffffffffffffffffffffff16905090565b60006009600084815260200190815260200160002060000160008373ffffffffffffffffffffffffffffffffffffffff1673ffffffffffffffffffffffffffffffffffffffff16815260200190815260200160002060009054906101000a900460ff16905092915050565b606060048054610d0090612e03565b80601f0160208091040260200160405190810160405280929190818152602001828054610d2c90612e03565b8015610d795780601f10610d4e57610100808354040283529160200191610d79565b820191906000526020600020905b815481529060010190602001808311610d5c57829003601f168201915b5050505050905090565b7fe2ee388674bf803621aa1aa895721341f3e06d0025bb34256e032326917ccbcb610db581610db061134a565b611352565b610dbd611eee565b5050565b6000806000610dd1846006611df8565b9150915081610de757610de26107f2565b610de9565b805b92505050919050565b6000801b81565b60008060016000610e0861134a565b73ffffffffffffffffffffffffffffffffffffffff1673ffffffffffffffffffffffffffffffffffffffff16815260200190815260200160002060008573ffffffffffffffffffffffffffffffffffffffff1673ffffffffffffffffffffffffffffffffffffffff16815260200190815260200160002054905082811015610ec5576040517f08c379a0000000000000000000000000000000000000000000000000000000008152600401610ebc906130e2565b60405180910390fd5b610ed9610ed061134a565b858584036113ef565b600191505092915050565b6000610ef8610ef161134a565b84846115ba565b6001905092915050565b6000600b54905090565b83421115610f4f576040517f08c379a0000000000000000000000000000000000000000000000000000000008152600401610f469061314e565b60405180910390fd5b60007f0000000000000000000000000000000000000000000000000000000000000000888888610f7e8c611f44565b89604051602001610f949695949392919061316e565b6040516020818303038152906040528051906020012090506000610fb782611fa2565b90506000610fc782878787611fbc565b90508973ffffffffffffffffffffffffffffffffffffffff168173ffffffffffffffffffffffffffffffffffffffff1614611037576040517f08c379a000000000000000000000000000000000000000000000000000000000815260040161102e9061321b565b60405180910390fd5b6110428a8a8a6113ef565b50505050505050505050565b611057826108f4565b6110688161106361134a565b611352565b61107283836119df565b505050565b6000600160008473ffffffffffffffffffffffffffffffffffffffff1673ffffffffffffffffffffffffffffffffffffffff16815260200190815260200160002060008373ffffffffffffffffffffffffffffffffffffffff1673ffffffffffffffffffffffffffffffffffffffff16815260200190815260200160002054905092915050565b60007f0454d691b20de09c741657b57037379cb9a924a8d5d937a8aedf7cda4a9994076111328161112d61134a565b611352565b611189600c60009054906101000a900473ffffffffffffffffffffffffffffffffffffffff1684611184600c60009054906101000a900473ffffffffffffffffffffffffffffffffffffffff16610b49565b6115ba565b82600c60006101000a81548173ffffffffffffffffffffffffffffffffffffffff021916908373ffffffffffffffffffffffffffffffffffffffff1602179055506001915050919050565b7f0454d691b20de09c741657b57037379cb9a924a8d5d937a8aedf7cda4a9994076112068161120161134a565b611352565b61120f82611fe7565b5050565b61121e8383836112cd565b600073ffffffffffffffffffffffffffffffffffffffff168373ffffffffffffffffffffffffffffffffffffffff1614156112695761125c8261207c565b6112646120cf565b6112c8565b600073ffffffffffffffffffffffffffffffffffffffff168273ffffffffffffffffffffffffffffffffffffffff1614156112b4576112a78361207c565b6112af6120cf565b6112c7565b6112bd8361207c565b6112c68261207c565b5b5b505050565b505050565b600081600001549050919050565b60007f01ffc9a7000000000000000000000000000000000000000000000000000000007bffffffffffffffffffffffffffffffffffffffffffffffffffffffff1916827bffffffffffffffffffffffffffffffffffffffffffffffffffffffff1916149050919050565b600033905090565b61135c8282610c86565b6113eb576113818173ffffffffffffffffffffffffffffffffffffffff1660146120e3565b61138f8360001c60206120e3565b6040516020016113a092919061330f565b6040516020818303038152906040526040517f08c379a00000000000000000000000000000000000000000000000000000000081526004016113e29190612a2e565b60405180910390fd5b5050565b600073ffffffffffffffffffffffffffffffffffffffff168373ffffffffffffffffffffffffffffffffffffffff16141561145f576040517f08c379a0000000000000000000000000000000000000000000000000000000008152600401611456906133bb565b60405180910390fd5b600073ffffffffffffffffffffffffffffffffffffffff168273ffffffffffffffffffffffffffffffffffffffff1614156114cf576040517f08c379a00000000000000000000000000000000000000000000000000000000081526004016114c69061344d565b60405180910390fd5b80600160008573ffffffffffffffffffffffffffffffffffffffff1673ffffffffffffffffffffffffffffffffffffffff16815260200190815260200160002060008473ffffffffffffffffffffffffffffffffffffffff1673ffffffffffffffffffffffffffffffffffffffff168152602001908152602001600020819055508173ffffffffffffffffffffffffffffffffffffffff168373ffffffffffffffffffffffffffffffffffffffff167f8c5be1e5ebec7d5bd14f71427d1e84f3dd0314c0f7b2291e5b200ac8c7c3b925836040516115ad9190612afd565b60405180910390a3505050565b600073ffffffffffffffffffffffffffffffffffffffff168373ffffffffffffffffffffffffffffffffffffffff16141561162a576040517f08c379a0000000000000000000000000000000000000000000000000000000008152600401611621906134df565b60405180910390fd5b600073ffffffffffffffffffffffffffffffffffffffff168273ffffffffffffffffffffffffffffffffffffffff16141561169a576040517f08c379a000000000000000000000000000000000000000000000000000000000815260040161169190613571565b60405180910390fd5b6116a583838361231f565b60008060008573ffffffffffffffffffffffffffffffffffffffff1673ffffffffffffffffffffffffffffffffffffffff1681526020019081526020016000205490508181101561172b576040517f08c379a000000000000000000000000000000000000000000000000000000000815260040161172290613603565b60405180910390fd5b8181036000808673ffffffffffffffffffffffffffffffffffffffff1673ffffffffffffffffffffffffffffffffffffffff16815260200190815260200160002081905550816000808573ffffffffffffffffffffffffffffffffffffffff1673ffffffffffffffffffffffffffffffffffffffff16815260200190815260200160002060008282546117be9190612f88565b925050819055508273ffffffffffffffffffffffffffffffffffffffff168473ffffffffffffffffffffffffffffffffffffffff167fddf252ad1be2c89b69c2b068fc378daa952ba7f163c4a11628f55a4df523b3ef846040516118229190612afd565b60405180910390a361183584848461232f565b50505050565b6118458282610c86565b6119185760016009600084815260200190815260200160002060000160008373ffffffffffffffffffffffffffffffffffffffff1673ffffffffffffffffffffffffffffffffffffffff16815260200190815260200160002060006101000a81548160ff0219169083151502179055506118bd61134a565b73ffffffffffffffffffffffffffffffffffffffff168173ffffffffffffffffffffffffffffffffffffffff16837f2f8788117e7eff1d82e926ec794901d17c78024a50270940304540a733656f0d60405160405180910390a45b5050565b60007f000000000000000000000000000000000000000000000000000000000000000046141561196e577f000000000000000000000000000000000000000000000000000000000000000090506119dc565b6119d97f00000000000000000000000000000000000000000000000000000000000000007f00000000000000000000000000000000000000000000000000000000000000007f0000000000000000000000000000000000000000000000000000000000000000612334565b90505b90565b6119e98282610c86565b15611abd5760006009600084815260200190815260200160002060000160008373ffffffffffffffffffffffffffffffffffffffff1673ffffffffffffffffffffffffffffffffffffffff16815260200190815260200160002060006101000a81548160ff021916908315150217905550611a6261134a565b73ffffffffffffffffffffffffffffffffffffffff168173ffffffffffffffffffffffffffffffffffffffff16837ff6391f5c32d9c69d2a47ea670b442974b53935d1edc7fd64eb21e047a839171b60405160405180910390a45b5050565b600073ffffffffffffffffffffffffffffffffffffffff168273ffffffffffffffffffffffffffffffffffffffff161415611b31576040517f08c379a0000000000000000000000000000000000000000000000000000000008152600401611b289061366f565b60405180910390fd5b611b3d6000838361231f565b8060026000828254611b4f9190612f88565b92505081905550806000808473ffffffffffffffffffffffffffffffffffffffff1673ffffffffffffffffffffffffffffffffffffffff1681526020019081526020016000206000828254611ba49190612f88565b925050819055508173ffffffffffffffffffffffffffffffffffffffff16600073ffffffffffffffffffffffffffffffffffffffff167fddf252ad1be2c89b69c2b068fc378daa952ba7f163c4a11628f55a4df523b3ef83604051611c099190612afd565b60405180910390a3611c1d6000838361232f565b5050565b600073ffffffffffffffffffffffffffffffffffffffff168273ffffffffffffffffffffffffffffffffffffffff161415611c91576040517f08c379a0000000000000000000000000000000000000000000000000000000008152600401611c8890613701565b60405180910390fd5b611c9d8260008361231f565b60008060008473ffffffffffffffffffffffffffffffffffffffff1673ffffffffffffffffffffffffffffffffffffffff16815260200190815260200160002054905081811015611d23576040517f08c379a0000000000000000000000000000000000000000000000000000000008152600401611d1a90613793565b60405180910390fd5b8181036000808573ffffffffffffffffffffffffffffffffffffffff1673ffffffffffffffffffffffffffffffffffffffff168152602001908152602001600020819055508160026000828254611d7a91906137b3565b92505081905550600073ffffffffffffffffffffffffffffffffffffffff168373ffffffffffffffffffffffffffffffffffffffff167fddf252ad1be2c89b69c2b068fc378daa952ba7f163c4a11628f55a4df523b3ef84604051611ddf9190612afd565b60405180910390a3611df38360008461232f565b505050565b60008060008411611e3e576040517f08c379a0000000000000000000000000000000000000000000000000000000008152600401611e3590613833565b60405180910390fd5b611e4661236e565b841115611e88576040517f08c379a0000000000000000000000000000000000000000000000000000000008152600401611e7f9061389f565b60405180910390fd5b6000611ea0858560000161237f90919063ffffffff16565b90508360000180549050811415611ebe576000809250925050611ee7565b6001846001018281548110611ed657611ed56138bf565b5b906000526020600020015492509250505b9250929050565b6000611efa6008612459565b6000611f0461236e565b90507f8030e83b04d87bef53480e26263266d6ca66863aa8506aca6f2559d18aa1cb6781604051611f359190612afd565b60405180910390a18091505090565b600080600a60008473ffffffffffffffffffffffffffffffffffffffff1673ffffffffffffffffffffffffffffffffffffffff1681526020019081526020016000209050611f91816112d2565b9150611f9c81612459565b50919050565b6000611fb5611faf61191c565b8361246f565b9050919050565b6000806000611fcd878787876124a2565b91509150611fda816125af565b8192505050949350505050565b600b54612015600c60009054906101000a900473ffffffffffffffffffffffffffffffffffffffff16610b49565b101561204a57612049600c60009054906101000a900473ffffffffffffffffffffffffffffffffffffffff16600b54611ac1565b5b612079600c60009054906101000a900473ffffffffffffffffffffffffffffffffffffffff1682600b546115ba565b50565b6120cc600560008373ffffffffffffffffffffffffffffffffffffffff1673ffffffffffffffffffffffffffffffffffffffff1681526020019081526020016000206120c783610b49565b612784565b50565b6120e160066120dc6107f2565b612784565b565b6060600060028360026120f691906138ee565b6121009190612f88565b67ffffffffffffffff81111561211957612118613948565b5b6040519080825280601f01601f19166020018201604052801561214b5781602001600182028036833780820191505090505b5090507f300000000000000000000000000000000000000000000000000000000000000081600081518110612183576121826138bf565b5b60200101907effffffffffffffffffffffffffffffffffffffffffffffffffffffffffffff1916908160001a9053507f7800000000000000000000000000000000000000000000000000000000000000816001815181106121e7576121e66138bf565b5b60200101907effffffffffffffffffffffffffffffffffffffffffffffffffffffffffffff1916908160001a9053506000600184600261222791906138ee565b6122319190612f88565b90505b60018111156122d1577f3031323334353637383961626364656600000000000000000000000000000000600f861660108110612273576122726138bf565b5b1a60f81b82828151811061228a576122896138bf565b5b60200101907effffffffffffffffffffffffffffffffffffffffffffffffffffffffffffff1916908160001a905350600485901c9450806122ca90613977565b9050612234565b5060008414612315576040517f08c379a000000000000000000000000000000000000000000000000000000000815260040161230c906139ed565b60405180910390fd5b8091505092915050565b61232a838383611213565b505050565b505050565b6000838383463060405160200161234f959493929190613a0d565b6040516020818303038152906040528051906020012090509392505050565b600061237a60086112d2565b905090565b600080838054905014156123965760009050612453565b600080848054905090505b808210156123fa5760006123b583836127ff565b9050848682815481106123cb576123ca6138bf565b5b906000526020600020015411156123e4578091506123f4565b6001816123f19190612f88565b92505b506123a1565b6000821180156124325750838560018461241491906137b3565b81548110612425576124246138bf565b5b9060005260206000200154145b1561244d5760018261244491906137b3565b92505050612453565b81925050505b92915050565b6001816000016000828254019250508190555050565b60008282604051602001612484929190613acd565b60405160208183030381529060405280519060200120905092915050565b6000807f7fffffffffffffffffffffffffffffff5d576e7357a4501ddfe92f46681b20a08360001c11156124dd5760006003915091506125a6565b601b8560ff16141580156124f55750601c8560ff1614155b156125075760006004915091506125a6565b60006001878787876040516000815260200160405260405161252c9493929190613b04565b6020604051602081039080840390855afa15801561254e573d6000803e3d6000fd5b505050602060405103519050600073ffffffffffffffffffffffffffffffffffffffff168173ffffffffffffffffffffffffffffffffffffffff16141561259d576000600192509250506125a6565b80600092509250505b94509492505050565b600060048111156125c3576125c2613b49565b5b8160048111156125d6576125d5613b49565b5b14156125e157612781565b600160048111156125f5576125f4613b49565b5b81600481111561260857612607613b49565b5b1415612649576040517f08c379a000000000000000000000000000000000000000000000000000000000815260040161264090613bc4565b60405180910390fd5b6002600481111561265d5761265c613b49565b5b8160048111156126705761266f613b49565b5b14156126b1576040517f08c379a00000000000000000000000000000000000000000000000000000000081526004016126a890613c30565b60405180910390fd5b600360048111156126c5576126c4613b49565b5b8160048111156126d8576126d7613b49565b5b1415612719576040517f08c379a000000000000000000000000000000000000000000000000000000000815260040161271090613cc2565b60405180910390fd5b60048081111561272c5761272b613b49565b5b81600481111561273f5761273e613b49565b5b1415612780576040517f08c379a000000000000000000000000000000000000000000000000000000000815260040161277790613d54565b60405180910390fd5b5b50565b600061278e61236e565b90508061279d84600001612825565b10156127fa5782600001819080600181540180825580915050600190039060005260206000200160009091909190915055826001018290806001815401808255809150506001900390600052602060002001600090919091909150555b505050565b600060028284186128109190613da3565b82841661281d9190612f88565b905092915050565b6000808280549050141561283c576000905061286d565b816001838054905061284e91906137b3565b8154811061285f5761285e6138bf565b5b906000526020600020015490505b919050565b600080fd5b60007fffffffff0000000000000000000000000000000000000000000000000000000082169050919050565b6128ac81612877565b81146128b757600080fd5b50565b6000813590506128c9816128a3565b92915050565b6000602082840312156128e5576128e4612872565b5b60006128f3848285016128ba565b91505092915050565b60008115159050919050565b612911816128fc565b82525050565b600060208201905061292c6000830184612908565b92915050565b6000819050919050565b61294581612932565b811461295057600080fd5b50565b6000813590506129628161293c565b92915050565b60006020828403121561297e5761297d612872565b5b600061298c84828501612953565b91505092915050565b600081519050919050565b600082825260208201905092915050565b60005b838110156129cf5780820151818401526020810190506129b4565b838111156129de576000848401525b50505050565b6000601f19601f8301169050919050565b6000612a0082612995565b612a0a81856129a0565b9350612a1a8185602086016129b1565b612a23816129e4565b840191505092915050565b60006020820190508181036000830152612a4881846129f5565b905092915050565b600073ffffffffffffffffffffffffffffffffffffffff82169050919050565b6000612a7b82612a50565b9050919050565b612a8b81612a70565b8114612a9657600080fd5b50565b600081359050612aa881612a82565b92915050565b60008060408385031215612ac557612ac4612872565b5b6000612ad385828601612a99565b9250506020612ae485828601612953565b9150509250929050565b612af781612932565b82525050565b6000602082019050612b126000830184612aee565b92915050565b600080600060608486031215612b3157612b30612872565b5b6000612b3f86828701612a99565b9350506020612b5086828701612a99565b9250506040612b6186828701612953565b9150509250925092565b6000819050919050565b612b7e81612b6b565b8114612b8957600080fd5b50565b600081359050612b9b81612b75565b92915050565b600060208284031215612bb757612bb6612872565b5b6000612bc584828501612b8c565b91505092915050565b612bd781612b6b565b82525050565b6000602082019050612bf26000830184612bce565b92915050565b60008060408385031215612c0f57612c0e612872565b5b6000612c1d85828601612b8c565b9250506020612c2e85828601612a99565b9150509250929050565b600060ff82169050919050565b612c4e81612c38565b82525050565b6000602082019050612c696000830184612c45565b92915050565b600060208284031215612c8557612c84612872565b5b6000612c9384828501612a99565b91505092915050565b612ca581612a70565b82525050565b6000602082019050612cc06000830184612c9c565b92915050565b612ccf81612c38565b8114612cda57600080fd5b50565b600081359050612cec81612cc6565b92915050565b600080600080600080600060e0888a031215612d1157612d10612872565b5b6000612d1f8a828b01612a99565b9750506020612d308a828b01612a99565b9650506040612d418a828b01612953565b9550506060612d528a828b01612953565b9450506080612d638a828b01612cdd565b93505060a0612d748a828b01612b8c565b92505060c0612d858a828b01612b8c565b91505092959891949750929550565b60008060408385031215612dab57612daa612872565b5b6000612db985828601612a99565b9250506020612dca85828601612a99565b9150509250929050565b7f4e487b7100000000000000000000000000000000000000000000000000000000600052602260045260246000fd5b60006002820490506001821680612e1b57607f821691505b60208210811415612e2f57612e2e612dd4565b5b50919050565b7f45524332303a207472616e7366657220616d6f756e742065786365656473206160008201527f6c6c6f77616e6365000000000000000000000000000000000000000000000000602082015250565b6000612e916028836129a0565b9150612e9c82612e35565b604082019050919050565b60006020820190508181036000830152612ec081612e84565b9050919050565b7f416363657373436f6e74726f6c3a2063616e206f6e6c792072656e6f756e636560008201527f20726f6c657320666f722073656c660000000000000000000000000000000000602082015250565b6000612f23602f836129a0565b9150612f2e82612ec7565b604082019050919050565b60006020820190508181036000830152612f5281612f16565b9050919050565b7f4e487b7100000000000000000000000000000000000000000000000000000000600052601160045260246000fd5b6000612f9382612932565b9150612f9e83612932565b9250827fffffffffffffffffffffffffffffffffffffffffffffffffffffffffffffffff03821115612fd357612fd2612f59565b5b828201905092915050565b7f45524332303a206275726e20616d6f756e74206578636565647320616c6c6f7760008201527f616e636500000000000000000000000000000000000000000000000000000000602082015250565b600061303a6024836129a0565b915061304582612fde565b604082019050919050565b600060208201905081810360008301526130698161302d565b9050919050565b7f45524332303a2064656372656173656420616c6c6f77616e63652062656c6f7760008201527f207a65726f000000000000000000000000000000000000000000000000000000602082015250565b60006130cc6025836129a0565b91506130d782613070565b604082019050919050565b600060208201905081810360008301526130fb816130bf565b9050919050565b7f45524332305065726d69743a206578706972656420646561646c696e65000000600082015250565b6000613138601d836129a0565b915061314382613102565b602082019050919050565b600060208201905081810360008301526131678161312b565b9050919050565b600060c0820190506131836000830189612bce565b6131906020830188612c9c565b61319d6040830187612c9c565b6131aa6060830186612aee565b6131b76080830185612aee565b6131c460a0830184612aee565b979650505050505050565b7f45524332305065726d69743a20696e76616c6964207369676e61747572650000600082015250565b6000613205601e836129a0565b9150613210826131cf565b602082019050919050565b60006020820190508181036000830152613234816131f8565b9050919050565b600081905092915050565b7f416363657373436f6e74726f6c3a206163636f756e7420000000000000000000600082015250565b600061327c60178361323b565b915061328782613246565b601782019050919050565b600061329d82612995565b6132a7818561323b565b93506132b78185602086016129b1565b80840191505092915050565b7f206973206d697373696e6720726f6c6520000000000000000000000000000000600082015250565b60006132f960118361323b565b9150613304826132c3565b601182019050919050565b600061331a8261326f565b91506133268285613292565b9150613331826132ec565b915061333d8284613292565b91508190509392505050565b7f45524332303a20617070726f76652066726f6d20746865207a65726f2061646460008201527f7265737300000000000000000000000000000000000000000000000000000000602082015250565b60006133a56024836129a0565b91506133b082613349565b604082019050919050565b600060208201905081810360008301526133d481613398565b9050919050565b7f45524332303a20617070726f766520746f20746865207a65726f20616464726560008201527f7373000000000000000000000000000000000000000000000000000000000000602082015250565b60006134376022836129a0565b9150613442826133db565b604082019050919050565b600060208201905081810360008301526134668161342a565b9050919050565b7f45524332303a207472616e736665722066726f6d20746865207a65726f20616460008201527f6472657373000000000000000000000000000000000000000000000000000000602082015250565b60006134c96025836129a0565b91506134d48261346d565b604082019050919050565b600060208201905081810360008301526134f8816134bc565b9050919050565b7f45524332303a207472616e7366657220746f20746865207a65726f206164647260008201527f6573730000000000000000000000000000000000000000000000000000000000602082015250565b600061355b6023836129a0565b9150613566826134ff565b604082019050919050565b6000602082019050818103600083015261358a8161354e565b9050919050565b7f45524332303a207472616e7366657220616d6f756e742065786365656473206260008201527f616c616e63650000000000000000000000000000000000000000000000000000602082015250565b60006135ed6026836129a0565b91506135f882613591565b604082019050919050565b6000602082019050818103600083015261361c816135e0565b9050919050565b7f45524332303a206d696e7420746f20746865207a65726f206164647265737300600082015250565b6000613659601f836129a0565b915061366482613623565b602082019050919050565b600060208201905081810360008301526136888161364c565b9050919050565b7f45524332303a206275726e2066726f6d20746865207a65726f2061646472657360008201527f7300000000000000000000000000000000000000000000000000000000000000602082015250565b60006136eb6021836129a0565b91506136f68261368f565b604082019050919050565b6000602082019050818103600083015261371a816136de565b9050919050565b7f45524332303a206275726e20616d6f756e7420657863656564732062616c616e60008201527f6365000000000000000000000000000000000000000000000000000000000000602082015250565b600061377d6022836129a0565b915061378882613721565b604082019050919050565b600060208201905081810360008301526137ac81613770565b9050919050565b60006137be82612932565b91506137c983612932565b9250828210156137dc576137db612f59565b5b828203905092915050565b7f4552433230536e617073686f743a206964206973203000000000000000000000600082015250565b600061381d6016836129a0565b9150613828826137e7565b602082019050919050565b6000602082019050818103600083015261384c81613810565b9050919050565b7f4552433230536e617073686f743a206e6f6e6578697374656e74206964000000600082015250565b6000613889601d836129a0565b915061389482613853565b602082019050919050565b600060208201905081810360008301526138b88161387c565b9050919050565b7f4e487b7100000000000000000000000000000000000000000000000000000000600052603260045260246000fd5b60006138f982612932565b915061390483612932565b9250817fffffffffffffffffffffffffffffffffffffffffffffffffffffffffffffffff048311821515161561393d5761393c612f59565b5b828202905092915050565b7f4e487b7100000000000000000000000000000000000000000000000000000000600052604160045260246000fd5b600061398282612932565b9150600082141561399657613995612f59565b5b600182039050919050565b7f537472696e67733a20686578206c656e67746820696e73756666696369656e74600082015250565b60006139d76020836129a0565b91506139e2826139a1565b602082019050919050565b60006020820190508181036000830152613a06816139ca565b9050919050565b600060a082019050613a226000830188612bce565b613a2f6020830187612bce565b613a3c6040830186612bce565b613a496060830185612aee565b613a566080830184612c9c565b9695505050505050565b7f1901000000000000000000000000000000000000000000000000000000000000600082015250565b6000613a9660028361323b565b9150613aa182613a60565b600282019050919050565b6000819050919050565b613ac7613ac282612b6b565b613aac565b82525050565b6000613ad882613a89565b9150613ae48285613ab6565b602082019150613af48284613ab6565b6020820191508190509392505050565b6000608082019050613b196000830187612bce565b613b266020830186612c45565b613b336040830185612bce565b613b406060830184612bce565b95945050505050565b7f4e487b7100000000000000000000000000000000000000000000000000000000600052602160045260246000fd5b7f45434453413a20696e76616c6964207369676e61747572650000000000000000600082015250565b6000613bae6018836129a0565b9150613bb982613b78565b602082019050919050565b60006020820190508181036000830152613bdd81613ba1565b9050919050565b7f45434453413a20696e76616c6964207369676e6174757265206c656e67746800600082015250565b6000613c1a601f836129a0565b9150613c2582613be4565b602082019050919050565b60006020820190508181036000830152613c4981613c0d565b9050919050565b7f45434453413a20696e76616c6964207369676e6174757265202773272076616c60008201527f7565000000000000000000000000000000000000000000000000000000000000602082015250565b6000613cac6022836129a0565b9150613cb782613c50565b604082019050919050565b60006020820190508181036000830152613cdb81613c9f565b9050919050565b7f45434453413a20696e76616c6964207369676e6174757265202776272076616c60008201527f7565000000000000000000000000000000000000000000000000000000000000602082015250565b6000613d3e6022836129a0565b9150613d4982613ce2565b604082019050919050565b60006020820190508181036000830152613d6d81613d31565b9050919050565b7f4e487b7100000000000000000000000000000000000000000000000000000000600052601260045260246000fd5b6000613dae82612932565b9150613db983612932565b925082613dc957613dc8613d74565b5b82820490509291505056fea264697066735822122070d8602f980945092e763ad06453196449714a2d2c82e6123bff18c949ab60be64736f6c634300080a0033",
  "immutableReferences": {
    "6986": [
      {
        "length": 32,
        "start": 3923
      }
    ],
    "9965": [
      {
        "length": 32,
        "start": 6472
      }
    ],
    "9967": [
      {
        "length": 32,
        "start": 6432
      }
    ],
    "9969": [
      {
        "length": 32,
        "start": 6548
      }
    ],
    "9971": [
      {
        "length": 32,
        "start": 6581
      }
    ],
    "9973": [
      {
        "length": 32,
        "start": 6515
      }
    ]
  },
  "source": "// SPDX-License-Identifier: MIT\npragma solidity ^0.8.2;\n\n/// @title The IkonDAO Token - fungible token that powers the IkonDAO ecosystem \n/// @author Fernando M. Trouw\n/// @notice this contract should be used for basic simulation purposes only \n/// @notice this contract is an experimental contract and should not be used to initiate project that will hold real value\n/// @dev functions currently implemented (other then imported library) functions could contain side-effects\n\nimport \"@openzeppelin/contracts/token/ERC20/ERC20.sol\";\nimport \"@openzeppelin/contracts/token/ERC20/extensions/ERC20Burnable.sol\";\nimport \"@openzeppelin/contracts/token/ERC20/extensions/ERC20Snapshot.sol\";\nimport \"@openzeppelin/contracts/access/AccessControl.sol\";\nimport \"@openzeppelin/contracts/token/ERC20/extensions/draft-ERC20Permit.sol\";\nimport \"./Constants.sol\";\n\n\n/// @custom:security-contact ftrouw@protonmail.com\ncontract IkonDAOToken is ERC20, ERC20Burnable, ERC20Snapshot, AccessControl, ERC20Permit, Constants {\n    \n    uint256 _baseRewardTokens; \n    address private _owner; \n    \n    constructor(uint256 _baseRewards) ERC20(\"IkonDAO Token\", \"IKD\") ERC20Permit(\"IkonDAO Token\") {\n        \n        _owner = _msgSender();\n        _setupRole(ADMIN_ROLE, _msgSender());\n        _setRoleAdmin(ADMIN_ROLE, ADMIN_ROLE);\n        _setupRole(SNAPSHOT_ROLE, _msgSender());\n        _setRoleAdmin(SNAPSHOT_ROLE, ADMIN_ROLE);\n        _mint(_owner, 1000000 * 10 ** decimals());\n        _setupRole(MINTER_ROLE, _msgSender());\n        _setRoleAdmin(MINTER_ROLE, ADMIN_ROLE);\n        \n        /// @dev sets basereward\n        _baseRewardTokens = _baseRewards;\n    }\n\n    /// @dev see _rewardTokens\n    function rewardTokens(address to) external onlyRole(ADMIN_ROLE) {\n        _rewardTokens(to);\n    }\n\n    /// @dev returns the owner of tokens\n    function owner() public view returns (address){\n        return _owner;\n    }\n\n    /// @dev changes ownership and transfers tokens to new owner\n    /// @param newOwner the address to which ownership of tokens will be transferred\n    /// @notice can only be initiated through proposal request\n    function transferOwnership(address newOwner) external onlyRole(ADMIN_ROLE) returns(bool){\n        _transfer(_owner, newOwner, balanceOf(_owner));\n        _owner = newOwner;\n        return true;\n    }\n\n    /// @dev distributes rewards from dao to contributor\n    /// @param _to address of the contributoraddress\n    /// @notice incase balance is not enough for _baseReward tokens will be minted to owner\n    function _rewardTokens(address _to) private {\n        if (balanceOf(_owner) < _baseRewardTokens){\n            _mint(_owner, _baseRewardTokens);\n        }\n        _transfer(_owner, _to, _baseRewardTokens); \n    }   \n\n    /// @dev returns base Token Rewards\n    function getBaseReward() public view returns(uint256) {\n        return _baseRewardTokens; \n    }\n\n    /// @dev sets base Token Reward\n    /// @param newBase is the amount to set rewards to \n    function setBaseReward(uint256 newBase) external onlyRole(ADMIN_ROLE) {\n        _baseRewardTokens = newBase;\n    }\n\n    /// @dev for taking snapshots of rewards\n    function snapshot() public onlyRole(SNAPSHOT_ROLE) {\n        _snapshot();\n    }\n\n    function mint(address to, uint256 amount) external onlyRole(MINTER_ROLE) {\n        _mint(to, amount);\n    }\n\n    // The following functions are overrides required by Solidity.\n    function _beforeTokenTransfer(address from, address to, uint256 amount)\n        internal\n        override(ERC20, ERC20Snapshot)\n    {\n        super._beforeTokenTransfer(from, to, amount);\n    }\n\n}",
  "sourcePath": "/home/rasguy92/Documents/blockchain-developer-bootcamp-final-project/contracts/IkonDAOToken.sol",
  "compiler": {
    "name": "solc",
    "version": "0.8.10+commit.fc410830.Emscripten.clang"
  },
  "schemaVersion": "3.4.3",
  "updatedAt": "2021-11-25T08:44:08.482Z",
  "networkType": "ethereum",
  "devdoc": {
    "custom:security-contact": "ftrouw@protonmail.com",
    "kind": "dev",
    "methods": {
      "DOMAIN_SEPARATOR()": {
        "details": "See {IERC20Permit-DOMAIN_SEPARATOR}."
      },
      "allowance(address,address)": {
        "details": "See {IERC20-allowance}."
      },
      "approve(address,uint256)": {
        "details": "See {IERC20-approve}. Requirements: - `spender` cannot be the zero address."
      },
      "balanceOf(address)": {
        "details": "See {IERC20-balanceOf}."
      },
      "balanceOfAt(address,uint256)": {
        "details": "Retrieves the balance of `account` at the time `snapshotId` was created."
      },
      "burn(uint256)": {
        "details": "Destroys `amount` tokens from the caller. See {ERC20-_burn}."
      },
      "burnFrom(address,uint256)": {
        "details": "Destroys `amount` tokens from `account`, deducting from the caller's allowance. See {ERC20-_burn} and {ERC20-allowance}. Requirements: - the caller must have allowance for ``accounts``'s tokens of at least `amount`."
      },
      "decimals()": {
        "details": "Returns the number of decimals used to get its user representation. For example, if `decimals` equals `2`, a balance of `505` tokens should be displayed to a user as `5.05` (`505 / 10 ** 2`). Tokens usually opt for a value of 18, imitating the relationship between Ether and Wei. This is the value {ERC20} uses, unless this function is overridden; NOTE: This information is only used for _display_ purposes: it in no way affects any of the arithmetic of the contract, including {IERC20-balanceOf} and {IERC20-transfer}."
      },
      "decreaseAllowance(address,uint256)": {
        "details": "Atomically decreases the allowance granted to `spender` by the caller. This is an alternative to {approve} that can be used as a mitigation for problems described in {IERC20-approve}. Emits an {Approval} event indicating the updated allowance. Requirements: - `spender` cannot be the zero address. - `spender` must have allowance for the caller of at least `subtractedValue`."
      },
      "getBaseReward()": {
        "details": "returns base Token Rewards"
      },
      "getRoleAdmin(bytes32)": {
        "details": "Returns the admin role that controls `role`. See {grantRole} and {revokeRole}. To change a role's admin, use {_setRoleAdmin}."
      },
      "grantRole(bytes32,address)": {
        "details": "Grants `role` to `account`. If `account` had not been already granted `role`, emits a {RoleGranted} event. Requirements: - the caller must have ``role``'s admin role."
      },
      "hasRole(bytes32,address)": {
        "details": "Returns `true` if `account` has been granted `role`."
      },
      "increaseAllowance(address,uint256)": {
        "details": "Atomically increases the allowance granted to `spender` by the caller. This is an alternative to {approve} that can be used as a mitigation for problems described in {IERC20-approve}. Emits an {Approval} event indicating the updated allowance. Requirements: - `spender` cannot be the zero address."
      },
      "name()": {
        "details": "Returns the name of the token."
      },
      "nonces(address)": {
        "details": "See {IERC20Permit-nonces}."
      },
      "owner()": {
        "details": "returns the owner of tokens"
      },
      "permit(address,address,uint256,uint256,uint8,bytes32,bytes32)": {
        "details": "See {IERC20Permit-permit}."
      },
      "renounceRole(bytes32,address)": {
        "details": "Revokes `role` from the calling account. Roles are often managed via {grantRole} and {revokeRole}: this function's purpose is to provide a mechanism for accounts to lose their privileges if they are compromised (such as when a trusted device is misplaced). If the calling account had been granted `role`, emits a {RoleRevoked} event. Requirements: - the caller must be `account`."
      },
      "revokeRole(bytes32,address)": {
        "details": "Revokes `role` from `account`. If `account` had been granted `role`, emits a {RoleRevoked} event. Requirements: - the caller must have ``role``'s admin role."
      },
      "rewardTokens(address)": {
        "details": "see _rewardTokens"
      },
      "setBaseReward(uint256)": {
        "details": "sets base Token Reward",
        "params": {
          "newBase": "is the amount to set rewards to "
        }
      },
      "snapshot()": {
        "details": "for taking snapshots of rewards"
      },
      "supportsInterface(bytes4)": {
        "details": "See {IERC165-supportsInterface}."
      },
      "symbol()": {
        "details": "Returns the symbol of the token, usually a shorter version of the name."
      },
      "totalSupply()": {
        "details": "See {IERC20-totalSupply}."
      },
      "totalSupplyAt(uint256)": {
        "details": "Retrieves the total supply at the time `snapshotId` was created."
      },
      "transfer(address,uint256)": {
        "details": "See {IERC20-transfer}. Requirements: - `recipient` cannot be the zero address. - the caller must have a balance of at least `amount`."
      },
      "transferFrom(address,address,uint256)": {
        "details": "See {IERC20-transferFrom}. Emits an {Approval} event indicating the updated allowance. This is not required by the EIP. See the note at the beginning of {ERC20}. Requirements: - `sender` and `recipient` cannot be the zero address. - `sender` must have a balance of at least `amount`. - the caller must have allowance for ``sender``'s tokens of at least `amount`."
      },
      "transferOwnership(address)": {
        "details": "changes ownership and transfers tokens to new owner",
        "params": {
          "newOwner": "the address to which ownership of tokens will be transferred"
        }
      }
    },
    "version": 1
  },
  "userdoc": {
    "kind": "user",
    "methods": {
      "transferOwnership(address)": {
        "notice": "can only be initiated through proposal request"
      }
    },
    "version": 1
  }
}