{
  "abi": [
    {
      "inputs": [
        {
          "internalType": "address",
          "name": "DAO",
          "type": "address"
        }
      ],
      "stateMutability": "nonpayable",
      "type": "constructor"
    },
    {
      "anonymous": false,
      "inputs": [
        {
          "indexed": true,
          "internalType": "address",
          "name": "owner",
          "type": "address"
        },
        {
          "indexed": true,
          "internalType": "address",
          "name": "approved",
          "type": "address"
        },
        {
          "indexed": true,
          "internalType": "uint256",
          "name": "tokenId",
          "type": "uint256"
        }
      ],
      "name": "Approval",
      "type": "event"
    },
    {
      "anonymous": false,
      "inputs": [
        {
          "indexed": true,
          "internalType": "address",
          "name": "owner",
          "type": "address"
        },
        {
          "indexed": true,
          "internalType": "address",
          "name": "operator",
          "type": "address"
        },
        {
          "indexed": false,
          "internalType": "bool",
          "name": "approved",
          "type": "bool"
        }
      ],
      "name": "ApprovalForAll",
      "type": "event"
    },
    {
      "anonymous": false,
      "inputs": [
        {
          "indexed": false,
          "internalType": "address",
          "name": "newAddress",
          "type": "address"
        }
      ],
      "name": "DaoAddressChanged",
      "type": "event"
    },
    {
      "anonymous": false,
      "inputs": [
        {
          "indexed": false,
          "internalType": "address",
          "name": "account",
          "type": "address"
        }
      ],
      "name": "Paused",
      "type": "event"
    },
    {
      "anonymous": false,
      "inputs": [
        {
          "indexed": true,
          "internalType": "bytes32",
          "name": "role",
          "type": "bytes32"
        },
        {
          "indexed": true,
          "internalType": "bytes32",
          "name": "previousAdminRole",
          "type": "bytes32"
        },
        {
          "indexed": true,
          "internalType": "bytes32",
          "name": "newAdminRole",
          "type": "bytes32"
        }
      ],
      "name": "RoleAdminChanged",
      "type": "event"
    },
    {
      "anonymous": false,
      "inputs": [
        {
          "indexed": true,
          "internalType": "bytes32",
          "name": "role",
          "type": "bytes32"
        },
        {
          "indexed": true,
          "internalType": "address",
          "name": "account",
          "type": "address"
        },
        {
          "indexed": true,
          "internalType": "address",
          "name": "sender",
          "type": "address"
        }
      ],
      "name": "RoleGranted",
      "type": "event"
    },
    {
      "anonymous": false,
      "inputs": [
        {
          "indexed": true,
          "internalType": "bytes32",
          "name": "role",
          "type": "bytes32"
        },
        {
          "indexed": true,
          "internalType": "address",
          "name": "account",
          "type": "address"
        },
        {
          "indexed": true,
          "internalType": "address",
          "name": "sender",
          "type": "address"
        }
      ],
      "name": "RoleRevoked",
      "type": "event"
    },
    {
      "anonymous": false,
      "inputs": [
        {
          "indexed": true,
          "internalType": "address",
          "name": "from",
          "type": "address"
        },
        {
          "indexed": true,
          "internalType": "address",
          "name": "to",
          "type": "address"
        },
        {
          "indexed": true,
          "internalType": "uint256",
          "name": "tokenId",
          "type": "uint256"
        }
      ],
      "name": "Transfer",
      "type": "event"
    },
    {
      "anonymous": false,
      "inputs": [
        {
          "indexed": false,
          "internalType": "address",
          "name": "account",
          "type": "address"
        }
      ],
      "name": "Unpaused",
      "type": "event"
    },
    {
      "anonymous": false,
      "inputs": [
        {
          "indexed": false,
          "internalType": "uint256",
          "name": "tokenId",
          "type": "uint256"
        },
        {
          "indexed": false,
          "internalType": "address",
          "name": "receiver",
          "type": "address"
        }
      ],
      "name": "VectorMinted",
      "type": "event"
    },
    {
      "inputs": [],
      "name": "DEFAULT_ADMIN_ROLE",
      "outputs": [
        {
          "internalType": "bytes32",
          "name": "",
          "type": "bytes32"
        }
      ],
      "stateMutability": "view",
      "type": "function",
      "constant": true
    },
    {
      "inputs": [
        {
          "internalType": "address",
          "name": "to",
          "type": "address"
        },
        {
          "internalType": "uint256",
          "name": "tokenId",
          "type": "uint256"
        }
      ],
      "name": "approve",
      "outputs": [],
      "stateMutability": "nonpayable",
      "type": "function"
    },
    {
      "inputs": [
        {
          "internalType": "address",
          "name": "owner",
          "type": "address"
        }
      ],
      "name": "balanceOf",
      "outputs": [
        {
          "internalType": "uint256",
          "name": "",
          "type": "uint256"
        }
      ],
      "stateMutability": "view",
      "type": "function",
      "constant": true
    },
    {
      "inputs": [
        {
          "internalType": "uint256",
          "name": "tokenId",
          "type": "uint256"
        }
      ],
      "name": "getApproved",
      "outputs": [
        {
          "internalType": "address",
          "name": "",
          "type": "address"
        }
      ],
      "stateMutability": "view",
      "type": "function",
      "constant": true
    },
    {
      "inputs": [
        {
          "internalType": "bytes32",
          "name": "role",
          "type": "bytes32"
        }
      ],
      "name": "getRoleAdmin",
      "outputs": [
        {
          "internalType": "bytes32",
          "name": "",
          "type": "bytes32"
        }
      ],
      "stateMutability": "view",
      "type": "function",
      "constant": true
    },
    {
      "inputs": [
        {
          "internalType": "bytes32",
          "name": "role",
          "type": "bytes32"
        },
        {
          "internalType": "address",
          "name": "account",
          "type": "address"
        }
      ],
      "name": "grantRole",
      "outputs": [],
      "stateMutability": "nonpayable",
      "type": "function"
    },
    {
      "inputs": [
        {
          "internalType": "bytes32",
          "name": "role",
          "type": "bytes32"
        },
        {
          "internalType": "address",
          "name": "account",
          "type": "address"
        }
      ],
      "name": "hasRole",
      "outputs": [
        {
          "internalType": "bool",
          "name": "",
          "type": "bool"
        }
      ],
      "stateMutability": "view",
      "type": "function",
      "constant": true
    },
    {
      "inputs": [
        {
          "internalType": "address",
          "name": "owner",
          "type": "address"
        },
        {
          "internalType": "address",
          "name": "operator",
          "type": "address"
        }
      ],
      "name": "isApprovedForAll",
      "outputs": [
        {
          "internalType": "bool",
          "name": "",
          "type": "bool"
        }
      ],
      "stateMutability": "view",
      "type": "function",
      "constant": true
    },
    {
      "inputs": [],
      "name": "name",
      "outputs": [
        {
          "internalType": "string",
          "name": "",
          "type": "string"
        }
      ],
      "stateMutability": "view",
      "type": "function",
      "constant": true
    },
    {
      "inputs": [
        {
          "internalType": "uint256",
          "name": "tokenId",
          "type": "uint256"
        }
      ],
      "name": "ownerOf",
      "outputs": [
        {
          "internalType": "address",
          "name": "",
          "type": "address"
        }
      ],
      "stateMutability": "view",
      "type": "function",
      "constant": true
    },
    {
      "inputs": [],
      "name": "paused",
      "outputs": [
        {
          "internalType": "bool",
          "name": "",
          "type": "bool"
        }
      ],
      "stateMutability": "view",
      "type": "function",
      "constant": true
    },
    {
      "inputs": [
        {
          "internalType": "bytes32",
          "name": "role",
          "type": "bytes32"
        },
        {
          "internalType": "address",
          "name": "account",
          "type": "address"
        }
      ],
      "name": "renounceRole",
      "outputs": [],
      "stateMutability": "nonpayable",
      "type": "function"
    },
    {
      "inputs": [
        {
          "internalType": "bytes32",
          "name": "role",
          "type": "bytes32"
        },
        {
          "internalType": "address",
          "name": "account",
          "type": "address"
        }
      ],
      "name": "revokeRole",
      "outputs": [],
      "stateMutability": "nonpayable",
      "type": "function"
    },
    {
      "inputs": [
        {
          "internalType": "address",
          "name": "from",
          "type": "address"
        },
        {
          "internalType": "address",
          "name": "to",
          "type": "address"
        },
        {
          "internalType": "uint256",
          "name": "tokenId",
          "type": "uint256"
        }
      ],
      "name": "safeTransferFrom",
      "outputs": [],
      "stateMutability": "nonpayable",
      "type": "function"
    },
    {
      "inputs": [
        {
          "internalType": "address",
          "name": "from",
          "type": "address"
        },
        {
          "internalType": "address",
          "name": "to",
          "type": "address"
        },
        {
          "internalType": "uint256",
          "name": "tokenId",
          "type": "uint256"
        },
        {
          "internalType": "bytes",
          "name": "_data",
          "type": "bytes"
        }
      ],
      "name": "safeTransferFrom",
      "outputs": [],
      "stateMutability": "nonpayable",
      "type": "function"
    },
    {
      "inputs": [
        {
          "internalType": "address",
          "name": "operator",
          "type": "address"
        },
        {
          "internalType": "bool",
          "name": "approved",
          "type": "bool"
        }
      ],
      "name": "setApprovalForAll",
      "outputs": [],
      "stateMutability": "nonpayable",
      "type": "function"
    },
    {
      "inputs": [],
      "name": "symbol",
      "outputs": [
        {
          "internalType": "string",
          "name": "",
          "type": "string"
        }
      ],
      "stateMutability": "view",
      "type": "function",
      "constant": true
    },
    {
      "inputs": [
        {
          "internalType": "uint256",
          "name": "index",
          "type": "uint256"
        }
      ],
      "name": "tokenByIndex",
      "outputs": [
        {
          "internalType": "uint256",
          "name": "",
          "type": "uint256"
        }
      ],
      "stateMutability": "view",
      "type": "function",
      "constant": true
    },
    {
      "inputs": [
        {
          "internalType": "address",
          "name": "owner",
          "type": "address"
        },
        {
          "internalType": "uint256",
          "name": "index",
          "type": "uint256"
        }
      ],
      "name": "tokenOfOwnerByIndex",
      "outputs": [
        {
          "internalType": "uint256",
          "name": "",
          "type": "uint256"
        }
      ],
      "stateMutability": "view",
      "type": "function",
      "constant": true
    },
    {
      "inputs": [],
      "name": "totalSupply",
      "outputs": [
        {
          "internalType": "uint256",
          "name": "",
          "type": "uint256"
        }
      ],
      "stateMutability": "view",
      "type": "function",
      "constant": true
    },
    {
      "inputs": [
        {
          "internalType": "address",
          "name": "from",
          "type": "address"
        },
        {
          "internalType": "address",
          "name": "to",
          "type": "address"
        },
        {
          "internalType": "uint256",
          "name": "tokenId",
          "type": "uint256"
        }
      ],
      "name": "transferFrom",
      "outputs": [],
      "stateMutability": "nonpayable",
      "type": "function"
    },
    {
      "inputs": [],
      "name": "pause",
      "outputs": [],
      "stateMutability": "nonpayable",
      "type": "function"
    },
    {
      "inputs": [],
      "name": "unpause",
      "outputs": [],
      "stateMutability": "nonpayable",
      "type": "function"
    },
    {
      "inputs": [
        {
          "internalType": "string",
          "name": "_imageHash",
          "type": "string"
        },
        {
          "internalType": "bytes32",
          "name": "_category",
          "type": "bytes32"
        }
      ],
      "name": "safeMintVector",
      "outputs": [],
      "stateMutability": "nonpayable",
      "type": "function"
    },
    {
      "inputs": [],
      "name": "getCategories",
      "outputs": [
        {
          "components": [
            {
              "internalType": "bytes32",
              "name": "name",
              "type": "bytes32"
            }
          ],
          "internalType": "struct IkonDAOVectorCollectible.Category[]",
          "name": "",
          "type": "tuple[]"
        }
      ],
      "stateMutability": "view",
      "type": "function",
      "constant": true
    },
    {
      "inputs": [
        {
          "internalType": "uint256",
          "name": "tokenId",
          "type": "uint256"
        }
      ],
      "name": "getMetadata",
      "outputs": [
        {
          "components": [
            {
              "internalType": "string",
              "name": "image",
              "type": "string"
            },
            {
              "internalType": "bytes32",
              "name": "category",
              "type": "bytes32"
            }
          ],
          "internalType": "struct IkonDAOVectorCollectible.Metadata",
          "name": "",
          "type": "tuple"
        }
      ],
      "stateMutability": "view",
      "type": "function",
      "constant": true
    },
    {
      "inputs": [],
      "name": "getDAOAddress",
      "outputs": [
        {
          "internalType": "address",
          "name": "",
          "type": "address"
        }
      ],
      "stateMutability": "view",
      "type": "function",
      "constant": true
    },
    {
      "inputs": [
        {
          "internalType": "address",
          "name": "newAddress",
          "type": "address"
        }
      ],
      "name": "setDAOAddress",
      "outputs": [],
      "stateMutability": "nonpayable",
      "type": "function"
    },
    {
      "inputs": [
        {
          "internalType": "uint256",
          "name": "tokenId",
          "type": "uint256"
        }
      ],
      "name": "tokenURI",
      "outputs": [
        {
          "internalType": "string",
          "name": "",
          "type": "string"
        }
      ],
      "stateMutability": "view",
      "type": "function",
      "constant": true
    },
    {
      "inputs": [
        {
          "internalType": "bytes4",
          "name": "interfaceId",
          "type": "bytes4"
        }
      ],
      "name": "supportsInterface",
      "outputs": [
        {
          "internalType": "bool",
          "name": "",
          "type": "bool"
        }
      ],
      "stateMutability": "view",
      "type": "function",
      "constant": true
    }
  ],
  "bytecode": "0x60806040523480156200001157600080fd5b5060405162005125380380620051258339818101604052810190620000379190620005ec565b6040518060400160405280601a81526020017f496b6f6e44414f20566563746f7220436f6c6c65637469626c650000000000008152506040518060400160405280600581526020017f494b4456430000000000000000000000000000000000000000000000000000008152508160009080519060200190620000bb929190620004d2565b508060019080519060200190620000d4929190620004d2565b5050506000600b60006101000a81548160ff021916908315150217905550620001337f0454d691b20de09c741657b57037379cb9a924a8d5d937a8aedf7cda4a99940762000127620002d360201b60201c565b620002db60201b60201c565b620001657f0454d691b20de09c741657b57037379cb9a924a8d5d937a8aedf7cda4a99940780620002f160201b60201c565b620001a67f0364e1a0005f808428edcb763dbcd8f619cf7b20bb2b17f051a9708d326d9d7b6200019a620002d360201b60201c565b620002db60201b60201c565b620001f87f0364e1a0005f808428edcb763dbcd8f619cf7b20bb2b17f051a9708d326d9d7b7f0454d691b20de09c741657b57037379cb9a924a8d5d937a8aedf7cda4a999407620002f160201b60201c565b620002397fd797ca08f626d4faf17808f01eb5aa9d1375776546369e264714a5daf31ea9ae6200022d620002d360201b60201c565b620002db60201b60201c565b6200028b7fd797ca08f626d4faf17808f01eb5aa9d1375776546369e264714a5daf31ea9ae7f0454d691b20de09c741657b57037379cb9a924a8d5d937a8aedf7cda4a999407620002f160201b60201c565b80601160006101000a81548173ffffffffffffffffffffffffffffffffffffffff021916908373ffffffffffffffffffffffffffffffffffffffff1602179055505062000683565b600033905090565b620002ed82826200035560201b60201c565b5050565b600062000304836200044760201b60201c565b905081600c6000858152602001908152602001600020600101819055508181847fbd79b86ffe0ab8e8776151514217cd7cacd52c909f66475c3af44e129f0b00ff60405160405180910390a4505050565b6200036782826200046760201b60201c565b62000443576001600c600084815260200190815260200160002060000160008373ffffffffffffffffffffffffffffffffffffffff1673ffffffffffffffffffffffffffffffffffffffff16815260200190815260200160002060006101000a81548160ff021916908315150217905550620003e8620002d360201b60201c565b73ffffffffffffffffffffffffffffffffffffffff168173ffffffffffffffffffffffffffffffffffffffff16837f2f8788117e7eff1d82e926ec794901d17c78024a50270940304540a733656f0d60405160405180910390a45b5050565b6000600c6000838152602001908152602001600020600101549050919050565b6000600c600084815260200190815260200160002060000160008373ffffffffffffffffffffffffffffffffffffffff1673ffffffffffffffffffffffffffffffffffffffff16815260200190815260200160002060009054906101000a900460ff16905092915050565b828054620004e0906200064d565b90600052602060002090601f01602090048101928262000504576000855562000550565b82601f106200051f57805160ff191683800117855562000550565b8280016001018555821562000550579182015b828111156200054f57825182559160200191906001019062000532565b5b5090506200055f919062000563565b5090565b5b808211156200057e57600081600090555060010162000564565b5090565b600080fd5b600073ffffffffffffffffffffffffffffffffffffffff82169050919050565b6000620005b48262000587565b9050919050565b620005c681620005a7565b8114620005d257600080fd5b50565b600081519050620005e681620005bb565b92915050565b60006020828403121562000605576200060462000582565b5b60006200061584828501620005d5565b91505092915050565b7f4e487b7100000000000000000000000000000000000000000000000000000000600052602260045260246000fd5b600060028204905060018216806200066657607f821691505b602082108114156200067d576200067c6200061e565b5b50919050565b614a9280620006936000396000f3fe608060405234801561001057600080fd5b50600436106101da5760003560e01c80635c975abb11610104578063a217fddf116100a2578063b88d4fde11610071578063b88d4fde14610555578063c87b56dd14610571578063d547741f146105a1578063e985e9c5146105bd576101da565b8063a217fddf146104cd578063a22cb465146104eb578063a574cea414610507578063ad9b44cd14610537576101da565b80638456cb59116100de5780638456cb591461045957806391d148541461046357806395d89b4114610493578063965afa89146104b1576101da565b80635c975abb146103db5780636352211e146103f957806370a0823114610429576101da565b80632f2ff15d1161017c5780634186ab201161014b5780634186ab201461035557806342842e0e146103715780634db0412c1461038d5780634f6ccce7146103ab576101da565b80632f2ff15d146102e35780632f745c59146102ff57806336568abe1461032f5780633f4ba83a1461034b576101da565b8063095ea7b3116101b8578063095ea7b31461025d57806318160ddd1461027957806323b872dd14610297578063248a9ca3146102b3576101da565b806301ffc9a7146101df57806306fdde031461020f578063081812fc1461022d575b600080fd5b6101f960048036038101906101f49190613091565b6105ed565b60405161020691906130d9565b60405180910390f35b6102176105ff565b604051610224919061318d565b60405180910390f35b610247600480360381019061024291906131e5565b610691565b6040516102549190613253565b60405180910390f35b6102776004803603810190610272919061329a565b610716565b005b61028161082e565b60405161028e91906132e9565b60405180910390f35b6102b160048036038101906102ac9190613304565b61083b565b005b6102cd60048036038101906102c8919061338d565b61089b565b6040516102da91906133c9565b60405180910390f35b6102fd60048036038101906102f891906133e4565b6108bb565b005b6103196004803603810190610314919061329a565b6108e4565b60405161032691906132e9565b60405180910390f35b610349600480360381019061034491906133e4565b610989565b005b610353610a0c565b005b61036f600480360381019061036a9190613489565b610a49565b005b61038b60048036038101906103869190613304565b610d71565b005b610395610d91565b6040516103a291906135c3565b60405180910390f35b6103c560048036038101906103c091906131e5565b610df6565b6040516103d291906132e9565b60405180910390f35b6103e3610e67565b6040516103f091906130d9565b60405180910390f35b610413600480360381019061040e91906131e5565b610e7e565b6040516104209190613253565b60405180910390f35b610443600480360381019061043e91906135e5565b610f30565b60405161045091906132e9565b60405180910390f35b610461610fe8565b005b61047d600480360381019061047891906133e4565b611025565b60405161048a91906130d9565b60405180910390f35b61049b611090565b6040516104a8919061318d565b60405180910390f35b6104cb60048036038101906104c691906135e5565b611122565b005b6104d56111e0565b6040516104e291906133c9565b60405180910390f35b6105056004803603810190610500919061363e565b6111e7565b005b610521600480360381019061051c91906131e5565b611368565b60405161052e9190613705565b60405180910390f35b61053f611431565b60405161054c9190613253565b60405180910390f35b61056f600480360381019061056a9190613857565b61145b565b005b61058b600480360381019061058691906131e5565b6114bd565b604051610598919061318d565b60405180910390f35b6105bb60048036038101906105b691906133e4565b6114cf565b005b6105d760048036038101906105d291906138da565b6114f8565b6040516105e491906130d9565b60405180910390f35b60006105f88261158c565b9050919050565b60606000805461060e90613949565b80601f016020809104026020016040519081016040528092919081815260200182805461063a90613949565b80156106875780601f1061065c57610100808354040283529160200191610687565b820191906000526020600020905b81548152906001019060200180831161066a57829003601f168201915b5050505050905090565b600061069c82611606565b6106db576040517f08c379a00000000000000000000000000000000000000000000000000000000081526004016106d2906139ed565b60405180910390fd5b6004600083815260200190815260200160002060009054906101000a900473ffffffffffffffffffffffffffffffffffffffff169050919050565b600061072182610e7e565b90508073ffffffffffffffffffffffffffffffffffffffff168373ffffffffffffffffffffffffffffffffffffffff161415610792576040517f08c379a000000000000000000000000000000000000000000000000000000000815260040161078990613a7f565b60405180910390fd5b8073ffffffffffffffffffffffffffffffffffffffff166107b1611672565b73ffffffffffffffffffffffffffffffffffffffff1614806107e057506107df816107da611672565b6114f8565b5b61081f576040517f08c379a000000000000000000000000000000000000000000000000000000000815260040161081690613b11565b60405180910390fd5b610829838361167a565b505050565b6000600880549050905090565b61084c610846611672565b82611733565b61088b576040517f08c379a000000000000000000000000000000000000000000000000000000000815260040161088290613ba3565b60405180910390fd5b610896838383611811565b505050565b6000600c6000838152602001908152602001600020600101549050919050565b6108c48261089b565b6108d5816108d0611672565b611a6d565b6108df8383611b0a565b505050565b60006108ef83610f30565b8210610930576040517f08c379a000000000000000000000000000000000000000000000000000000000815260040161092790613c35565b60405180910390fd5b600660008473ffffffffffffffffffffffffffffffffffffffff1673ffffffffffffffffffffffffffffffffffffffff168152602001908152602001600020600083815260200190815260200160002054905092915050565b610991611672565b73ffffffffffffffffffffffffffffffffffffffff168173ffffffffffffffffffffffffffffffffffffffff16146109fe576040517f08c379a00000000000000000000000000000000000000000000000000000000081526004016109f590613cc7565b60405180910390fd5b610a088282611beb565b5050565b7f0364e1a0005f808428edcb763dbcd8f619cf7b20bb2b17f051a9708d326d9d7b610a3e81610a39611672565b611a6d565b610a46611ccd565b50565b7fd797ca08f626d4faf17808f01eb5aa9d1375776546369e264714a5daf31ea9ae610a7b81610a76611672565b611a6d565b610a83610e67565b15610ac3576040517f08c379a0000000000000000000000000000000000000000000000000000000008152600401610aba90613d33565b60405180910390fd5b6000610acf600d611d6f565b905060008114610b4057610ae38585611d7d565b156040518060600160405280602f8152602001614a2e602f913990610b3e576040517f08c379a0000000000000000000000000000000000000000000000000000000008152600401610b35919061318d565b60405180910390fd5b505b6000604051806040016040528087878080601f016020809104026020016040519081016040528093929190818152602001838380828437600081840152601f19601f8201169050808301925050505050505081526020018581525090506010600085815260200190815260200160002060009054906101000a900460ff16610ca457610bed601160009054906101000a900473ffffffffffffffffffffffffffffffffffffffff16611e20565b60006040518060200160405280868152509050600f819080600181540180825580915050600190039060005260206000200160009091909190915060008201518160000155505060016010600087815260200190815260200160002060006101000a81548160ff02191690831515021790555081600e60008581526020019081526020016000206000820151816000019080519060200190610c90929190612f65565b506020820151816001015590505050610d0e565b610ccf601160009054906101000a900473ffffffffffffffffffffffffffffffffffffffff16611e20565b80600e60008481526020019081526020016000206000820151816000019080519060200190610cff929190612f65565b50602082015181600101559050505b7fd51219ac3628fd973eadcbfcacb3c009725c77bc038c6e57eb99bfdb8da8d41882601160009054906101000a900473ffffffffffffffffffffffffffffffffffffffff16604051610d61929190613d53565b60405180910390a1505050505050565b610d8c8383836040518060200160405280600081525061145b565b505050565b6060600f805480602002602001604051908101604052809291908181526020016000905b82821015610ded5783829060005260206000200160405180602001604052908160008201548152505081526020019060010190610db5565b50505050905090565b6000610e0061082e565b8210610e41576040517f08c379a0000000000000000000000000000000000000000000000000000000008152600401610e3890613dee565b60405180910390fd5b60088281548110610e5557610e54613e0e565b5b90600052602060002001549050919050565b6000600b60009054906101000a900460ff16905090565b6000806002600084815260200190815260200160002060009054906101000a900473ffffffffffffffffffffffffffffffffffffffff169050600073ffffffffffffffffffffffffffffffffffffffff168173ffffffffffffffffffffffffffffffffffffffff161415610f27576040517f08c379a0000000000000000000000000000000000000000000000000000000008152600401610f1e90613eaf565b60405180910390fd5b80915050919050565b60008073ffffffffffffffffffffffffffffffffffffffff168273ffffffffffffffffffffffffffffffffffffffff161415610fa1576040517f08c379a0000000000000000000000000000000000000000000000000000000008152600401610f9890613f41565b60405180910390fd5b600360008373ffffffffffffffffffffffffffffffffffffffff1673ffffffffffffffffffffffffffffffffffffffff168152602001908152602001600020549050919050565b7f0364e1a0005f808428edcb763dbcd8f619cf7b20bb2b17f051a9708d326d9d7b61101a81611015611672565b611a6d565b611022611e40565b50565b6000600c600084815260200190815260200160002060000160008373ffffffffffffffffffffffffffffffffffffffff1673ffffffffffffffffffffffffffffffffffffffff16815260200190815260200160002060009054906101000a900460ff16905092915050565b60606001805461109f90613949565b80601f01602080910402602001604051908101604052809291908181526020018280546110cb90613949565b80156111185780601f106110ed57610100808354040283529160200191611118565b820191906000526020600020905b8154815290600101906020018083116110fb57829003601f168201915b5050505050905090565b7f0454d691b20de09c741657b57037379cb9a924a8d5d937a8aedf7cda4a9994076111548161114f611672565b611a6d565b61115c610e67565b1561119c576040517f08c379a000000000000000000000000000000000000000000000000000000000815260040161119390613d33565b60405180910390fd5b6111a582611ee3565b7fb5f93c8ed7df84870256f07ba228e09a30a9b6385a7737fe93d8cbb87e7dc770826040516111d49190613253565b60405180910390a15050565b6000801b81565b6111ef611672565b73ffffffffffffffffffffffffffffffffffffffff168273ffffffffffffffffffffffffffffffffffffffff16141561125d576040517f08c379a000000000000000000000000000000000000000000000000000000000815260040161125490613fad565b60405180910390fd5b806005600061126a611672565b73ffffffffffffffffffffffffffffffffffffffff1673ffffffffffffffffffffffffffffffffffffffff16815260200190815260200160002060008473ffffffffffffffffffffffffffffffffffffffff1673ffffffffffffffffffffffffffffffffffffffff16815260200190815260200160002060006101000a81548160ff0219169083151502179055508173ffffffffffffffffffffffffffffffffffffffff16611317611672565b73ffffffffffffffffffffffffffffffffffffffff167f17307eab39ab6107e8899845ad3d59bd9653f200f220920489ca2b5937696c318360405161135c91906130d9565b60405180910390a35050565b611370612feb565b600e600083815260200190815260200160002060405180604001604052908160008201805461139e90613949565b80601f01602080910402602001604051908101604052809291908181526020018280546113ca90613949565b80156114175780601f106113ec57610100808354040283529160200191611417565b820191906000526020600020905b8154815290600101906020018083116113fa57829003601f168201915b505050505081526020016001820154815250509050919050565b6000601160009054906101000a900473ffffffffffffffffffffffffffffffffffffffff16905090565b61146c611466611672565b83611733565b6114ab576040517f08c379a00000000000000000000000000000000000000000000000000000000081526004016114a290613ba3565b60405180910390fd5b6114b784848484611f27565b50505050565b60606114c882611f83565b9050919050565b6114d88261089b565b6114e9816114e4611672565b611a6d565b6114f38383611beb565b505050565b6000600560008473ffffffffffffffffffffffffffffffffffffffff1673ffffffffffffffffffffffffffffffffffffffff16815260200190815260200160002060008373ffffffffffffffffffffffffffffffffffffffff1673ffffffffffffffffffffffffffffffffffffffff16815260200190815260200160002060009054906101000a900460ff16905092915050565b60007f7965db0b000000000000000000000000000000000000000000000000000000007bffffffffffffffffffffffffffffffffffffffffffffffffffffffff1916827bffffffffffffffffffffffffffffffffffffffffffffffffffffffff191614806115ff57506115fe826120d5565b5b9050919050565b60008073ffffffffffffffffffffffffffffffffffffffff166002600084815260200190815260200160002060009054906101000a900473ffffffffffffffffffffffffffffffffffffffff1673ffffffffffffffffffffffffffffffffffffffff1614159050919050565b600033905090565b816004600083815260200190815260200160002060006101000a81548173ffffffffffffffffffffffffffffffffffffffff021916908373ffffffffffffffffffffffffffffffffffffffff160217905550808273ffffffffffffffffffffffffffffffffffffffff166116ed83610e7e565b73ffffffffffffffffffffffffffffffffffffffff167f8c5be1e5ebec7d5bd14f71427d1e84f3dd0314c0f7b2291e5b200ac8c7c3b92560405160405180910390a45050565b600061173e82611606565b61177d576040517f08c379a00000000000000000000000000000000000000000000000000000000081526004016117749061403f565b60405180910390fd5b600061178883610e7e565b90508073ffffffffffffffffffffffffffffffffffffffff168473ffffffffffffffffffffffffffffffffffffffff1614806117f757508373ffffffffffffffffffffffffffffffffffffffff166117df84610691565b73ffffffffffffffffffffffffffffffffffffffff16145b80611808575061180781856114f8565b5b91505092915050565b8273ffffffffffffffffffffffffffffffffffffffff1661183182610e7e565b73ffffffffffffffffffffffffffffffffffffffff1614611887576040517f08c379a000000000000000000000000000000000000000000000000000000000815260040161187e906140d1565b60405180910390fd5b600073ffffffffffffffffffffffffffffffffffffffff168273ffffffffffffffffffffffffffffffffffffffff1614156118f7576040517f08c379a00000000000000000000000000000000000000000000000000000000081526004016118ee90614163565b60405180910390fd5b61190283838361214f565b61190d60008261167a565b6001600360008573ffffffffffffffffffffffffffffffffffffffff1673ffffffffffffffffffffffffffffffffffffffff168152602001908152602001600020600082825461195d91906141b2565b925050819055506001600360008473ffffffffffffffffffffffffffffffffffffffff1673ffffffffffffffffffffffffffffffffffffffff16815260200190815260200160002060008282546119b491906141e6565b92505081905550816002600083815260200190815260200160002060006101000a81548173ffffffffffffffffffffffffffffffffffffffff021916908373ffffffffffffffffffffffffffffffffffffffff160217905550808273ffffffffffffffffffffffffffffffffffffffff168473ffffffffffffffffffffffffffffffffffffffff167fddf252ad1be2c89b69c2b068fc378daa952ba7f163c4a11628f55a4df523b3ef60405160405180910390a4505050565b611a778282611025565b611b0657611a9c8173ffffffffffffffffffffffffffffffffffffffff1660146121a7565b611aaa8360001c60206121a7565b604051602001611abb929190614310565b6040516020818303038152906040526040517f08c379a0000000000000000000000000000000000000000000000000000000008152600401611afd919061318d565b60405180910390fd5b5050565b611b148282611025565b611be7576001600c600084815260200190815260200160002060000160008373ffffffffffffffffffffffffffffffffffffffff1673ffffffffffffffffffffffffffffffffffffffff16815260200190815260200160002060006101000a81548160ff021916908315150217905550611b8c611672565b73ffffffffffffffffffffffffffffffffffffffff168173ffffffffffffffffffffffffffffffffffffffff16837f2f8788117e7eff1d82e926ec794901d17c78024a50270940304540a733656f0d60405160405180910390a45b5050565b611bf58282611025565b15611cc9576000600c600084815260200190815260200160002060000160008373ffffffffffffffffffffffffffffffffffffffff1673ffffffffffffffffffffffffffffffffffffffff16815260200190815260200160002060006101000a81548160ff021916908315150217905550611c6e611672565b73ffffffffffffffffffffffffffffffffffffffff168173ffffffffffffffffffffffffffffffffffffffff16837ff6391f5c32d9c69d2a47ea670b442974b53935d1edc7fd64eb21e047a839171b60405160405180910390a45b5050565b611cd5610e67565b611d14576040517f08c379a0000000000000000000000000000000000000000000000000000000008152600401611d0b90614396565b60405180910390fd5b6000600b60006101000a81548160ff0219169083151502179055507f5db9ee0a495bf2e6ff9c91a7834c1ba4fdd244a5e8aa4e537bd38aeae4b073aa611d58611672565b604051611d659190613253565b60405180910390a1565b600081600001549050919050565b600080600090505b611d8f600d611d6f565b811015611e19578383604051602001611da99291906143db565b60405160208183030381529060405280519060200120600e6000838152602001908152602001600020600001604051602001611de59190614488565b604051602081830303815290604052805190602001201415611e0657600191505b8080611e119061449f565b915050611d85565b5092915050565b611e3381611e2e600d611d6f565b6123e3565b611e3d600d612401565b50565b611e48610e67565b15611e88576040517f08c379a0000000000000000000000000000000000000000000000000000000008152600401611e7f90613d33565b60405180910390fd5b6001600b60006101000a81548160ff0219169083151502179055507f62e78cea01bee320cd4e420270b5ea74000d11b0c9f74754ebdbfc544b05a258611ecc611672565b604051611ed99190613253565b60405180910390a1565b80601160006101000a81548173ffffffffffffffffffffffffffffffffffffffff021916908373ffffffffffffffffffffffffffffffffffffffff16021790555050565b611f32848484611811565b611f3e84848484612417565b611f7d576040517f08c379a0000000000000000000000000000000000000000000000000000000008152600401611f749061455a565b60405180910390fd5b50505050565b6060611f8e82611606565b611fcd576040517f08c379a0000000000000000000000000000000000000000000000000000000008152600401611fc4906145ec565b60405180910390fd5b6000600a60008481526020019081526020016000208054611fed90613949565b80601f016020809104026020016040519081016040528092919081815260200182805461201990613949565b80156120665780601f1061203b57610100808354040283529160200191612066565b820191906000526020600020905b81548152906001019060200180831161204957829003601f168201915b50505050509050600061207761259f565b905060008151141561208d5781925050506120d0565b6000825111156120c25780826040516020016120aa92919061460c565b604051602081830303815290604052925050506120d0565b6120cb846125b6565b925050505b919050565b60007f780e9d63000000000000000000000000000000000000000000000000000000007bffffffffffffffffffffffffffffffffffffffffffffffffffffffff1916827bffffffffffffffffffffffffffffffffffffffffffffffffffffffff1916148061214857506121478261265d565b5b9050919050565b612157610e67565b15612197576040517f08c379a000000000000000000000000000000000000000000000000000000000815260040161218e90613d33565b60405180910390fd5b6121a283838361273f565b505050565b6060600060028360026121ba9190614630565b6121c491906141e6565b67ffffffffffffffff8111156121dd576121dc61372c565b5b6040519080825280601f01601f19166020018201604052801561220f5781602001600182028036833780820191505090505b5090507f30000000000000000000000000000000000000000000000000000000000000008160008151811061224757612246613e0e565b5b60200101907effffffffffffffffffffffffffffffffffffffffffffffffffffffffffffff1916908160001a9053507f7800000000000000000000000000000000000000000000000000000000000000816001815181106122ab576122aa613e0e565b5b60200101907effffffffffffffffffffffffffffffffffffffffffffffffffffffffffffff1916908160001a905350600060018460026122eb9190614630565b6122f591906141e6565b90505b6001811115612395577f3031323334353637383961626364656600000000000000000000000000000000600f86166010811061233757612336613e0e565b5b1a60f81b82828151811061234e5761234d613e0e565b5b60200101907effffffffffffffffffffffffffffffffffffffffffffffffffffffffffffff1916908160001a905350600485901c94508061238e9061468a565b90506122f8565b50600084146123d9576040517f08c379a00000000000000000000000000000000000000000000000000000000081526004016123d090614700565b60405180910390fd5b8091505092915050565b6123fd828260405180602001604052806000815250612853565b5050565b6001816000016000828254019250508190555050565b60006124388473ffffffffffffffffffffffffffffffffffffffff166128ae565b15612592578373ffffffffffffffffffffffffffffffffffffffff1663150b7a02612461611672565b8786866040518563ffffffff1660e01b81526004016124839493929190614775565b6020604051808303816000875af19250505080156124bf57506040513d601f19601f820116820180604052508101906124bc91906147d6565b60015b612542573d80600081146124ef576040519150601f19603f3d011682016040523d82523d6000602084013e6124f4565b606091505b5060008151141561253a576040517f08c379a00000000000000000000000000000000000000000000000000000000081526004016125319061455a565b60405180910390fd5b805181602001fd5b63150b7a0260e01b7bffffffffffffffffffffffffffffffffffffffffffffffffffffffff1916817bffffffffffffffffffffffffffffffffffffffffffffffffffffffff191614915050612597565b600190505b949350505050565b606060405180602001604052806000815250905090565b60606125c182611606565b612600576040517f08c379a00000000000000000000000000000000000000000000000000000000081526004016125f790614875565b60405180910390fd5b600061260a61259f565b9050600081511161262a5760405180602001604052806000815250612655565b80612634846128c1565b60405160200161264592919061460c565b6040516020818303038152906040525b915050919050565b60007f80ac58cd000000000000000000000000000000000000000000000000000000007bffffffffffffffffffffffffffffffffffffffffffffffffffffffff1916827bffffffffffffffffffffffffffffffffffffffffffffffffffffffff1916148061272857507f5b5e139f000000000000000000000000000000000000000000000000000000007bffffffffffffffffffffffffffffffffffffffffffffffffffffffff1916827bffffffffffffffffffffffffffffffffffffffffffffffffffffffff1916145b80612738575061273782612a22565b5b9050919050565b61274a838383612a8c565b600073ffffffffffffffffffffffffffffffffffffffff168373ffffffffffffffffffffffffffffffffffffffff16141561278d5761278881612a91565b6127cc565b8173ffffffffffffffffffffffffffffffffffffffff168373ffffffffffffffffffffffffffffffffffffffff16146127cb576127ca8382612ada565b5b5b600073ffffffffffffffffffffffffffffffffffffffff168273ffffffffffffffffffffffffffffffffffffffff16141561280f5761280a81612c47565b61284e565b8273ffffffffffffffffffffffffffffffffffffffff168273ffffffffffffffffffffffffffffffffffffffff161461284d5761284c8282612d18565b5b5b505050565b61285d8383612d97565b61286a6000848484612417565b6128a9576040517f08c379a00000000000000000000000000000000000000000000000000000000081526004016128a09061455a565b60405180910390fd5b505050565b600080823b905060008111915050919050565b60606000821415612909576040518060400160405280600181526020017f30000000000000000000000000000000000000000000000000000000000000008152509050612a1d565b600082905060005b6000821461293b5780806129249061449f565b915050600a8261293491906148c4565b9150612911565b60008167ffffffffffffffff8111156129575761295661372c565b5b6040519080825280601f01601f1916602001820160405280156129895781602001600182028036833780820191505090505b5090505b60008514612a16576001826129a291906141b2565b9150600a856129b191906148f5565b60306129bd91906141e6565b60f81b8183815181106129d3576129d2613e0e565b5b60200101907effffffffffffffffffffffffffffffffffffffffffffffffffffffffffffff1916908160001a905350600a85612a0f91906148c4565b945061298d565b8093505050505b919050565b60007f01ffc9a7000000000000000000000000000000000000000000000000000000007bffffffffffffffffffffffffffffffffffffffffffffffffffffffff1916827bffffffffffffffffffffffffffffffffffffffffffffffffffffffff1916149050919050565b505050565b6008805490506009600083815260200190815260200160002081905550600881908060018154018082558091505060019003906000526020600020016000909190919091505550565b60006001612ae784610f30565b612af191906141b2565b9050600060076000848152602001908152602001600020549050818114612bd6576000600660008673ffffffffffffffffffffffffffffffffffffffff1673ffffffffffffffffffffffffffffffffffffffff168152602001908152602001600020600084815260200190815260200160002054905080600660008773ffffffffffffffffffffffffffffffffffffffff1673ffffffffffffffffffffffffffffffffffffffff168152602001908152602001600020600084815260200190815260200160002081905550816007600083815260200190815260200160002081905550505b6007600084815260200190815260200160002060009055600660008573ffffffffffffffffffffffffffffffffffffffff1673ffffffffffffffffffffffffffffffffffffffff16815260200190815260200160002060008381526020019081526020016000206000905550505050565b60006001600880549050612c5b91906141b2565b9050600060096000848152602001908152602001600020549050600060088381548110612c8b57612c8a613e0e565b5b906000526020600020015490508060088381548110612cad57612cac613e0e565b5b906000526020600020018190555081600960008381526020019081526020016000208190555060096000858152602001908152602001600020600090556008805480612cfc57612cfb614926565b5b6001900381819060005260206000200160009055905550505050565b6000612d2383610f30565b905081600660008573ffffffffffffffffffffffffffffffffffffffff1673ffffffffffffffffffffffffffffffffffffffff168152602001908152602001600020600083815260200190815260200160002081905550806007600084815260200190815260200160002081905550505050565b600073ffffffffffffffffffffffffffffffffffffffff168273ffffffffffffffffffffffffffffffffffffffff161415612e07576040517f08c379a0000000000000000000000000000000000000000000000000000000008152600401612dfe906149a1565b60405180910390fd5b612e1081611606565b15612e50576040517f08c379a0000000000000000000000000000000000000000000000000000000008152600401612e4790614a0d565b60405180910390fd5b612e5c6000838361214f565b6001600360008473ffffffffffffffffffffffffffffffffffffffff1673ffffffffffffffffffffffffffffffffffffffff1681526020019081526020016000206000828254612eac91906141e6565b92505081905550816002600083815260200190815260200160002060006101000a81548173ffffffffffffffffffffffffffffffffffffffff021916908373ffffffffffffffffffffffffffffffffffffffff160217905550808273ffffffffffffffffffffffffffffffffffffffff16600073ffffffffffffffffffffffffffffffffffffffff167fddf252ad1be2c89b69c2b068fc378daa952ba7f163c4a11628f55a4df523b3ef60405160405180910390a45050565b828054612f7190613949565b90600052602060002090601f016020900481019282612f935760008555612fda565b82601f10612fac57805160ff1916838001178555612fda565b82800160010185558215612fda579182015b82811115612fd9578251825591602001919060010190612fbe565b5b509050612fe79190613008565b5090565b604051806040016040528060608152602001600080191681525090565b5b80821115613021576000816000905550600101613009565b5090565b6000604051905090565b600080fd5b600080fd5b60007fffffffff0000000000000000000000000000000000000000000000000000000082169050919050565b61306e81613039565b811461307957600080fd5b50565b60008135905061308b81613065565b92915050565b6000602082840312156130a7576130a661302f565b5b60006130b58482850161307c565b91505092915050565b60008115159050919050565b6130d3816130be565b82525050565b60006020820190506130ee60008301846130ca565b92915050565b600081519050919050565b600082825260208201905092915050565b60005b8381101561312e578082015181840152602081019050613113565b8381111561313d576000848401525b50505050565b6000601f19601f8301169050919050565b600061315f826130f4565b61316981856130ff565b9350613179818560208601613110565b61318281613143565b840191505092915050565b600060208201905081810360008301526131a78184613154565b905092915050565b6000819050919050565b6131c2816131af565b81146131cd57600080fd5b50565b6000813590506131df816131b9565b92915050565b6000602082840312156131fb576131fa61302f565b5b6000613209848285016131d0565b91505092915050565b600073ffffffffffffffffffffffffffffffffffffffff82169050919050565b600061323d82613212565b9050919050565b61324d81613232565b82525050565b60006020820190506132686000830184613244565b92915050565b61327781613232565b811461328257600080fd5b50565b6000813590506132948161326e565b92915050565b600080604083850312156132b1576132b061302f565b5b60006132bf85828601613285565b92505060206132d0858286016131d0565b9150509250929050565b6132e3816131af565b82525050565b60006020820190506132fe60008301846132da565b92915050565b60008060006060848603121561331d5761331c61302f565b5b600061332b86828701613285565b935050602061333c86828701613285565b925050604061334d868287016131d0565b9150509250925092565b6000819050919050565b61336a81613357565b811461337557600080fd5b50565b60008135905061338781613361565b92915050565b6000602082840312156133a3576133a261302f565b5b60006133b184828501613378565b91505092915050565b6133c381613357565b82525050565b60006020820190506133de60008301846133ba565b92915050565b600080604083850312156133fb576133fa61302f565b5b600061340985828601613378565b925050602061341a85828601613285565b9150509250929050565b600080fd5b600080fd5b600080fd5b60008083601f84011261344957613448613424565b5b8235905067ffffffffffffffff81111561346657613465613429565b5b6020830191508360018202830111156134825761348161342e565b5b9250929050565b6000806000604084860312156134a2576134a161302f565b5b600084013567ffffffffffffffff8111156134c0576134bf613034565b5b6134cc86828701613433565b935093505060206134df86828701613378565b9150509250925092565b600081519050919050565b600082825260208201905092915050565b6000819050602082019050919050565b61351e81613357565b82525050565b60208201600082015161353a6000850182613515565b50505050565b600061354c8383613524565b60208301905092915050565b6000602082019050919050565b6000613570826134e9565b61357a81856134f4565b935061358583613505565b8060005b838110156135b657815161359d8882613540565b97506135a883613558565b925050600181019050613589565b5085935050505092915050565b600060208201905081810360008301526135dd8184613565565b905092915050565b6000602082840312156135fb576135fa61302f565b5b600061360984828501613285565b91505092915050565b61361b816130be565b811461362657600080fd5b50565b60008135905061363881613612565b92915050565b600080604083850312156136555761365461302f565b5b600061366385828601613285565b925050602061367485828601613629565b9150509250929050565b600082825260208201905092915050565b600061369a826130f4565b6136a4818561367e565b93506136b4818560208601613110565b6136bd81613143565b840191505092915050565b600060408301600083015184820360008601526136e5828261368f565b91505060208301516136fa6020860182613515565b508091505092915050565b6000602082019050818103600083015261371f81846136c8565b905092915050565b600080fd5b7f4e487b7100000000000000000000000000000000000000000000000000000000600052604160045260246000fd5b61376482613143565b810181811067ffffffffffffffff821117156137835761378261372c565b5b80604052505050565b6000613796613025565b90506137a2828261375b565b919050565b600067ffffffffffffffff8211156137c2576137c161372c565b5b6137cb82613143565b9050602081019050919050565b82818337600083830152505050565b60006137fa6137f5846137a7565b61378c565b90508281526020810184848401111561381657613815613727565b5b6138218482856137d8565b509392505050565b600082601f83011261383e5761383d613424565b5b813561384e8482602086016137e7565b91505092915050565b600080600080608085870312156138715761387061302f565b5b600061387f87828801613285565b945050602061389087828801613285565b93505060406138a1878288016131d0565b925050606085013567ffffffffffffffff8111156138c2576138c1613034565b5b6138ce87828801613829565b91505092959194509250565b600080604083850312156138f1576138f061302f565b5b60006138ff85828601613285565b925050602061391085828601613285565b9150509250929050565b7f4e487b7100000000000000000000000000000000000000000000000000000000600052602260045260246000fd5b6000600282049050600182168061396157607f821691505b602082108114156139755761397461391a565b5b50919050565b7f4552433732313a20617070726f76656420717565727920666f72206e6f6e657860008201527f697374656e7420746f6b656e0000000000000000000000000000000000000000602082015250565b60006139d7602c836130ff565b91506139e28261397b565b604082019050919050565b60006020820190508181036000830152613a06816139ca565b9050919050565b7f4552433732313a20617070726f76616c20746f2063757272656e74206f776e6560008201527f7200000000000000000000000000000000000000000000000000000000000000602082015250565b6000613a696021836130ff565b9150613a7482613a0d565b604082019050919050565b60006020820190508181036000830152613a9881613a5c565b9050919050565b7f4552433732313a20617070726f76652063616c6c6572206973206e6f74206f7760008201527f6e6572206e6f7220617070726f76656420666f7220616c6c0000000000000000602082015250565b6000613afb6038836130ff565b9150613b0682613a9f565b604082019050919050565b60006020820190508181036000830152613b2a81613aee565b9050919050565b7f4552433732313a207472616e736665722063616c6c6572206973206e6f74206f60008201527f776e6572206e6f7220617070726f766564000000000000000000000000000000602082015250565b6000613b8d6031836130ff565b9150613b9882613b31565b604082019050919050565b60006020820190508181036000830152613bbc81613b80565b9050919050565b7f455243373231456e756d657261626c653a206f776e657220696e646578206f7560008201527f74206f6620626f756e6473000000000000000000000000000000000000000000602082015250565b6000613c1f602b836130ff565b9150613c2a82613bc3565b604082019050919050565b60006020820190508181036000830152613c4e81613c12565b9050919050565b7f416363657373436f6e74726f6c3a2063616e206f6e6c792072656e6f756e636560008201527f20726f6c657320666f722073656c660000000000000000000000000000000000602082015250565b6000613cb1602f836130ff565b9150613cbc82613c55565b604082019050919050565b60006020820190508181036000830152613ce081613ca4565b9050919050565b7f5061757361626c653a2070617573656400000000000000000000000000000000600082015250565b6000613d1d6010836130ff565b9150613d2882613ce7565b602082019050919050565b60006020820190508181036000830152613d4c81613d10565b9050919050565b6000604082019050613d6860008301856132da565b613d756020830184613244565b9392505050565b7f455243373231456e756d657261626c653a20676c6f62616c20696e646578206f60008201527f7574206f6620626f756e64730000000000000000000000000000000000000000602082015250565b6000613dd8602c836130ff565b9150613de382613d7c565b604082019050919050565b60006020820190508181036000830152613e0781613dcb565b9050919050565b7f4e487b7100000000000000000000000000000000000000000000000000000000600052603260045260246000fd5b7f4552433732313a206f776e657220717565727920666f72206e6f6e657869737460008201527f656e7420746f6b656e0000000000000000000000000000000000000000000000602082015250565b6000613e996029836130ff565b9150613ea482613e3d565b604082019050919050565b60006020820190508181036000830152613ec881613e8c565b9050919050565b7f4552433732313a2062616c616e636520717565727920666f7220746865207a6560008201527f726f206164647265737300000000000000000000000000000000000000000000602082015250565b6000613f2b602a836130ff565b9150613f3682613ecf565b604082019050919050565b60006020820190508181036000830152613f5a81613f1e565b9050919050565b7f4552433732313a20617070726f766520746f2063616c6c657200000000000000600082015250565b6000613f976019836130ff565b9150613fa282613f61565b602082019050919050565b60006020820190508181036000830152613fc681613f8a565b9050919050565b7f4552433732313a206f70657261746f7220717565727920666f72206e6f6e657860008201527f697374656e7420746f6b656e0000000000000000000000000000000000000000602082015250565b6000614029602c836130ff565b915061403482613fcd565b604082019050919050565b600060208201905081810360008301526140588161401c565b9050919050565b7f4552433732313a207472616e73666572206f6620746f6b656e2074686174206960008201527f73206e6f74206f776e0000000000000000000000000000000000000000000000602082015250565b60006140bb6029836130ff565b91506140c68261405f565b604082019050919050565b600060208201905081810360008301526140ea816140ae565b9050919050565b7f4552433732313a207472616e7366657220746f20746865207a65726f2061646460008201527f7265737300000000000000000000000000000000000000000000000000000000602082015250565b600061414d6024836130ff565b9150614158826140f1565b604082019050919050565b6000602082019050818103600083015261417c81614140565b9050919050565b7f4e487b7100000000000000000000000000000000000000000000000000000000600052601160045260246000fd5b60006141bd826131af565b91506141c8836131af565b9250828210156141db576141da614183565b5b828203905092915050565b60006141f1826131af565b91506141fc836131af565b9250827fffffffffffffffffffffffffffffffffffffffffffffffffffffffffffffffff0382111561423157614230614183565b5b828201905092915050565b600081905092915050565b7f416363657373436f6e74726f6c3a206163636f756e7420000000000000000000600082015250565b600061427d60178361423c565b915061428882614247565b601782019050919050565b600061429e826130f4565b6142a8818561423c565b93506142b8818560208601613110565b80840191505092915050565b7f206973206d697373696e6720726f6c6520000000000000000000000000000000600082015250565b60006142fa60118361423c565b9150614305826142c4565b601182019050919050565b600061431b82614270565b91506143278285614293565b9150614332826142ed565b915061433e8284614293565b91508190509392505050565b7f5061757361626c653a206e6f7420706175736564000000000000000000000000600082015250565b60006143806014836130ff565b915061438b8261434a565b602082019050919050565b600060208201905081810360008301526143af81614373565b9050919050565b60006143c2838561423c565b93506143cf8385846137d8565b82840190509392505050565b60006143e88284866143b6565b91508190509392505050565b60008190508160005260206000209050919050565b6000815461441681613949565b614420818661423c565b9450600182166000811461443b576001811461444c5761447f565b60ff1983168652818601935061447f565b614455856143f4565b60005b8381101561447757815481890152600182019150602081019050614458565b838801955050505b50505092915050565b60006144948284614409565b915081905092915050565b60006144aa826131af565b91507fffffffffffffffffffffffffffffffffffffffffffffffffffffffffffffffff8214156144dd576144dc614183565b5b600182019050919050565b7f4552433732313a207472616e7366657220746f206e6f6e20455243373231526560008201527f63656976657220696d706c656d656e7465720000000000000000000000000000602082015250565b60006145446032836130ff565b915061454f826144e8565b604082019050919050565b6000602082019050818103600083015261457381614537565b9050919050565b7f45524337323155524953746f726167653a2055524920717565727920666f722060008201527f6e6f6e6578697374656e7420746f6b656e000000000000000000000000000000602082015250565b60006145d66031836130ff565b91506145e18261457a565b604082019050919050565b60006020820190508181036000830152614605816145c9565b9050919050565b60006146188285614293565b91506146248284614293565b91508190509392505050565b600061463b826131af565b9150614646836131af565b9250817fffffffffffffffffffffffffffffffffffffffffffffffffffffffffffffffff048311821515161561467f5761467e614183565b5b828202905092915050565b6000614695826131af565b915060008214156146a9576146a8614183565b5b600182039050919050565b7f537472696e67733a20686578206c656e67746820696e73756666696369656e74600082015250565b60006146ea6020836130ff565b91506146f5826146b4565b602082019050919050565b60006020820190508181036000830152614719816146dd565b9050919050565b600081519050919050565b600082825260208201905092915050565b600061474782614720565b614751818561472b565b9350614761818560208601613110565b61476a81613143565b840191505092915050565b600060808201905061478a6000830187613244565b6147976020830186613244565b6147a460408301856132da565b81810360608301526147b6818461473c565b905095945050505050565b6000815190506147d081613065565b92915050565b6000602082840312156147ec576147eb61302f565b5b60006147fa848285016147c1565b91505092915050565b7f4552433732314d657461646174613a2055524920717565727920666f72206e6f60008201527f6e6578697374656e7420746f6b656e0000000000000000000000000000000000602082015250565b600061485f602f836130ff565b915061486a82614803565b604082019050919050565b6000602082019050818103600083015261488e81614852565b9050919050565b7f4e487b7100000000000000000000000000000000000000000000000000000000600052601260045260246000fd5b60006148cf826131af565b91506148da836131af565b9250826148ea576148e9614895565b5b828204905092915050565b6000614900826131af565b915061490b836131af565b92508261491b5761491a614895565b5b828206905092915050565b7f4e487b7100000000000000000000000000000000000000000000000000000000600052603160045260246000fd5b7f4552433732313a206d696e7420746f20746865207a65726f2061646472657373600082015250565b600061498b6020836130ff565b915061499682614955565b602082019050919050565b600060208201905081810360008301526149ba8161497e565b9050919050565b7f4552433732313a20746f6b656e20616c7265616479206d696e74656400000000600082015250565b60006149f7601c836130ff565b9150614a02826149c1565b602082019050919050565b60006020820190508181036000830152614a26816149ea565b905091905056fe496b6f6e44414f20436f6c6c65637469626c653a20636f6c6c65637469626c65206d75737420626520756e69717565a2646970667358221220e1e34697f18ee8471184b6a3d0a0d6412dd63ad143a94a5b5cf6628d8e78f26564736f6c634300080a0033",
  "immutableReferences": {},
  "source": "// SPDX-License-Identifier: MIT\npragma solidity ^0.8.2;\n\n/// @title The IkonDAO Vectore Collectible - fungible vector art produced by dao members \n/// @author Fernando M. Trouw\n/// @notice this contract should be used for basic simulation purposes only \n/// @notice this contract is an experimental contract and should not be used to initiate project that will hold real value\n/// @dev functions currently implemented (other then imported library) functions could contain side-effects\n\n\nimport \"@openzeppelin/contracts/token/ERC721/ERC721.sol\";\nimport \"@openzeppelin/contracts/token/ERC721/extensions/ERC721Enumerable.sol\";\nimport \"@openzeppelin/contracts/token/ERC721/extensions/ERC721URIStorage.sol\";\nimport \"@openzeppelin/contracts/security/Pausable.sol\";\nimport \"@openzeppelin/contracts/access/AccessControl.sol\";\nimport \"@openzeppelin/contracts/utils/Counters.sol\";\nimport \"./Constants.sol\";\n\n/// @custom:security-contact ftrouw@protonmail.com\ncontract IkonDAOVectorCollectible is ERC721, ERC721Enumerable, ERC721URIStorage, Pausable, AccessControl, Constants {\n    using Counters for Counters.Counter;\n    Counters.Counter private _tokenIdCounter;\n\n    struct Metadata {\n        string image; \n        bytes32 category;\n    }\n\n    struct Category {\n        bytes32 name;\n    }\n\n    mapping(uint256 => Metadata) private tokenMetadata;\n    Category[] private categoryList;\n    mapping(bytes32 => bool) private isCategory; \n\n    address _DAO;  /// maps category to list of tokens that belong to it\n\n    event DaoAddressChanged(address newAddress);\n    event VectorMinted(uint256 tokenId, address receiver);\n\n    constructor(address DAO) ERC721(\"IkonDAO Vector Collectible\", \"IKDVC\") {\n        _setupRole(ADMIN_ROLE, _msgSender());\n        _setRoleAdmin(ADMIN_ROLE, ADMIN_ROLE);\n        _setupRole(PAUSER_ROLE, _msgSender());\n        _setRoleAdmin(PAUSER_ROLE, ADMIN_ROLE);\n        _setupRole(MINTER_ROLE, _msgSender());\n        _setRoleAdmin(MINTER_ROLE, ADMIN_ROLE);\n        _DAO = DAO;\n    }\n\n    function _baseURI() internal pure override returns (string memory) {\n        return \"\";\n    }\n\n    function pause() public onlyRole(PAUSER_ROLE) {\n        _pause();\n    }\n\n    function unpause() public onlyRole(PAUSER_ROLE) {\n        _unpause();\n    }\n\n\n    /// @dev mints nft to a receiver\n    /// @param _to nft receiver\n    function safeMint(address _to) private {\n        _safeMint(_to, _tokenIdCounter.current());\n        _tokenIdCounter.increment();\n    }\n\n    /// @dev mints vector token for the icon dao\n    /// @param _imageHash of vector      \n    /// @param _category category under which the vector falls\n    function safeMintVector(\n        string calldata _imageHash,\n        bytes32 _category\n        ) external onlyRole(MINTER_ROLE) whenNotPaused {\n        \n        uint256 tokenId = _tokenIdCounter.current();\n        if (tokenId != 0){ // only check after minting of the first token\n            require(!isImageTaken(_imageHash), NFT_ALREADY_EXISTS); \n        } \n        \n        /// metadata\n        Metadata memory metadata = Metadata({\n            category: _category,\n            image: _imageHash\n        });\n\n        if (!isCategory[_category]){ \n            \n            safeMint(_DAO); // mint new nft \n            Category memory category = Category({\n                name: _category\n            }); // create new category \n\n            categoryList.push(category);\n            isCategory[_category] = true; // validate category\n            tokenMetadata[tokenId] = metadata; // adds metadata to tokenid\n\n        }  else {\n\n            safeMint(_DAO);\n            tokenMetadata[tokenId] = metadata;\n\n        }\n\n        emit VectorMinted(tokenId, _DAO);\n    }\n\n    /// @dev returns true image hash of a to-be-minted nft already exists\n    /// @param imageHash ipfs hash of the image in in bytes32 format\n    /// @notice this functions acts as an extra check to make sure that only unique vectors (i.e. they must have a unique image hash) can \n    function isImageTaken(string calldata imageHash) private view returns (bool exists) {\n        for (uint i = 0; i < _tokenIdCounter.current(); i++){\n            if (keccak256(abi.encodePacked(tokenMetadata[i].image)) == keccak256(abi.encodePacked(imageHash))){\n                exists = true;\n            }\n        }\n    }\n\n    function getCategories() external view returns (Category[] memory) {\n        return(categoryList);\n    }\n\n    function getMetadata(uint256 tokenId) public view returns (Metadata memory){\n        return (tokenMetadata[tokenId]);\n    }\n    \n    /// @dev returns dao address \n    function getDAOAddress() public view returns (address){\n        return _DAO;\n    }\n\n    /// @dev see _setDaoAddress\n    function setDAOAddress(address newAddress) external onlyRole(ADMIN_ROLE) whenNotPaused {\n        _setDaoAddress(newAddress);\n        emit DaoAddressChanged(newAddress);\n    }\n\n    /// @dev sets new dao address (address to which vectors will belong)\n    /// @param _new is the new address that will own the vectors\n    function _setDaoAddress(address _new) private {\n        _DAO = _new;\n    }\n    \n    function _beforeTokenTransfer(address from, address to, uint256 tokenId)\n        internal\n        whenNotPaused\n        override(ERC721, ERC721Enumerable)\n    {\n        super._beforeTokenTransfer(from, to, tokenId);\n    }\n\n    // The following functions are overrides required by Solidity.\n    function _burn(uint256 tokenId) internal override(ERC721, ERC721URIStorage) onlyRole(ADMIN_ROLE) whenNotPaused {\n        super._burn(tokenId);\n    }\n\n    function tokenURI(uint256 tokenId)\n        public\n        view\n        override(ERC721, ERC721URIStorage)\n        returns (string memory)\n    {\n        return super.tokenURI(tokenId);\n    }\n\n    function supportsInterface(bytes4 interfaceId)\n        public\n        view\n        override(ERC721, ERC721Enumerable, AccessControl)\n        returns (bool)\n    {\n        return super.supportsInterface(interfaceId);\n    }\n}\n",
  "sourcePath": "/home/rasguy92/Documents/blockchain-developer-bootcamp-final-project/contracts/IkonDAOVectorCollectible.sol",
  "compiler": {
    "name": "solc",
    "version": "0.8.10+commit.fc410830.Emscripten.clang"
  },
  "schemaVersion": "3.4.3",
  "updatedAt": "2021-11-30T23:51:19.849Z",
  "networkType": "ethereum",
  "devdoc": {
    "custom:security-contact": "ftrouw@protonmail.com",
    "kind": "dev",
    "methods": {
      "approve(address,uint256)": {
        "details": "See {IERC721-approve}."
      },
      "balanceOf(address)": {
        "details": "See {IERC721-balanceOf}."
      },
      "getApproved(uint256)": {
        "details": "See {IERC721-getApproved}."
      },
      "getDAOAddress()": {
        "details": "returns dao address "
      },
      "getRoleAdmin(bytes32)": {
        "details": "Returns the admin role that controls `role`. See {grantRole} and {revokeRole}. To change a role's admin, use {_setRoleAdmin}."
      },
      "grantRole(bytes32,address)": {
        "details": "Grants `role` to `account`. If `account` had not been already granted `role`, emits a {RoleGranted} event. Requirements: - the caller must have ``role``'s admin role."
      },
      "hasRole(bytes32,address)": {
        "details": "Returns `true` if `account` has been granted `role`."
      },
      "isApprovedForAll(address,address)": {
        "details": "See {IERC721-isApprovedForAll}."
      },
      "name()": {
        "details": "See {IERC721Metadata-name}."
      },
      "ownerOf(uint256)": {
        "details": "See {IERC721-ownerOf}."
      },
      "paused()": {
        "details": "Returns true if the contract is paused, and false otherwise."
      },
      "renounceRole(bytes32,address)": {
        "details": "Revokes `role` from the calling account. Roles are often managed via {grantRole} and {revokeRole}: this function's purpose is to provide a mechanism for accounts to lose their privileges if they are compromised (such as when a trusted device is misplaced). If the calling account had been granted `role`, emits a {RoleRevoked} event. Requirements: - the caller must be `account`."
      },
      "revokeRole(bytes32,address)": {
        "details": "Revokes `role` from `account`. If `account` had been granted `role`, emits a {RoleRevoked} event. Requirements: - the caller must have ``role``'s admin role."
      },
      "safeMintVector(string,bytes32)": {
        "details": "mints vector token for the icon dao",
        "params": {
          "_category": "category under which the vector falls",
          "_imageHash": "of vector      "
        }
      },
      "safeTransferFrom(address,address,uint256)": {
        "details": "See {IERC721-safeTransferFrom}."
      },
      "safeTransferFrom(address,address,uint256,bytes)": {
        "details": "See {IERC721-safeTransferFrom}."
      },
      "setApprovalForAll(address,bool)": {
        "details": "See {IERC721-setApprovalForAll}."
      },
      "setDAOAddress(address)": {
        "details": "see _setDaoAddress"
      },
      "symbol()": {
        "details": "See {IERC721Metadata-symbol}."
      },
      "tokenByIndex(uint256)": {
        "details": "See {IERC721Enumerable-tokenByIndex}."
      },
      "tokenOfOwnerByIndex(address,uint256)": {
        "details": "See {IERC721Enumerable-tokenOfOwnerByIndex}."
      },
      "totalSupply()": {
        "details": "See {IERC721Enumerable-totalSupply}."
      },
      "transferFrom(address,address,uint256)": {
        "details": "See {IERC721-transferFrom}."
      }
    },
    "version": 1
  },
  "userdoc": {
    "events": {
      "DaoAddressChanged(address)": {
        "notice": "maps category to list of tokens that belong to it"
      }
    },
    "kind": "user",
    "methods": {},
    "version": 1
  }
}