{
  "abi": [
    {
      "inputs": [
        {
          "internalType": "contract ERC20Votes",
          "name": "_govToken",
          "type": "address"
        },
        {
          "internalType": "address",
          "name": "_timelock",
          "type": "address"
        },
        {
          "internalType": "uint256",
          "name": "_delay",
          "type": "uint256"
        },
        {
          "internalType": "uint256",
          "name": "_period",
          "type": "uint256"
        }
      ],
      "stateMutability": "nonpayable",
      "type": "constructor"
    },
    {
      "anonymous": false,
      "inputs": [
        {
          "indexed": false,
          "internalType": "uint256",
          "name": "proposalId",
          "type": "uint256"
        }
      ],
      "name": "ProposalCanceled",
      "type": "event"
    },
    {
      "anonymous": false,
      "inputs": [
        {
          "indexed": false,
          "internalType": "uint256",
          "name": "proposalId",
          "type": "uint256"
        },
        {
          "indexed": false,
          "internalType": "address",
          "name": "proposer",
          "type": "address"
        },
        {
          "indexed": false,
          "internalType": "address[]",
          "name": "targets",
          "type": "address[]"
        },
        {
          "indexed": false,
          "internalType": "uint256[]",
          "name": "values",
          "type": "uint256[]"
        },
        {
          "indexed": false,
          "internalType": "string[]",
          "name": "signatures",
          "type": "string[]"
        },
        {
          "indexed": false,
          "internalType": "bytes[]",
          "name": "calldatas",
          "type": "bytes[]"
        },
        {
          "indexed": false,
          "internalType": "uint256",
          "name": "startBlock",
          "type": "uint256"
        },
        {
          "indexed": false,
          "internalType": "uint256",
          "name": "endBlock",
          "type": "uint256"
        },
        {
          "indexed": false,
          "internalType": "string",
          "name": "description",
          "type": "string"
        }
      ],
      "name": "ProposalCreated",
      "type": "event"
    },
    {
      "anonymous": false,
      "inputs": [
        {
          "indexed": false,
          "internalType": "uint256",
          "name": "proposalId",
          "type": "uint256"
        }
      ],
      "name": "ProposalExecuted",
      "type": "event"
    },
    {
      "anonymous": false,
      "inputs": [
        {
          "indexed": false,
          "internalType": "uint256",
          "name": "proposalId",
          "type": "uint256"
        },
        {
          "indexed": false,
          "internalType": "uint256",
          "name": "eta",
          "type": "uint256"
        }
      ],
      "name": "ProposalQueued",
      "type": "event"
    },
    {
      "anonymous": false,
      "inputs": [
        {
          "indexed": false,
          "internalType": "uint256",
          "name": "oldQuorumNumerator",
          "type": "uint256"
        },
        {
          "indexed": false,
          "internalType": "uint256",
          "name": "newQuorumNumerator",
          "type": "uint256"
        }
      ],
      "name": "QuorumNumeratorUpdated",
      "type": "event"
    },
    {
      "anonymous": false,
      "inputs": [
        {
          "indexed": true,
          "internalType": "bytes32",
          "name": "role",
          "type": "bytes32"
        },
        {
          "indexed": true,
          "internalType": "bytes32",
          "name": "previousAdminRole",
          "type": "bytes32"
        },
        {
          "indexed": true,
          "internalType": "bytes32",
          "name": "newAdminRole",
          "type": "bytes32"
        }
      ],
      "name": "RoleAdminChanged",
      "type": "event"
    },
    {
      "anonymous": false,
      "inputs": [
        {
          "indexed": true,
          "internalType": "bytes32",
          "name": "role",
          "type": "bytes32"
        },
        {
          "indexed": true,
          "internalType": "address",
          "name": "account",
          "type": "address"
        },
        {
          "indexed": true,
          "internalType": "address",
          "name": "sender",
          "type": "address"
        }
      ],
      "name": "RoleGranted",
      "type": "event"
    },
    {
      "anonymous": false,
      "inputs": [
        {
          "indexed": true,
          "internalType": "bytes32",
          "name": "role",
          "type": "bytes32"
        },
        {
          "indexed": true,
          "internalType": "address",
          "name": "account",
          "type": "address"
        },
        {
          "indexed": true,
          "internalType": "address",
          "name": "sender",
          "type": "address"
        }
      ],
      "name": "RoleRevoked",
      "type": "event"
    },
    {
      "anonymous": false,
      "inputs": [
        {
          "indexed": false,
          "internalType": "address",
          "name": "oldTimelock",
          "type": "address"
        },
        {
          "indexed": false,
          "internalType": "address",
          "name": "newTimelock",
          "type": "address"
        }
      ],
      "name": "TimelockChange",
      "type": "event"
    },
    {
      "anonymous": false,
      "inputs": [
        {
          "indexed": true,
          "internalType": "address",
          "name": "voter",
          "type": "address"
        },
        {
          "indexed": false,
          "internalType": "uint256",
          "name": "proposalId",
          "type": "uint256"
        },
        {
          "indexed": false,
          "internalType": "uint8",
          "name": "support",
          "type": "uint8"
        },
        {
          "indexed": false,
          "internalType": "uint256",
          "name": "weight",
          "type": "uint256"
        },
        {
          "indexed": false,
          "internalType": "string",
          "name": "reason",
          "type": "string"
        }
      ],
      "name": "VoteCast",
      "type": "event"
    },
    {
      "inputs": [],
      "name": "BALLOT_TYPEHASH",
      "outputs": [
        {
          "internalType": "bytes32",
          "name": "",
          "type": "bytes32"
        }
      ],
      "stateMutability": "view",
      "type": "function",
      "constant": true
    },
    {
      "inputs": [],
      "name": "COUNTING_MODE",
      "outputs": [
        {
          "internalType": "string",
          "name": "",
          "type": "string"
        }
      ],
      "stateMutability": "pure",
      "type": "function",
      "constant": true
    },
    {
      "inputs": [],
      "name": "DEFAULT_ADMIN_ROLE",
      "outputs": [
        {
          "internalType": "bytes32",
          "name": "",
          "type": "bytes32"
        }
      ],
      "stateMutability": "view",
      "type": "function",
      "constant": true
    },
    {
      "inputs": [],
      "name": "_version",
      "outputs": [
        {
          "internalType": "string",
          "name": "",
          "type": "string"
        }
      ],
      "stateMutability": "view",
      "type": "function",
      "constant": true
    },
    {
      "inputs": [
        {
          "internalType": "address[]",
          "name": "targets",
          "type": "address[]"
        },
        {
          "internalType": "uint256[]",
          "name": "values",
          "type": "uint256[]"
        },
        {
          "internalType": "bytes[]",
          "name": "calldatas",
          "type": "bytes[]"
        },
        {
          "internalType": "bytes32",
          "name": "descriptionHash",
          "type": "bytes32"
        }
      ],
      "name": "execute",
      "outputs": [
        {
          "internalType": "uint256",
          "name": "",
          "type": "uint256"
        }
      ],
      "stateMutability": "payable",
      "type": "function",
      "payable": true
    },
    {
      "inputs": [
        {
          "internalType": "bytes32",
          "name": "role",
          "type": "bytes32"
        }
      ],
      "name": "getRoleAdmin",
      "outputs": [
        {
          "internalType": "bytes32",
          "name": "",
          "type": "bytes32"
        }
      ],
      "stateMutability": "view",
      "type": "function",
      "constant": true
    },
    {
      "inputs": [
        {
          "internalType": "bytes32",
          "name": "role",
          "type": "bytes32"
        },
        {
          "internalType": "address",
          "name": "account",
          "type": "address"
        }
      ],
      "name": "grantRole",
      "outputs": [],
      "stateMutability": "nonpayable",
      "type": "function"
    },
    {
      "inputs": [
        {
          "internalType": "bytes32",
          "name": "role",
          "type": "bytes32"
        },
        {
          "internalType": "address",
          "name": "account",
          "type": "address"
        }
      ],
      "name": "hasRole",
      "outputs": [
        {
          "internalType": "bool",
          "name": "",
          "type": "bool"
        }
      ],
      "stateMutability": "view",
      "type": "function",
      "constant": true
    },
    {
      "inputs": [
        {
          "internalType": "uint256",
          "name": "proposalId",
          "type": "uint256"
        },
        {
          "internalType": "address",
          "name": "account",
          "type": "address"
        }
      ],
      "name": "hasVoted",
      "outputs": [
        {
          "internalType": "bool",
          "name": "",
          "type": "bool"
        }
      ],
      "stateMutability": "view",
      "type": "function",
      "constant": true
    },
    {
      "inputs": [
        {
          "internalType": "address[]",
          "name": "targets",
          "type": "address[]"
        },
        {
          "internalType": "uint256[]",
          "name": "values",
          "type": "uint256[]"
        },
        {
          "internalType": "bytes[]",
          "name": "calldatas",
          "type": "bytes[]"
        },
        {
          "internalType": "bytes32",
          "name": "descriptionHash",
          "type": "bytes32"
        }
      ],
      "name": "hashProposal",
      "outputs": [
        {
          "internalType": "uint256",
          "name": "",
          "type": "uint256"
        }
      ],
      "stateMutability": "pure",
      "type": "function",
      "constant": true
    },
    {
      "inputs": [],
      "name": "name",
      "outputs": [
        {
          "internalType": "string",
          "name": "",
          "type": "string"
        }
      ],
      "stateMutability": "view",
      "type": "function",
      "constant": true
    },
    {
      "inputs": [
        {
          "internalType": "uint256",
          "name": "proposalId",
          "type": "uint256"
        }
      ],
      "name": "proposalDeadline",
      "outputs": [
        {
          "internalType": "uint256",
          "name": "",
          "type": "uint256"
        }
      ],
      "stateMutability": "view",
      "type": "function",
      "constant": true
    },
    {
      "inputs": [
        {
          "internalType": "uint256",
          "name": "proposalId",
          "type": "uint256"
        }
      ],
      "name": "proposalEta",
      "outputs": [
        {
          "internalType": "uint256",
          "name": "",
          "type": "uint256"
        }
      ],
      "stateMutability": "view",
      "type": "function",
      "constant": true
    },
    {
      "inputs": [
        {
          "internalType": "uint256",
          "name": "proposalId",
          "type": "uint256"
        }
      ],
      "name": "proposalSnapshot",
      "outputs": [
        {
          "internalType": "uint256",
          "name": "",
          "type": "uint256"
        }
      ],
      "stateMutability": "view",
      "type": "function",
      "constant": true
    },
    {
      "inputs": [
        {
          "internalType": "uint256",
          "name": "proposalId",
          "type": "uint256"
        }
      ],
      "name": "proposalVotes",
      "outputs": [
        {
          "internalType": "uint256",
          "name": "againstVotes",
          "type": "uint256"
        },
        {
          "internalType": "uint256",
          "name": "forVotes",
          "type": "uint256"
        },
        {
          "internalType": "uint256",
          "name": "abstainVotes",
          "type": "uint256"
        }
      ],
      "stateMutability": "view",
      "type": "function",
      "constant": true
    },
    {
      "inputs": [],
      "name": "quorumDenominator",
      "outputs": [
        {
          "internalType": "uint256",
          "name": "",
          "type": "uint256"
        }
      ],
      "stateMutability": "view",
      "type": "function",
      "constant": true
    },
    {
      "inputs": [],
      "name": "quorumNumerator",
      "outputs": [
        {
          "internalType": "uint256",
          "name": "",
          "type": "uint256"
        }
      ],
      "stateMutability": "view",
      "type": "function",
      "constant": true
    },
    {
      "inputs": [
        {
          "internalType": "bytes32",
          "name": "role",
          "type": "bytes32"
        },
        {
          "internalType": "address",
          "name": "account",
          "type": "address"
        }
      ],
      "name": "renounceRole",
      "outputs": [],
      "stateMutability": "nonpayable",
      "type": "function"
    },
    {
      "inputs": [
        {
          "internalType": "bytes32",
          "name": "role",
          "type": "bytes32"
        },
        {
          "internalType": "address",
          "name": "account",
          "type": "address"
        }
      ],
      "name": "revokeRole",
      "outputs": [],
      "stateMutability": "nonpayable",
      "type": "function"
    },
    {
      "inputs": [],
      "name": "timelock",
      "outputs": [
        {
          "internalType": "address",
          "name": "",
          "type": "address"
        }
      ],
      "stateMutability": "view",
      "type": "function",
      "constant": true
    },
    {
      "inputs": [],
      "name": "token",
      "outputs": [
        {
          "internalType": "contract ERC20Votes",
          "name": "",
          "type": "address"
        }
      ],
      "stateMutability": "view",
      "type": "function",
      "constant": true
    },
    {
      "inputs": [
        {
          "internalType": "uint256",
          "name": "newQuorumNumerator",
          "type": "uint256"
        }
      ],
      "name": "updateQuorumNumerator",
      "outputs": [],
      "stateMutability": "nonpayable",
      "type": "function"
    },
    {
      "inputs": [
        {
          "internalType": "contract TimelockController",
          "name": "newTimelock",
          "type": "address"
        }
      ],
      "name": "updateTimelock",
      "outputs": [],
      "stateMutability": "nonpayable",
      "type": "function"
    },
    {
      "inputs": [],
      "name": "version",
      "outputs": [
        {
          "internalType": "string",
          "name": "",
          "type": "string"
        }
      ],
      "stateMutability": "view",
      "type": "function",
      "constant": true
    },
    {
      "inputs": [],
      "name": "votingDelay",
      "outputs": [
        {
          "internalType": "uint256",
          "name": "",
          "type": "uint256"
        }
      ],
      "stateMutability": "view",
      "type": "function",
      "constant": true
    },
    {
      "inputs": [],
      "name": "votingPeriod",
      "outputs": [
        {
          "internalType": "uint256",
          "name": "",
          "type": "uint256"
        }
      ],
      "stateMutability": "view",
      "type": "function",
      "constant": true
    },
    {
      "inputs": [
        {
          "internalType": "uint256",
          "name": "_period",
          "type": "uint256"
        }
      ],
      "name": "setVotingPeriod",
      "outputs": [],
      "stateMutability": "nonpayable",
      "type": "function"
    },
    {
      "inputs": [
        {
          "internalType": "uint256",
          "name": "_delay",
          "type": "uint256"
        }
      ],
      "name": "setVotingDelay",
      "outputs": [],
      "stateMutability": "nonpayable",
      "type": "function"
    },
    {
      "inputs": [
        {
          "internalType": "uint256",
          "name": "proposalId",
          "type": "uint256"
        },
        {
          "internalType": "uint8",
          "name": "support",
          "type": "uint8"
        }
      ],
      "name": "castVote",
      "outputs": [
        {
          "internalType": "uint256",
          "name": "",
          "type": "uint256"
        }
      ],
      "stateMutability": "nonpayable",
      "type": "function"
    },
    {
      "inputs": [
        {
          "internalType": "uint256",
          "name": "proposalId",
          "type": "uint256"
        },
        {
          "internalType": "address",
          "name": "voter",
          "type": "address"
        },
        {
          "internalType": "uint8",
          "name": "support",
          "type": "uint8"
        }
      ],
      "name": "castVote",
      "outputs": [
        {
          "internalType": "uint256",
          "name": "",
          "type": "uint256"
        }
      ],
      "stateMutability": "nonpayable",
      "type": "function"
    },
    {
      "inputs": [
        {
          "internalType": "address[]",
          "name": "targets",
          "type": "address[]"
        },
        {
          "internalType": "uint256[]",
          "name": "values",
          "type": "uint256[]"
        },
        {
          "internalType": "bytes[]",
          "name": "calldatas",
          "type": "bytes[]"
        },
        {
          "internalType": "bytes32",
          "name": "descriptionHash",
          "type": "bytes32"
        }
      ],
      "name": "queue",
      "outputs": [
        {
          "internalType": "uint256",
          "name": "",
          "type": "uint256"
        }
      ],
      "stateMutability": "nonpayable",
      "type": "function"
    },
    {
      "inputs": [
        {
          "internalType": "uint256",
          "name": "proposalId",
          "type": "uint256"
        },
        {
          "internalType": "uint8",
          "name": "support",
          "type": "uint8"
        },
        {
          "internalType": "string",
          "name": "reason",
          "type": "string"
        }
      ],
      "name": "castVoteWithReason",
      "outputs": [
        {
          "internalType": "uint256",
          "name": "",
          "type": "uint256"
        }
      ],
      "stateMutability": "nonpayable",
      "type": "function"
    },
    {
      "inputs": [
        {
          "internalType": "uint256",
          "name": "proposalId",
          "type": "uint256"
        },
        {
          "internalType": "uint8",
          "name": "support",
          "type": "uint8"
        },
        {
          "internalType": "uint8",
          "name": "v",
          "type": "uint8"
        },
        {
          "internalType": "bytes32",
          "name": "r",
          "type": "bytes32"
        },
        {
          "internalType": "bytes32",
          "name": "s",
          "type": "bytes32"
        }
      ],
      "name": "castVoteBySig",
      "outputs": [
        {
          "internalType": "uint256",
          "name": "",
          "type": "uint256"
        }
      ],
      "stateMutability": "nonpayable",
      "type": "function"
    },
    {
      "inputs": [
        {
          "internalType": "uint256",
          "name": "blockNumber",
          "type": "uint256"
        }
      ],
      "name": "quorum",
      "outputs": [
        {
          "internalType": "uint256",
          "name": "",
          "type": "uint256"
        }
      ],
      "stateMutability": "view",
      "type": "function",
      "constant": true
    },
    {
      "inputs": [
        {
          "internalType": "address",
          "name": "account",
          "type": "address"
        },
        {
          "internalType": "uint256",
          "name": "blockNumber",
          "type": "uint256"
        }
      ],
      "name": "getVotes",
      "outputs": [
        {
          "internalType": "uint256",
          "name": "",
          "type": "uint256"
        }
      ],
      "stateMutability": "view",
      "type": "function",
      "constant": true
    },
    {
      "inputs": [
        {
          "internalType": "uint256",
          "name": "proposalId",
          "type": "uint256"
        }
      ],
      "name": "state",
      "outputs": [
        {
          "internalType": "enum IGovernor.ProposalState",
          "name": "",
          "type": "uint8"
        }
      ],
      "stateMutability": "view",
      "type": "function",
      "constant": true
    },
    {
      "inputs": [
        {
          "internalType": "address[]",
          "name": "targets",
          "type": "address[]"
        },
        {
          "internalType": "uint256[]",
          "name": "values",
          "type": "uint256[]"
        },
        {
          "internalType": "bytes[]",
          "name": "calldatas",
          "type": "bytes[]"
        },
        {
          "internalType": "string",
          "name": "description",
          "type": "string"
        }
      ],
      "name": "propose",
      "outputs": [
        {
          "internalType": "uint256",
          "name": "",
          "type": "uint256"
        }
      ],
      "stateMutability": "nonpayable",
      "type": "function"
    },
    {
      "inputs": [
        {
          "internalType": "bytes4",
          "name": "interfaceId",
          "type": "bytes4"
        }
      ],
      "name": "supportsInterface",
      "outputs": [
        {
          "internalType": "bool",
          "name": "",
          "type": "bool"
        }
      ],
      "stateMutability": "view",
      "type": "function",
      "constant": true
    }
  ],
  "bytecode": "0x6101406040523480156200001257600080fd5b506040516200601138038062006011833981810160405281019062000038919062000808565b826004856040518060400160405280600f81526020017f496b6f6e44616f476f7665726e6f72000000000000000000000000000000000081525080620000836200024d60201b60201c565b60008280519060200120905060008280519060200120905060007f8b73c3c69bb8fe3d512ecc4cf759cc79239f7b179b0ffacaa9a75d522b39400f90508260c081815250508160e081815250504660a08181525050620000eb818484620002e760201b60201c565b6080818152505080610100818152505050505050508060009080519060200190620001189291906200066e565b50508073ffffffffffffffffffffffffffffffffffffffff166101208173ffffffffffffffffffffffffffffffffffffffff16815250505062000161816200032360201b60201c565b506200017381620003c560201b60201c565b5081600881905550806009819055506040518060400160405280600581526020017f312e302e3000000000000000000000000000000000000000000000000000000081525060079080519060200190620001cf9291906200066e565b50620002117f0454d691b20de09c741657b57037379cb9a924a8d5d937a8aedf7cda4a999407620002056200046660201b60201c565b6200046e60201b60201c565b620002437f0454d691b20de09c741657b57037379cb9a924a8d5d937a8aedf7cda4a999407806200048460201b60201c565b5050505062000aa2565b6060600780546200025e90620008a9565b80601f01602080910402602001604051908101604052809291908181526020018280546200028c90620008a9565b8015620002dd5780601f10620002b157610100808354040283529160200191620002dd565b820191906000526020600020905b815481529060010190602001808311620002bf57829003601f168201915b5050505050905090565b60008383834630604051602001620003049594939291906200091c565b6040516020818303038152906040528051906020012090509392505050565b62000333620004e860201b60201c565b81111562000378576040517f08c379a00000000000000000000000000000000000000000000000000000000081526004016200036f9062000a26565b60405180910390fd5b60006004549050816004819055507f0553476bf02ef2726e8ce5ced78d63e26e602e4a2257b1f559418e24b46339978183604051620003b992919062000a48565b60405180910390a15050565b7f08f74ea46ef7894f65eabfb5e6e695de773a000b47c529ab559178069b226401600560009054906101000a900473ffffffffffffffffffffffffffffffffffffffff16826040516200041a92919062000a75565b60405180910390a180600560006101000a81548173ffffffffffffffffffffffffffffffffffffffff021916908373ffffffffffffffffffffffffffffffffffffffff16021790555050565b600033905090565b620004808282620004f160201b60201c565b5050565b60006200049783620005e360201b60201c565b90508160026000858152602001908152602001600020600101819055508181847fbd79b86ffe0ab8e8776151514217cd7cacd52c909f66475c3af44e129f0b00ff60405160405180910390a4505050565b60006064905090565b6200050382826200060360201b60201c565b620005df5760016002600084815260200190815260200160002060000160008373ffffffffffffffffffffffffffffffffffffffff1673ffffffffffffffffffffffffffffffffffffffff16815260200190815260200160002060006101000a81548160ff021916908315150217905550620005846200046660201b60201c565b73ffffffffffffffffffffffffffffffffffffffff168173ffffffffffffffffffffffffffffffffffffffff16837f2f8788117e7eff1d82e926ec794901d17c78024a50270940304540a733656f0d60405160405180910390a45b5050565b600060026000838152602001908152602001600020600101549050919050565b60006002600084815260200190815260200160002060000160008373ffffffffffffffffffffffffffffffffffffffff1673ffffffffffffffffffffffffffffffffffffffff16815260200190815260200160002060009054906101000a900460ff16905092915050565b8280546200067c90620008a9565b90600052602060002090601f016020900481019282620006a05760008555620006ec565b82601f10620006bb57805160ff1916838001178555620006ec565b82800160010185558215620006ec579182015b82811115620006eb578251825591602001919060010190620006ce565b5b509050620006fb9190620006ff565b5090565b5b808211156200071a57600081600090555060010162000700565b5090565b600080fd5b600073ffffffffffffffffffffffffffffffffffffffff82169050919050565b6000620007508262000723565b9050919050565b6000620007648262000743565b9050919050565b620007768162000757565b81146200078257600080fd5b50565b60008151905062000796816200076b565b92915050565b620007a78162000743565b8114620007b357600080fd5b50565b600081519050620007c7816200079c565b92915050565b6000819050919050565b620007e281620007cd565b8114620007ee57600080fd5b50565b6000815190506200080281620007d7565b92915050565b600080600080608085870312156200082557620008246200071e565b5b6000620008358782880162000785565b94505060206200084887828801620007b6565b93505060406200085b87828801620007f1565b92505060606200086e87828801620007f1565b91505092959194509250565b7f4e487b7100000000000000000000000000000000000000000000000000000000600052602260045260246000fd5b60006002820490506001821680620008c257607f821691505b60208210811415620008d957620008d86200087a565b5b50919050565b6000819050919050565b620008f481620008df565b82525050565b6200090581620007cd565b82525050565b620009168162000743565b82525050565b600060a082019050620009336000830188620008e9565b620009426020830187620008e9565b620009516040830186620008e9565b620009606060830185620008fa565b6200096f60808301846200090b565b9695505050505050565b600082825260208201905092915050565b7f476f7665726e6f72566f74657351756f72756d4672616374696f6e3a2071756f60008201527f72756d4e756d657261746f72206f7665722071756f72756d44656e6f6d696e6160208201527f746f720000000000000000000000000000000000000000000000000000000000604082015250565b600062000a0e60438362000979565b915062000a1b826200098a565b606082019050919050565b6000602082019050818103600083015262000a4181620009ff565b9050919050565b600060408201905062000a5f6000830185620008fa565b62000a6e6020830184620008fa565b9392505050565b600060408201905062000a8c60008301856200090b565b62000a9b60208301846200090b565b9392505050565b60805160a05160c05160e051610100516101205161551162000b00600039600081816114f701528181612271015261232701526000612cdb01526000612d1d01526000612cfc01526000612c8801526000612cb001526155116000f3fe6080604052600436106102255760003560e01c80637b3c71d311610123578063c59057e4116100ab578063deaaa7cc1161006f578063deaaa7cc146108d0578063ea0217cf146108fb578063eb9019d414610924578063f8ce560a14610961578063fc0c546a1461099e57610225565b8063c59057e4146107d7578063cf8795cc14610814578063d33219b414610851578063d547741f1461087c578063dd4e2ba5146108a557610225565b8063a217fddf116100f2578063a217fddf146106de578063a7713a7014610709578063a890c91014610734578063ab58fb8e1461075d578063c01f9e371461079a57610225565b80637b3c71d3146105fc5780637d5e81e21461063957806391d148541461067657806397c3d334146106b357610225565b806336568abe116101b1578063438596321161017557806343859632146104ef578063544ffc9c1461052c57806354fd4d501461056b578063567813881461059657806370b0f660146105d357610225565b806336568abe146103f65780633932abb11461041f5780633bccf4fd1461044a5780633e118dbe146104875780633e4f49e6146104b257610225565b8063160cbed7116101f8578063160cbed7146102e6578063248a9ca3146103235780632656227d146103605780632d63f693146103905780632f2ff15d146103cd57610225565b806301ffc9a71461022a57806302a251a31461026757806306f3f9e61461029257806306fdde03146102bb575b600080fd5b34801561023657600080fd5b50610251600480360381019061024c919061323e565b6109c9565b60405161025e9190613286565b60405180910390f35b34801561027357600080fd5b5061027c6109db565b60405161028991906132ba565b60405180910390f35b34801561029e57600080fd5b506102b960048036038101906102b49190613301565b6109e5565b005b3480156102c757600080fd5b506102d0610a6d565b6040516102dd91906133c7565b60405180910390f35b3480156102f257600080fd5b5061030d6004803603810190610308919061381e565b610aff565b60405161031a91906132ba565b60405180910390f35b34801561032f57600080fd5b5061034a600480360381019061034591906138d9565b610b4a565b6040516103579190613915565b60405180910390f35b61037a6004803603810190610375919061381e565b610b6a565b60405161038791906132ba565b60405180910390f35b34801561039c57600080fd5b506103b760048036038101906103b29190613301565b610c9d565b6040516103c491906132ba565b60405180910390f35b3480156103d957600080fd5b506103f460048036038101906103ef9190613930565b610d0b565b005b34801561040257600080fd5b5061041d60048036038101906104189190613930565b610d34565b005b34801561042b57600080fd5b50610434610db7565b60405161044191906132ba565b60405180910390f35b34801561045657600080fd5b50610471600480360381019061046c91906139a9565b610dc1565b60405161047e91906132ba565b60405180910390f35b34801561049357600080fd5b5061049c610e0e565b6040516104a991906133c7565b60405180910390f35b3480156104be57600080fd5b506104d960048036038101906104d49190613301565b610e9c565b6040516104e69190613a9b565b60405180910390f35b3480156104fb57600080fd5b5061051660048036038101906105119190613ab6565b610eae565b6040516105239190613286565b60405180910390f35b34801561053857600080fd5b50610553600480360381019061054e9190613301565b610f19565b60405161056293929190613af6565b60405180910390f35b34801561057757600080fd5b50610580610f51565b60405161058d91906133c7565b60405180910390f35b3480156105a257600080fd5b506105bd60048036038101906105b89190613b2d565b610fe3565b6040516105ca91906132ba565b60405180910390f35b3480156105df57600080fd5b506105fa60048036038101906105f59190613301565b61102a565b005b34801561060857600080fd5b50610623600480360381019061061e9190613bc8565b611069565b60405161063091906132ba565b60405180910390f35b34801561064557600080fd5b50610660600480360381019061065b9190613cdd565b6110b4565b60405161066d91906132ba565b60405180910390f35b34801561068257600080fd5b5061069d60048036038101906106989190613930565b6110ff565b6040516106aa9190613286565b60405180910390f35b3480156106bf57600080fd5b506106c861116a565b6040516106d591906132ba565b60405180910390f35b3480156106ea57600080fd5b506106f3611173565b6040516107009190613915565b60405180910390f35b34801561071557600080fd5b5061071e61117a565b60405161072b91906132ba565b60405180910390f35b34801561074057600080fd5b5061075b60048036038101906107569190613e04565b611184565b005b34801561076957600080fd5b50610784600480360381019061077f9190613301565b61120c565b60405161079191906132ba565b60405180910390f35b3480156107a657600080fd5b506107c160048036038101906107bc9190613301565b6112d9565b6040516107ce91906132ba565b60405180910390f35b3480156107e357600080fd5b506107fe60048036038101906107f9919061381e565b611347565b60405161080b91906132ba565b60405180910390f35b34801561082057600080fd5b5061083b60048036038101906108369190613e31565b611383565b60405161084891906132ba565b60405180910390f35b34801561085d57600080fd5b506108666113dc565b6040516108739190613e93565b60405180910390f35b34801561088857600080fd5b506108a3600480360381019061089e9190613930565b611406565b005b3480156108b157600080fd5b506108ba61142f565b6040516108c791906133c7565b60405180910390f35b3480156108dc57600080fd5b506108e561146c565b6040516108f29190613915565b60405180910390f35b34801561090757600080fd5b50610922600480360381019061091d9190613301565b611490565b005b34801561093057600080fd5b5061094b60048036038101906109469190613eae565b6114cf565b60405161095891906132ba565b60405180910390f35b34801561096d57600080fd5b5061098860048036038101906109839190613301565b6114e3565b60405161099591906132ba565b60405180910390f35b3480156109aa57600080fd5b506109b36114f5565b6040516109c09190613f4d565b60405180910390f35b60006109d482611519565b9050919050565b6000600954905090565b6109ed611593565b73ffffffffffffffffffffffffffffffffffffffff16610a0b6115a2565b73ffffffffffffffffffffffffffffffffffffffff1614610a61576040517f08c379a0000000000000000000000000000000000000000000000000000000008152600401610a5890613fb4565b60405180910390fd5b610a6a816115aa565b50565b606060008054610a7c90614003565b80601f0160208091040260200160405190810160405280929190818152602001828054610aa890614003565b8015610af55780601f10610aca57610100808354040283529160200191610af5565b820191906000526020600020905b815481529060010190602001808311610ad857829003601f168201915b5050505050905090565b60007f0454d691b20de09c741657b57037379cb9a924a8d5d937a8aedf7cda4a999407610b3381610b2e6115a2565b61163f565b610b3f868686866116dc565b915050949350505050565b600060026000838152602001908152602001600020600101549050919050565b600080610b7986868686611347565b90506000610b8682610e9c565b905060046007811115610b9c57610b9b613a24565b5b816007811115610baf57610bae613a24565b5b1480610bdf575060056007811115610bca57610bc9613a24565b5b816007811115610bdd57610bdc613a24565b5b145b610c1e576040517f08c379a0000000000000000000000000000000000000000000000000000000008152600401610c15906140a7565b60405180910390fd5b600180600084815260200190815260200160002060020160006101000a81548160ff0219169083151502179055507f712ae1383f79ac853f8d882153778e0260ef8f03b504e2866e0593e04d2b291f82604051610c7b91906132ba565b60405180910390a1610c908288888888611996565b8192505050949350505050565b6000610cfa600160008481526020019081526020016000206000016040518060200160405290816000820160009054906101000a900467ffffffffffffffff1667ffffffffffffffff1667ffffffffffffffff16815250506119aa565b67ffffffffffffffff169050919050565b610d1482610b4a565b610d2581610d206115a2565b61163f565b610d2f83836119b8565b505050565b610d3c6115a2565b73ffffffffffffffffffffffffffffffffffffffff168173ffffffffffffffffffffffffffffffffffffffff1614610da9576040517f08c379a0000000000000000000000000000000000000000000000000000000008152600401610da090614139565b60405180910390fd5b610db38282611a99565b5050565b6000600854905090565b60007f0454d691b20de09c741657b57037379cb9a924a8d5d937a8aedf7cda4a999407610df581610df06115a2565b61163f565b610e028787878787611b7b565b91505095945050505050565b60078054610e1b90614003565b80601f0160208091040260200160405190810160405280929190818152602001828054610e4790614003565b8015610e945780601f10610e6957610100808354040283529160200191610e94565b820191906000526020600020905b815481529060010190602001808311610e7757829003601f168201915b505050505081565b6000610ea782611c05565b9050919050565b60006003600084815260200190815260200160002060030160008373ffffffffffffffffffffffffffffffffffffffff1673ffffffffffffffffffffffffffffffffffffffff16815260200190815260200160002060009054906101000a900460ff16905092915050565b600080600080600360008681526020019081526020016000209050806000015481600101548260020154935093509350509193909250565b606060078054610f6090614003565b80601f0160208091040260200160405190810160405280929190818152602001828054610f8c90614003565b8015610fd95780601f10610fae57610100808354040283529160200191610fd9565b820191906000526020600020905b815481529060010190602001808311610fbc57829003601f168201915b5050505050905090565b60007f0454d691b20de09c741657b57037379cb9a924a8d5d937a8aedf7cda4a999407611017816110126115a2565b61163f565b6110218484611d2d565b91505092915050565b7f0454d691b20de09c741657b57037379cb9a924a8d5d937a8aedf7cda4a99940761105c816110576115a2565b61163f565b61106582611d5e565b5050565b60007f0454d691b20de09c741657b57037379cb9a924a8d5d937a8aedf7cda4a99940761109d816110986115a2565b61163f565b6110a986868686611d68565b915050949350505050565b60007f0454d691b20de09c741657b57037379cb9a924a8d5d937a8aedf7cda4a9994076110e8816110e36115a2565b61163f565b6110f486868686611dd0565b915050949350505050565b60006002600084815260200190815260200160002060000160008373ffffffffffffffffffffffffffffffffffffffff1673ffffffffffffffffffffffffffffffffffffffff16815260200190815260200160002060009054906101000a900460ff16905092915050565b60006064905090565b6000801b81565b6000600454905090565b61118c611593565b73ffffffffffffffffffffffffffffffffffffffff166111aa6115a2565b73ffffffffffffffffffffffffffffffffffffffff1614611200576040517f08c379a00000000000000000000000000000000000000000000000000000000081526004016111f790613fb4565b60405180910390fd5b61120981612070565b50565b600080600560009054906101000a900473ffffffffffffffffffffffffffffffffffffffff1673ffffffffffffffffffffffffffffffffffffffff1663d45c443560066000868152602001908152602001600020546040518263ffffffff1660e01b815260040161127d9190613915565b602060405180830381865afa15801561129a573d6000803e3d6000fd5b505050506040513d601f19601f820116820180604052508101906112be919061416e565b9050600181146112ce57806112d1565b60005b915050919050565b6000611336600160008481526020019081526020016000206001016040518060200160405290816000820160009054906101000a900467ffffffffffffffff1667ffffffffffffffff1667ffffffffffffffff16815250506119aa565b67ffffffffffffffff169050919050565b600084848484604051602001611360949392919061442e565b6040516020818303038152906040528051906020012060001c9050949350505050565b60007f0454d691b20de09c741657b57037379cb9a924a8d5d937a8aedf7cda4a9994076113b7816113b26115a2565b61163f565b6113d28585856040518060200160405280600081525061210f565b9150509392505050565b6000600560009054906101000a900473ffffffffffffffffffffffffffffffffffffffff16905090565b61140f82610b4a565b6114208161141b6115a2565b61163f565b61142a8383611a99565b505050565b60606040518060400160405280602081526020017f737570706f72743d627261766f2671756f72756d3d666f722c6162737461696e815250905090565b7f150214d74d59b7d1e90c73fc22ef3d991dd0a76b046543d4d80ab92d2a50328f81565b7f0454d691b20de09c741657b57037379cb9a924a8d5d937a8aedf7cda4a9994076114c2816114bd6115a2565b61163f565b6114cb82612263565b5050565b60006114db838361226d565b905092915050565b60006114ee82612313565b9050919050565b7f000000000000000000000000000000000000000000000000000000000000000081565b60007f6e665ced000000000000000000000000000000000000000000000000000000007bffffffffffffffffffffffffffffffffffffffffffffffffffffffff1916827bffffffffffffffffffffffffffffffffffffffffffffffffffffffff1916148061158c575061158b826123da565b5b9050919050565b600061159d612454565b905090565b600033905090565b6115b261116a565b8111156115f4576040517f08c379a00000000000000000000000000000000000000000000000000000000081526004016115eb90614520565b60405180910390fd5b60006004549050816004819055507f0553476bf02ef2726e8ce5ced78d63e26e602e4a2257b1f559418e24b46339978183604051611633929190614540565b60405180910390a15050565b61164982826110ff565b6116d85761166e8173ffffffffffffffffffffffffffffffffffffffff16601461247e565b61167c8360001c602061247e565b60405160200161168d92919061463d565b6040516020818303038152906040526040517f08c379a00000000000000000000000000000000000000000000000000000000081526004016116cf91906133c7565b60405180910390fd5b5050565b6000806116eb86868686611347565b90506004600781111561170157611700613a24565b5b61170a82610e9c565b600781111561171c5761171b613a24565b5b1461175c576040517f08c379a0000000000000000000000000000000000000000000000000000000008152600401611753906140a7565b60405180910390fd5b6000600560009054906101000a900473ffffffffffffffffffffffffffffffffffffffff1673ffffffffffffffffffffffffffffffffffffffff1663f27a0c926040518163ffffffff1660e01b8152600401602060405180830381865afa1580156117cb573d6000803e3d6000fd5b505050506040513d601f19601f820116820180604052508101906117ef919061416e565b9050600560009054906101000a900473ffffffffffffffffffffffffffffffffffffffff1673ffffffffffffffffffffffffffffffffffffffff1663b1c5f4278888886000896040518663ffffffff1660e01b81526004016118559594939291906146bf565b602060405180830381865afa158015611872573d6000803e3d6000fd5b505050506040513d601f19601f82011682018060405250810190611896919061473c565b6006600084815260200190815260200160002081905550600560009054906101000a900473ffffffffffffffffffffffffffffffffffffffff1673ffffffffffffffffffffffffffffffffffffffff16638f2a0bb0888888600089876040518763ffffffff1660e01b815260040161191396959493929190614769565b600060405180830381600087803b15801561192d57600080fd5b505af1158015611941573d6000803e3d6000fd5b505050507f9a2e42fd6722813d69113e7d0079d3d940171428df7373df9c7f7617cfda2892828242611973919061480e565b604051611981929190614540565b60405180910390a18192505050949350505050565b6119a385858585856126ba565b5050505050565b600081600001519050919050565b6119c282826110ff565b611a955760016002600084815260200190815260200160002060000160008373ffffffffffffffffffffffffffffffffffffffff1673ffffffffffffffffffffffffffffffffffffffff16815260200190815260200160002060006101000a81548160ff021916908315150217905550611a3a6115a2565b73ffffffffffffffffffffffffffffffffffffffff168173ffffffffffffffffffffffffffffffffffffffff16837f2f8788117e7eff1d82e926ec794901d17c78024a50270940304540a733656f0d60405160405180910390a45b5050565b611aa382826110ff565b15611b775760006002600084815260200190815260200160002060000160008373ffffffffffffffffffffffffffffffffffffffff1673ffffffffffffffffffffffffffffffffffffffff16815260200190815260200160002060006101000a81548160ff021916908315150217905550611b1c6115a2565b73ffffffffffffffffffffffffffffffffffffffff168173ffffffffffffffffffffffffffffffffffffffff16837ff6391f5c32d9c69d2a47ea670b442974b53935d1edc7fd64eb21e047a839171b60405160405180910390a45b5050565b600080611bdc611bd47f150214d74d59b7d1e90c73fc22ef3d991dd0a76b046543d4d80ab92d2a50328f8989604051602001611bb993929190614873565b60405160208183030381529060405280519060200120612758565b868686612772565b9050611bf98782886040518060200160405280600081525061210f565b91505095945050505050565b600080611c118361279d565b905060046007811115611c2757611c26613a24565b5b816007811115611c3a57611c39613a24565b5b14611c485780915050611d28565b6000600660008581526020019081526020016000205490506000801b811415611c75578192505050611d28565b600560009054906101000a900473ffffffffffffffffffffffffffffffffffffffff1673ffffffffffffffffffffffffffffffffffffffff16632ab0f529826040518263ffffffff1660e01b8152600401611cd09190613915565b602060405180830381865afa158015611ced573d6000803e3d6000fd5b505050506040513d601f19601f82011682018060405250810190611d1191906148d6565b15611d2157600792505050611d28565b6005925050505b919050565b600080611d386115a2565b9050611d558482856040518060200160405280600081525061210f565b91505092915050565b8060088190555050565b600080611d736115a2565b9050611dc586828787878080601f016020809104026020016040519081016040528093929190818152602001838380828437600081840152601f19601f8201169050808301925050505050505061210f565b915050949350505050565b600080611de68686868680519060200120611347565b90508451865114611e2c576040517f08c379a0000000000000000000000000000000000000000000000000000000008152600401611e2390614975565b60405180910390fd5b8351865114611e70576040517f08c379a0000000000000000000000000000000000000000000000000000000008152600401611e6790614975565b60405180910390fd5b6000865111611eb4576040517f08c379a0000000000000000000000000000000000000000000000000000000008152600401611eab906149e1565b60405180910390fd5b6000600160008381526020019081526020016000209050611f14816000016040518060200160405290816000820160009054906101000a900467ffffffffffffffff1667ffffffffffffffff1667ffffffffffffffff1681525050612964565b611f53576040517f08c379a0000000000000000000000000000000000000000000000000000000008152600401611f4a90614a73565b60405180910390fd5b6000611f65611f60610db7565b61297e565b611f6e4361297e565b611f789190614aa7565b90506000611f8c611f876109db565b61297e565b82611f979190614aa7565b9050611faf82846000016129d590919063ffffffff16565b611fc581846001016129d590919063ffffffff16565b7f7d84a6263ae0d98d3329bd7b46bb4e8d6f98cd35a7adb45c274c8b7fd5ebd5e084611fef6115a2565b8b8b8d5167ffffffffffffffff81111561200c5761200b6133ee565b5b60405190808252806020026020018201604052801561203f57816020015b606081526020019060019003908161202a5790505b508c88888e60405161205999989796959493929190614c22565b60405180910390a183945050505050949350505050565b7f08f74ea46ef7894f65eabfb5e6e695de773a000b47c529ab559178069b226401600560009054906101000a900473ffffffffffffffffffffffffffffffffffffffff16826040516120c3929190614cd2565b60405180910390a180600560006101000a81548173ffffffffffffffffffffffffffffffffffffffff021916908373ffffffffffffffffffffffffffffffffffffffff16021790555050565b6000806001600087815260200190815260200160002090506001600781111561213b5761213a613a24565b5b61214487610e9c565b600781111561215657612155613a24565b5b14612196576040517f08c379a000000000000000000000000000000000000000000000000000000000815260040161218d90614d6d565b60405180910390fd5b60006121f4866121e5846000016040518060200160405290816000820160009054906101000a900467ffffffffffffffff1667ffffffffffffffff1667ffffffffffffffff16815250506119aa565b67ffffffffffffffff166114cf565b905061220287878784612a04565b8573ffffffffffffffffffffffffffffffffffffffff167fb8e138887d0aa13bab447e82de9d5c1777041ecd21ca36ba824ff1e6c07ddda48887848860405161224e9493929190614d8d565b60405180910390a28092505050949350505050565b8060098190555050565b60007f000000000000000000000000000000000000000000000000000000000000000073ffffffffffffffffffffffffffffffffffffffff16633a46b1a884846040518363ffffffff1660e01b81526004016122ca929190614dd9565b602060405180830381865afa1580156122e7573d6000803e3d6000fd5b505050506040513d601f19601f8201168201806040525081019061230b919061416e565b905092915050565b600061231d61116a565b61232561117a565b7f000000000000000000000000000000000000000000000000000000000000000073ffffffffffffffffffffffffffffffffffffffff16638e539e8c856040518263ffffffff1660e01b815260040161237e91906132ba565b602060405180830381865afa15801561239b573d6000803e3d6000fd5b505050506040513d601f19601f820116820180604052508101906123bf919061416e565b6123c99190614e02565b6123d39190614e8b565b9050919050565b60007f7965db0b000000000000000000000000000000000000000000000000000000007bffffffffffffffffffffffffffffffffffffffffffffffffffffffff1916827bffffffffffffffffffffffffffffffffffffffffffffffffffffffff1916148061244d575061244c82612c0a565b5b9050919050565b6000600560009054906101000a900473ffffffffffffffffffffffffffffffffffffffff16905090565b6060600060028360026124919190614e02565b61249b919061480e565b67ffffffffffffffff8111156124b4576124b36133ee565b5b6040519080825280601f01601f1916602001820160405280156124e65781602001600182028036833780820191505090505b5090507f30000000000000000000000000000000000000000000000000000000000000008160008151811061251e5761251d614ebc565b5b60200101907effffffffffffffffffffffffffffffffffffffffffffffffffffffffffffff1916908160001a9053507f78000000000000000000000000000000000000000000000000000000000000008160018151811061258257612581614ebc565b5b60200101907effffffffffffffffffffffffffffffffffffffffffffffffffffffffffffff1916908160001a905350600060018460026125c29190614e02565b6125cc919061480e565b90505b600181111561266c577f3031323334353637383961626364656600000000000000000000000000000000600f86166010811061260e5761260d614ebc565b5b1a60f81b82828151811061262557612624614ebc565b5b60200101907effffffffffffffffffffffffffffffffffffffffffffffffffffffffffffff1916908160001a905350600485901c94508061266590614eeb565b90506125cf565b50600084146126b0576040517f08c379a00000000000000000000000000000000000000000000000000000000081526004016126a790614f61565b60405180910390fd5b8091505092915050565b600560009054906101000a900473ffffffffffffffffffffffffffffffffffffffff1673ffffffffffffffffffffffffffffffffffffffff1663e38335e5348686866000876040518763ffffffff1660e01b815260040161271f9594939291906146bf565b6000604051808303818588803b15801561273857600080fd5b505af115801561274c573d6000803e3d6000fd5b50505050505050505050565b600061276b612765612c84565b83612d47565b9050919050565b600080600061278387878787612d7a565b9150915061279081612e87565b8192505050949350505050565b60008060016000848152602001908152602001600020604051806080016040529081600082016040518060200160405290816000820160009054906101000a900467ffffffffffffffff1667ffffffffffffffff1667ffffffffffffffff16815250508152602001600182016040518060200160405290816000820160009054906101000a900467ffffffffffffffff1667ffffffffffffffff1667ffffffffffffffff168152505081526020016002820160009054906101000a900460ff161515151581526020016002820160019054906101000a900460ff161515151581525050905080604001511561289657600791505061295f565b8060600151156128aa57600291505061295f565b6128b7816000015161305c565b156128c657600091505061295f565b6128d3816020015161305c565b156128e257600191505061295f565b6128ef8160200151613076565b15612924576128fd836130a2565b801561290e575061290d836130e9565b5b61291957600361291c565b60045b91505061295f565b6040517f08c379a000000000000000000000000000000000000000000000000000000000815260040161295690614fcd565b60405180910390fd5b919050565b600080826000015167ffffffffffffffff16149050919050565b600067ffffffffffffffff80168211156129cd576040517f08c379a00000000000000000000000000000000000000000000000000000000081526004016129c49061505f565b60405180910390fd5b819050919050565b808260000160006101000a81548167ffffffffffffffff021916908367ffffffffffffffff1602179055505050565b60006003600086815260200190815260200160002090508060030160008573ffffffffffffffffffffffffffffffffffffffff1673ffffffffffffffffffffffffffffffffffffffff16815260200190815260200160002060009054906101000a900460ff1615612aaa576040517f08c379a0000000000000000000000000000000000000000000000000000000008152600401612aa1906150f1565b60405180910390fd5b60018160030160008673ffffffffffffffffffffffffffffffffffffffff1673ffffffffffffffffffffffffffffffffffffffff16815260200190815260200160002060006101000a81548160ff02191690831515021790555060006002811115612b1857612b17613a24565b5b60ff168360ff161415612b455781816000016000828254612b39919061480e565b92505081905550612c03565b60016002811115612b5957612b58613a24565b5b60ff168360ff161415612b865781816001016000828254612b7a919061480e565b92505081905550612c02565b600280811115612b9957612b98613a24565b5b60ff168360ff161415612bc65781816002016000828254612bba919061480e565b92505081905550612c01565b6040517f08c379a0000000000000000000000000000000000000000000000000000000008152600401612bf890615183565b60405180910390fd5b5b5b5050505050565b60007fbf26d897000000000000000000000000000000000000000000000000000000007bffffffffffffffffffffffffffffffffffffffffffffffffffffffff1916827bffffffffffffffffffffffffffffffffffffffffffffffffffffffff19161480612c7d5750612c7c82613114565b5b9050919050565b60007f0000000000000000000000000000000000000000000000000000000000000000461415612cd6577f00000000000000000000000000000000000000000000000000000000000000009050612d44565b612d417f00000000000000000000000000000000000000000000000000000000000000007f00000000000000000000000000000000000000000000000000000000000000007f000000000000000000000000000000000000000000000000000000000000000061317e565b90505b90565b60008282604051602001612d5c929190615210565b60405160208183030381529060405280519060200120905092915050565b6000807f7fffffffffffffffffffffffffffffff5d576e7357a4501ddfe92f46681b20a08360001c1115612db5576000600391509150612e7e565b601b8560ff1614158015612dcd5750601c8560ff1614155b15612ddf576000600491509150612e7e565b600060018787878760405160008152602001604052604051612e049493929190615247565b6020604051602081039080840390855afa158015612e26573d6000803e3d6000fd5b505050602060405103519050600073ffffffffffffffffffffffffffffffffffffffff168173ffffffffffffffffffffffffffffffffffffffff161415612e7557600060019250925050612e7e565b80600092509250505b94509492505050565b60006004811115612e9b57612e9a613a24565b5b816004811115612eae57612ead613a24565b5b1415612eb957613059565b60016004811115612ecd57612ecc613a24565b5b816004811115612ee057612edf613a24565b5b1415612f21576040517f08c379a0000000000000000000000000000000000000000000000000000000008152600401612f18906152d8565b60405180910390fd5b60026004811115612f3557612f34613a24565b5b816004811115612f4857612f47613a24565b5b1415612f89576040517f08c379a0000000000000000000000000000000000000000000000000000000008152600401612f8090615344565b60405180910390fd5b60036004811115612f9d57612f9c613a24565b5b816004811115612fb057612faf613a24565b5b1415612ff1576040517f08c379a0000000000000000000000000000000000000000000000000000000008152600401612fe8906153d6565b60405180910390fd5b60048081111561300457613003613a24565b5b81600481111561301757613016613a24565b5b1415613058576040517f08c379a000000000000000000000000000000000000000000000000000000000815260040161304f90615468565b60405180910390fd5b5b50565b600043826000015167ffffffffffffffff16119050919050565b6000613081826131b8565b801561309b575043826000015167ffffffffffffffff1611155b9050919050565b600080600360008481526020019081526020016000209050806002015481600101546130ce919061480e565b6130df6130da85610c9d565b6114e3565b1115915050919050565b6000806003600084815260200190815260200160002090508060000154816001015411915050919050565b60007f01ffc9a7000000000000000000000000000000000000000000000000000000007bffffffffffffffffffffffffffffffffffffffffffffffffffffffff1916827bffffffffffffffffffffffffffffffffffffffffffffffffffffffff1916149050919050565b60008383834630604051602001613199959493929190615488565b6040516020818303038152906040528051906020012090509392505050565b600080826000015167ffffffffffffffff16119050919050565b6000604051905090565b600080fd5b600080fd5b60007fffffffff0000000000000000000000000000000000000000000000000000000082169050919050565b61321b816131e6565b811461322657600080fd5b50565b60008135905061323881613212565b92915050565b600060208284031215613254576132536131dc565b5b600061326284828501613229565b91505092915050565b60008115159050919050565b6132808161326b565b82525050565b600060208201905061329b6000830184613277565b92915050565b6000819050919050565b6132b4816132a1565b82525050565b60006020820190506132cf60008301846132ab565b92915050565b6132de816132a1565b81146132e957600080fd5b50565b6000813590506132fb816132d5565b92915050565b600060208284031215613317576133166131dc565b5b6000613325848285016132ec565b91505092915050565b600081519050919050565b600082825260208201905092915050565b60005b8381101561336857808201518184015260208101905061334d565b83811115613377576000848401525b50505050565b6000601f19601f8301169050919050565b60006133998261332e565b6133a38185613339565b93506133b381856020860161334a565b6133bc8161337d565b840191505092915050565b600060208201905081810360008301526133e1818461338e565b905092915050565b600080fd5b7f4e487b7100000000000000000000000000000000000000000000000000000000600052604160045260246000fd5b6134268261337d565b810181811067ffffffffffffffff82111715613445576134446133ee565b5b80604052505050565b60006134586131d2565b9050613464828261341d565b919050565b600067ffffffffffffffff821115613484576134836133ee565b5b602082029050602081019050919050565b600080fd5b600073ffffffffffffffffffffffffffffffffffffffff82169050919050565b60006134c58261349a565b9050919050565b6134d5816134ba565b81146134e057600080fd5b50565b6000813590506134f2816134cc565b92915050565b600061350b61350684613469565b61344e565b9050808382526020820190506020840283018581111561352e5761352d613495565b5b835b81811015613557578061354388826134e3565b845260208401935050602081019050613530565b5050509392505050565b600082601f830112613576576135756133e9565b5b81356135868482602086016134f8565b91505092915050565b600067ffffffffffffffff8211156135aa576135a96133ee565b5b602082029050602081019050919050565b60006135ce6135c98461358f565b61344e565b905080838252602082019050602084028301858111156135f1576135f0613495565b5b835b8181101561361a578061360688826132ec565b8452602084019350506020810190506135f3565b5050509392505050565b600082601f830112613639576136386133e9565b5b81356136498482602086016135bb565b91505092915050565b600067ffffffffffffffff82111561366d5761366c6133ee565b5b602082029050602081019050919050565b600080fd5b600067ffffffffffffffff82111561369e5761369d6133ee565b5b6136a78261337d565b9050602081019050919050565b82818337600083830152505050565b60006136d66136d184613683565b61344e565b9050828152602081018484840111156136f2576136f161367e565b5b6136fd8482856136b4565b509392505050565b600082601f83011261371a576137196133e9565b5b813561372a8482602086016136c3565b91505092915050565b600061374661374184613652565b61344e565b9050808382526020820190506020840283018581111561376957613768613495565b5b835b818110156137b057803567ffffffffffffffff81111561378e5761378d6133e9565b5b80860161379b8982613705565b8552602085019450505060208101905061376b565b5050509392505050565b600082601f8301126137cf576137ce6133e9565b5b81356137df848260208601613733565b91505092915050565b6000819050919050565b6137fb816137e8565b811461380657600080fd5b50565b600081359050613818816137f2565b92915050565b60008060008060808587031215613838576138376131dc565b5b600085013567ffffffffffffffff811115613856576138556131e1565b5b61386287828801613561565b945050602085013567ffffffffffffffff811115613883576138826131e1565b5b61388f87828801613624565b935050604085013567ffffffffffffffff8111156138b0576138af6131e1565b5b6138bc878288016137ba565b92505060606138cd87828801613809565b91505092959194509250565b6000602082840312156138ef576138ee6131dc565b5b60006138fd84828501613809565b91505092915050565b61390f816137e8565b82525050565b600060208201905061392a6000830184613906565b92915050565b60008060408385031215613947576139466131dc565b5b600061395585828601613809565b9250506020613966858286016134e3565b9150509250929050565b600060ff82169050919050565b61398681613970565b811461399157600080fd5b50565b6000813590506139a38161397d565b92915050565b600080600080600060a086880312156139c5576139c46131dc565b5b60006139d3888289016132ec565b95505060206139e488828901613994565b94505060406139f588828901613994565b9350506060613a0688828901613809565b9250506080613a1788828901613809565b9150509295509295909350565b7f4e487b7100000000000000000000000000000000000000000000000000000000600052602160045260246000fd5b60088110613a6457613a63613a24565b5b50565b6000819050613a7582613a53565b919050565b6000613a8582613a67565b9050919050565b613a9581613a7a565b82525050565b6000602082019050613ab06000830184613a8c565b92915050565b60008060408385031215613acd57613acc6131dc565b5b6000613adb858286016132ec565b9250506020613aec858286016134e3565b9150509250929050565b6000606082019050613b0b60008301866132ab565b613b1860208301856132ab565b613b2560408301846132ab565b949350505050565b60008060408385031215613b4457613b436131dc565b5b6000613b52858286016132ec565b9250506020613b6385828601613994565b9150509250929050565b600080fd5b60008083601f840112613b8857613b876133e9565b5b8235905067ffffffffffffffff811115613ba557613ba4613b6d565b5b602083019150836001820283011115613bc157613bc0613495565b5b9250929050565b60008060008060608587031215613be257613be16131dc565b5b6000613bf0878288016132ec565b9450506020613c0187828801613994565b935050604085013567ffffffffffffffff811115613c2257613c216131e1565b5b613c2e87828801613b72565b925092505092959194509250565b600067ffffffffffffffff821115613c5757613c566133ee565b5b613c608261337d565b9050602081019050919050565b6000613c80613c7b84613c3c565b61344e565b905082815260208101848484011115613c9c57613c9b61367e565b5b613ca78482856136b4565b509392505050565b600082601f830112613cc457613cc36133e9565b5b8135613cd4848260208601613c6d565b91505092915050565b60008060008060808587031215613cf757613cf66131dc565b5b600085013567ffffffffffffffff811115613d1557613d146131e1565b5b613d2187828801613561565b945050602085013567ffffffffffffffff811115613d4257613d416131e1565b5b613d4e87828801613624565b935050604085013567ffffffffffffffff811115613d6f57613d6e6131e1565b5b613d7b878288016137ba565b925050606085013567ffffffffffffffff811115613d9c57613d9b6131e1565b5b613da887828801613caf565b91505092959194509250565b6000613dbf8261349a565b9050919050565b6000613dd182613db4565b9050919050565b613de181613dc6565b8114613dec57600080fd5b50565b600081359050613dfe81613dd8565b92915050565b600060208284031215613e1a57613e196131dc565b5b6000613e2884828501613def565b91505092915050565b600080600060608486031215613e4a57613e496131dc565b5b6000613e58868287016132ec565b9350506020613e69868287016134e3565b9250506040613e7a86828701613994565b9150509250925092565b613e8d816134ba565b82525050565b6000602082019050613ea86000830184613e84565b92915050565b60008060408385031215613ec557613ec46131dc565b5b6000613ed3858286016134e3565b9250506020613ee4858286016132ec565b9150509250929050565b6000819050919050565b6000613f13613f0e613f098461349a565b613eee565b61349a565b9050919050565b6000613f2582613ef8565b9050919050565b6000613f3782613f1a565b9050919050565b613f4781613f2c565b82525050565b6000602082019050613f626000830184613f3e565b92915050565b7f476f7665726e6f723a206f6e6c79476f7665726e616e63650000000000000000600082015250565b6000613f9e601883613339565b9150613fa982613f68565b602082019050919050565b60006020820190508181036000830152613fcd81613f91565b9050919050565b7f4e487b7100000000000000000000000000000000000000000000000000000000600052602260045260246000fd5b6000600282049050600182168061401b57607f821691505b6020821081141561402f5761402e613fd4565b5b50919050565b7f476f7665726e6f723a2070726f706f73616c206e6f742073756363657373667560008201527f6c00000000000000000000000000000000000000000000000000000000000000602082015250565b6000614091602183613339565b915061409c82614035565b604082019050919050565b600060208201905081810360008301526140c081614084565b9050919050565b7f416363657373436f6e74726f6c3a2063616e206f6e6c792072656e6f756e636560008201527f20726f6c657320666f722073656c660000000000000000000000000000000000602082015250565b6000614123602f83613339565b915061412e826140c7565b604082019050919050565b6000602082019050818103600083015261415281614116565b9050919050565b600081519050614168816132d5565b92915050565b600060208284031215614184576141836131dc565b5b600061419284828501614159565b91505092915050565b600081519050919050565b600082825260208201905092915050565b6000819050602082019050919050565b6141d0816134ba565b82525050565b60006141e283836141c7565b60208301905092915050565b6000602082019050919050565b60006142068261419b565b61421081856141a6565b935061421b836141b7565b8060005b8381101561424c57815161423388826141d6565b975061423e836141ee565b92505060018101905061421f565b5085935050505092915050565b600081519050919050565b600082825260208201905092915050565b6000819050602082019050919050565b61428e816132a1565b82525050565b60006142a08383614285565b60208301905092915050565b6000602082019050919050565b60006142c482614259565b6142ce8185614264565b93506142d983614275565b8060005b8381101561430a5781516142f18882614294565b97506142fc836142ac565b9250506001810190506142dd565b5085935050505092915050565b600081519050919050565b600082825260208201905092915050565b6000819050602082019050919050565b600081519050919050565b600082825260208201905092915050565b600061436a82614343565b614374818561434e565b935061438481856020860161334a565b61438d8161337d565b840191505092915050565b60006143a4838361435f565b905092915050565b6000602082019050919050565b60006143c482614317565b6143ce8185614322565b9350836020820285016143e085614333565b8060005b8581101561441c57848403895281516143fd8582614398565b9450614408836143ac565b925060208a019950506001810190506143e4565b50829750879550505050505092915050565b6000608082019050818103600083015261444881876141fb565b9050818103602083015261445c81866142b9565b9050818103604083015261447081856143b9565b905061447f6060830184613906565b95945050505050565b7f476f7665726e6f72566f74657351756f72756d4672616374696f6e3a2071756f60008201527f72756d4e756d657261746f72206f7665722071756f72756d44656e6f6d696e6160208201527f746f720000000000000000000000000000000000000000000000000000000000604082015250565b600061450a604383613339565b915061451582614488565b606082019050919050565b60006020820190508181036000830152614539816144fd565b9050919050565b600060408201905061455560008301856132ab565b61456260208301846132ab565b9392505050565b600081905092915050565b7f416363657373436f6e74726f6c3a206163636f756e7420000000000000000000600082015250565b60006145aa601783614569565b91506145b582614574565b601782019050919050565b60006145cb8261332e565b6145d58185614569565b93506145e581856020860161334a565b80840191505092915050565b7f206973206d697373696e6720726f6c6520000000000000000000000000000000600082015250565b6000614627601183614569565b9150614632826145f1565b601182019050919050565b60006146488261459d565b915061465482856145c0565b915061465f8261461a565b915061466b82846145c0565b91508190509392505050565b6000819050919050565b60008160001b9050919050565b60006146a96146a461469f84614677565b614681565b6137e8565b9050919050565b6146b98161468e565b82525050565b600060a08201905081810360008301526146d981886141fb565b905081810360208301526146ed81876142b9565b9050818103604083015261470181866143b9565b905061471060608301856146b0565b61471d6080830184613906565b9695505050505050565b600081519050614736816137f2565b92915050565b600060208284031215614752576147516131dc565b5b600061476084828501614727565b91505092915050565b600060c082019050818103600083015261478381896141fb565b9050818103602083015261479781886142b9565b905081810360408301526147ab81876143b9565b90506147ba60608301866146b0565b6147c76080830185613906565b6147d460a08301846132ab565b979650505050505050565b7f4e487b7100000000000000000000000000000000000000000000000000000000600052601160045260246000fd5b6000614819826132a1565b9150614824836132a1565b9250827fffffffffffffffffffffffffffffffffffffffffffffffffffffffffffffffff03821115614859576148586147df565b5b828201905092915050565b61486d81613970565b82525050565b60006060820190506148886000830186613906565b61489560208301856132ab565b6148a26040830184614864565b949350505050565b6148b38161326b565b81146148be57600080fd5b50565b6000815190506148d0816148aa565b92915050565b6000602082840312156148ec576148eb6131dc565b5b60006148fa848285016148c1565b91505092915050565b7f476f7665726e6f723a20696e76616c69642070726f706f73616c206c656e677460008201527f6800000000000000000000000000000000000000000000000000000000000000602082015250565b600061495f602183613339565b915061496a82614903565b604082019050919050565b6000602082019050818103600083015261498e81614952565b9050919050565b7f476f7665726e6f723a20656d7074792070726f706f73616c0000000000000000600082015250565b60006149cb601883613339565b91506149d682614995565b602082019050919050565b600060208201905081810360008301526149fa816149be565b9050919050565b7f476f7665726e6f723a2070726f706f73616c20616c726561647920657869737460008201527f7300000000000000000000000000000000000000000000000000000000000000602082015250565b6000614a5d602183613339565b9150614a6882614a01565b604082019050919050565b60006020820190508181036000830152614a8c81614a50565b9050919050565b600067ffffffffffffffff82169050919050565b6000614ab282614a93565b9150614abd83614a93565b92508267ffffffffffffffff03821115614ada57614ad96147df565b5b828201905092915050565b600081519050919050565b600082825260208201905092915050565b6000819050602082019050919050565b600082825260208201905092915050565b6000614b2d8261332e565b614b378185614b11565b9350614b4781856020860161334a565b614b508161337d565b840191505092915050565b6000614b678383614b22565b905092915050565b6000602082019050919050565b6000614b8782614ae5565b614b918185614af0565b935083602082028501614ba385614b01565b8060005b85811015614bdf5784840389528151614bc08582614b5b565b9450614bcb83614b6f565b925060208a01995050600181019050614ba7565b50829750879550505050505092915050565b6000614c0c614c07614c0284614a93565b613eee565b6132a1565b9050919050565b614c1c81614bf1565b82525050565b600061012082019050614c38600083018c6132ab565b614c45602083018b613e84565b8181036040830152614c57818a6141fb565b90508181036060830152614c6b81896142b9565b90508181036080830152614c7f8188614b7c565b905081810360a0830152614c9381876143b9565b9050614ca260c0830186614c13565b614caf60e0830185614c13565b818103610100830152614cc2818461338e565b90509a9950505050505050505050565b6000604082019050614ce76000830185613e84565b614cf46020830184613e84565b9392505050565b7f476f7665726e6f723a20766f7465206e6f742063757272656e746c792061637460008201527f6976650000000000000000000000000000000000000000000000000000000000602082015250565b6000614d57602383613339565b9150614d6282614cfb565b604082019050919050565b60006020820190508181036000830152614d8681614d4a565b9050919050565b6000608082019050614da260008301876132ab565b614daf6020830186614864565b614dbc60408301856132ab565b8181036060830152614dce818461338e565b905095945050505050565b6000604082019050614dee6000830185613e84565b614dfb60208301846132ab565b9392505050565b6000614e0d826132a1565b9150614e18836132a1565b9250817fffffffffffffffffffffffffffffffffffffffffffffffffffffffffffffffff0483118215151615614e5157614e506147df565b5b828202905092915050565b7f4e487b7100000000000000000000000000000000000000000000000000000000600052601260045260246000fd5b6000614e96826132a1565b9150614ea1836132a1565b925082614eb157614eb0614e5c565b5b828204905092915050565b7f4e487b7100000000000000000000000000000000000000000000000000000000600052603260045260246000fd5b6000614ef6826132a1565b91506000821415614f0a57614f096147df565b5b600182039050919050565b7f537472696e67733a20686578206c656e67746820696e73756666696369656e74600082015250565b6000614f4b602083613339565b9150614f5682614f15565b602082019050919050565b60006020820190508181036000830152614f7a81614f3e565b9050919050565b7f476f7665726e6f723a20756e6b6e6f776e2070726f706f73616c206964000000600082015250565b6000614fb7601d83613339565b9150614fc282614f81565b602082019050919050565b60006020820190508181036000830152614fe681614faa565b9050919050565b7f53616665436173743a2076616c756520646f65736e27742066697420696e203660008201527f3420626974730000000000000000000000000000000000000000000000000000602082015250565b6000615049602683613339565b915061505482614fed565b604082019050919050565b600060208201905081810360008301526150788161503c565b9050919050565b7f476f7665726e6f72566f74696e6753696d706c653a20766f746520616c72656160008201527f6479206361737400000000000000000000000000000000000000000000000000602082015250565b60006150db602783613339565b91506150e68261507f565b604082019050919050565b6000602082019050818103600083015261510a816150ce565b9050919050565b7f476f7665726e6f72566f74696e6753696d706c653a20696e76616c696420766160008201527f6c756520666f7220656e756d20566f7465547970650000000000000000000000602082015250565b600061516d603583613339565b915061517882615111565b604082019050919050565b6000602082019050818103600083015261519c81615160565b9050919050565b7f1901000000000000000000000000000000000000000000000000000000000000600082015250565b60006151d9600283614569565b91506151e4826151a3565b600282019050919050565b6000819050919050565b61520a615205826137e8565b6151ef565b82525050565b600061521b826151cc565b915061522782856151f9565b60208201915061523782846151f9565b6020820191508190509392505050565b600060808201905061525c6000830187613906565b6152696020830186614864565b6152766040830185613906565b6152836060830184613906565b95945050505050565b7f45434453413a20696e76616c6964207369676e61747572650000000000000000600082015250565b60006152c2601883613339565b91506152cd8261528c565b602082019050919050565b600060208201905081810360008301526152f1816152b5565b9050919050565b7f45434453413a20696e76616c6964207369676e6174757265206c656e67746800600082015250565b600061532e601f83613339565b9150615339826152f8565b602082019050919050565b6000602082019050818103600083015261535d81615321565b9050919050565b7f45434453413a20696e76616c6964207369676e6174757265202773272076616c60008201527f7565000000000000000000000000000000000000000000000000000000000000602082015250565b60006153c0602283613339565b91506153cb82615364565b604082019050919050565b600060208201905081810360008301526153ef816153b3565b9050919050565b7f45434453413a20696e76616c6964207369676e6174757265202776272076616c60008201527f7565000000000000000000000000000000000000000000000000000000000000602082015250565b6000615452602283613339565b915061545d826153f6565b604082019050919050565b6000602082019050818103600083015261548181615445565b9050919050565b600060a08201905061549d6000830188613906565b6154aa6020830187613906565b6154b76040830186613906565b6154c460608301856132ab565b6154d16080830184613e84565b969550505050505056fea2646970667358221220fbcc73b0ab39e5d33dcc24f8b53688766ac9d7ebb19716d2c30158027a83747164736f6c634300080a0033",
  "immutableReferences": {
    "4564": [
      {
        "length": 32,
        "start": 5367
      },
      {
        "length": 32,
        "start": 8817
      },
      {
        "length": 32,
        "start": 8999
      }
    ],
    "9965": [
      {
        "length": 32,
        "start": 11440
      }
    ],
    "9967": [
      {
        "length": 32,
        "start": 11400
      }
    ],
    "9969": [
      {
        "length": 32,
        "start": 11516
      }
    ],
    "9971": [
      {
        "length": 32,
        "start": 11549
      }
    ],
    "9973": [
      {
        "length": 32,
        "start": 11483
      }
    ]
  },
  "source": "// SPDX-License-Identifier: MIT\npragma solidity ^0.8.2;\n\nimport \"@openzeppelin/contracts/governance/Governor.sol\";\nimport \"@openzeppelin/contracts/governance/extensions/GovernorCountingSimple.sol\";\nimport \"@openzeppelin/contracts/governance/extensions/GovernorVotes.sol\";\nimport \"@openzeppelin/contracts/governance/extensions/GovernorVotesQuorumFraction.sol\";\nimport \"@openzeppelin/contracts/governance/extensions/GovernorTimelockControl.sol\";\nimport \"@openzeppelin/contracts/access/AccessControl.sol\";\n\nimport \"./Constants.sol\"; \n\n/// @title Governor module for the IkonDAO\n/// @author Fernando M. Trouw\n/// @notice this contract experimental \n/// @notice this contract is an experimental contract and should not be used to initiate project that will hold real value\n\n/// @custom:security-contact ftrouw@protonmail.com\ncontract IkonDAOGovernor is Governor, AccessControl, GovernorCountingSimple, GovernorVotes, GovernorVotesQuorumFraction, GovernorTimelockControl, Constants {\n\n    // string private _name; \n    string public _version;\n    uint256 private _votingDelay; \n    uint256 private _votingPeriod;\n    uint256 private _owner;  \n\n    constructor(ERC20Votes _govToken, address _timelock, uint256 _delay, uint256 _period)\n        Governor(\"IkonDaoGovernor\")\n        GovernorVotes(_govToken)\n        GovernorVotesQuorumFraction(4)\n        GovernorTimelockControl(TimelockController(payable(_timelock))) \n        \n    {\n        /// contract metadata \n        _votingDelay = _delay;\n        _votingPeriod = _period;\n        _version = \"1.0.0\";\n\n        /// accesscontrol\n        _setupRole(ADMIN_ROLE, _msgSender());\n        _setRoleAdmin(ADMIN_ROLE, ADMIN_ROLE);\n    }\n\n    function version() public view override(Governor, IGovernor) returns (string memory) {\n        return _version;\n    }\n\n    function votingDelay() public view override returns (uint256) {\n        return _votingDelay; // 1 block\n    }\n\n    function votingPeriod() public view override returns (uint256) {\n        return _votingPeriod; // 1 minutes \n    }\n\n    function setVotingPeriod(uint256 _period) external onlyRole(ADMIN_ROLE) {\n        _setVotingPeriod(_period);\n    }\n\n    function _setVotingPeriod(uint256 _period) private {\n        _votingPeriod = _period; \n    }\n\n    function setVotingDelay(uint256 _delay) public onlyRole(ADMIN_ROLE) {\n        _setVotingDelay(_delay); \n    } \n\n    function _setVotingDelay(uint256 _delay) private {\n        _votingDelay = _delay;\n    } \n    \n    /// @dev see IkonDAO{castVote}\n    function castVote(uint256 proposalId, address voter, uint8 support) external onlyRole(ADMIN_ROLE) returns (uint256) {\n        return _castVote(proposalId, voter, support, \"\");\n    }\n\n    /// @dev see IkonDAO{castVote}\n    function castVote(uint256 proposalId, uint8 support) public override(Governor, IGovernor) onlyRole(ADMIN_ROLE) returns(uint256) {\n        return super.castVote(proposalId, support);\n    }\n\n    function queue(\n        address[] memory targets,\n        uint256[] memory values,\n        bytes[] memory calldatas,\n        bytes32 descriptionHash\n    ) public override onlyRole(ADMIN_ROLE) returns (uint256) {\n        return super.queue(targets, values, calldatas, descriptionHash);\n    }\n\n    function castVoteWithReason(\n        uint256 proposalId, \n        uint8 support, \n        string calldata reason) \n        public \n        override(Governor, IGovernor) \n        onlyRole(ADMIN_ROLE) returns(uint256){\n        return super.castVoteWithReason(proposalId, support, reason);\n    }\n\n    function castVoteBySig(\n        uint256 proposalId, \n        uint8 support, \n        uint8 v,\n        bytes32 r, \n        bytes32 s) \n        public \n        override(Governor, IGovernor) \n        onlyRole(ADMIN_ROLE) returns(uint256){\n        return super.castVoteBySig(proposalId, support, v, r, s);\n    }\n\n    // The following functions are overrides required by Solidity.\n    function quorum(uint256 blockNumber)\n        public\n        view\n        override(IGovernor, GovernorVotesQuorumFraction)\n        returns (uint256)\n    {\n        return super.quorum(blockNumber);\n    }\n\n    function getVotes(address account, uint256 blockNumber)\n        public\n        view\n        override(IGovernor, GovernorVotes)\n        returns (uint256)\n    {\n        return super.getVotes(account, blockNumber);\n    }\n\n    function state(uint256 proposalId)\n        public\n        view\n        override(Governor, GovernorTimelockControl)\n        returns (ProposalState)\n    {\n        return super.state(proposalId);\n    }\n    \n    function propose(address[] memory targets, uint256[] memory values, bytes[] memory calldatas, string memory description)\n        public\n        override(Governor, IGovernor) onlyRole(ADMIN_ROLE)\n        returns (uint256)\n    {\n        return super.propose(targets, values, calldatas, description);\n    }\n\n    function _execute(uint256 proposalId, address[] memory targets, uint256[] memory values, bytes[] memory calldatas, bytes32 descriptionHash)\n        internal\n        override(Governor, GovernorTimelockControl)\n    {\n        super._execute(proposalId, targets, values, calldatas, descriptionHash);\n    }\n\n    function _cancel(address[] memory targets, uint256[] memory values, bytes[] memory calldatas, bytes32 descriptionHash)\n        internal\n        override(Governor, GovernorTimelockControl)\n        returns (uint256)\n    {\n        return super._cancel(targets, values, calldatas, descriptionHash);\n    }\n\n    function _executor()\n        internal\n        view\n        override(Governor, GovernorTimelockControl)\n        returns (address)\n    {\n        return super._executor();\n    }\n\n    function supportsInterface(bytes4 interfaceId)\n        public\n        view\n        override(Governor, GovernorTimelockControl, AccessControl)\n        returns (bool)\n    {\n        return super.supportsInterface(interfaceId);\n    }\n\n}\n",
  "sourcePath": "/home/rasguy92/Documents/blockchain-developer-bootcamp-final-project/contracts/IkonDAOGovernor.sol",
  "compiler": {
    "name": "solc",
    "version": "0.8.10+commit.fc410830.Emscripten.clang"
  },
  "schemaVersion": "3.4.3",
  "updatedAt": "2021-11-25T08:44:08.504Z",
  "networkType": "ethereum",
  "devdoc": {
    "custom:security-contact": "ftrouw@protonmail.com",
    "kind": "dev",
    "methods": {
      "COUNTING_MODE()": {
        "details": "See {IGovernor-COUNTING_MODE}."
      },
      "castVote(uint256,address,uint8)": {
        "details": "see IkonDAO{castVote}"
      },
      "castVote(uint256,uint8)": {
        "details": "see IkonDAO{castVote}"
      },
      "execute(address[],uint256[],bytes[],bytes32)": {
        "details": "See {IGovernor-execute}."
      },
      "getRoleAdmin(bytes32)": {
        "details": "Returns the admin role that controls `role`. See {grantRole} and {revokeRole}. To change a role's admin, use {_setRoleAdmin}."
      },
      "grantRole(bytes32,address)": {
        "details": "Grants `role` to `account`. If `account` had not been already granted `role`, emits a {RoleGranted} event. Requirements: - the caller must have ``role``'s admin role."
      },
      "hasRole(bytes32,address)": {
        "details": "Returns `true` if `account` has been granted `role`."
      },
      "hasVoted(uint256,address)": {
        "details": "See {IGovernor-hasVoted}."
      },
      "hashProposal(address[],uint256[],bytes[],bytes32)": {
        "details": "See {IGovernor-hashProposal}. The proposal id is produced by hashing the RLC encoded `targets` array, the `values` array, the `calldatas` array and the descriptionHash (bytes32 which itself is the keccak256 hash of the description string). This proposal id can be produced from the proposal data which is part of the {ProposalCreated} event. It can even be computed in advance, before the proposal is submitted. Note that the chainId and the governor address are not part of the proposal id computation. Consequently, the same proposal (with same operation and same description) will have the same id if submitted on multiple governors accross multiple networks. This also means that in order to execute the same operation twice (on the same governor) the proposer will have to change the description in order to avoid proposal id conflicts."
      },
      "name()": {
        "details": "See {IGovernor-name}."
      },
      "proposalDeadline(uint256)": {
        "details": "See {IGovernor-proposalDeadline}."
      },
      "proposalEta(uint256)": {
        "details": "Public accessor to check the eta of a queued proposal"
      },
      "proposalSnapshot(uint256)": {
        "details": "See {IGovernor-proposalSnapshot}."
      },
      "proposalVotes(uint256)": {
        "details": "Accessor to the internal vote counts."
      },
      "queue(address[],uint256[],bytes[],bytes32)": {
        "details": "Function to queue a proposal to the timelock."
      },
      "renounceRole(bytes32,address)": {
        "details": "Revokes `role` from the calling account. Roles are often managed via {grantRole} and {revokeRole}: this function's purpose is to provide a mechanism for accounts to lose their privileges if they are compromised (such as when a trusted device is misplaced). If the calling account had been granted `role`, emits a {RoleRevoked} event. Requirements: - the caller must be `account`."
      },
      "revokeRole(bytes32,address)": {
        "details": "Revokes `role` from `account`. If `account` had been granted `role`, emits a {RoleRevoked} event. Requirements: - the caller must have ``role``'s admin role."
      },
      "timelock()": {
        "details": "Public accessor to check the address of the timelock"
      },
      "updateTimelock(address)": {
        "details": "Public endpoint to update the underlying timelock instance. Restricted to the timelock itself, so updates must be proposed, scheduled and executed using the {Governor} workflow."
      },
      "votingDelay()": {
        "details": "delay, in number of block, between the proposal is created and the vote starts. This can be increassed to leave time for users to buy voting power, of delegate it, before the voting of a proposal starts."
      },
      "votingPeriod()": {
        "details": "delay, in number of blocks, between the vote start and vote ends. Note: the {votingDelay} can delay the start of the vote. This must be considered when setting the voting duration compared to the voting delay."
      }
    },
    "version": 1
  },
  "userdoc": {
    "kind": "user",
    "methods": {
      "votingDelay()": {
        "notice": "module:user-config"
      },
      "votingPeriod()": {
        "notice": "module:user-config"
      }
    },
    "version": 1
  }
}