{
  "abi": [
    {
      "inputs": [
        {
          "internalType": "uint256",
          "name": "_fraction",
          "type": "uint256"
        },
        {
          "internalType": "address[]",
          "name": "_initialUsers",
          "type": "address[]"
        },
        {
          "internalType": "uint256",
          "name": "_initialVotes",
          "type": "uint256"
        },
        {
          "internalType": "uint256",
          "name": "_baseReward",
          "type": "uint256"
        }
      ],
      "stateMutability": "nonpayable",
      "type": "constructor"
    },
    {
      "anonymous": false,
      "inputs": [
        {
          "indexed": true,
          "internalType": "address",
          "name": "owner",
          "type": "address"
        },
        {
          "indexed": true,
          "internalType": "address",
          "name": "spender",
          "type": "address"
        },
        {
          "indexed": false,
          "internalType": "uint256",
          "name": "value",
          "type": "uint256"
        }
      ],
      "name": "Approval",
      "type": "event"
    },
    {
      "anonymous": false,
      "inputs": [
        {
          "indexed": true,
          "internalType": "address",
          "name": "delegator",
          "type": "address"
        },
        {
          "indexed": true,
          "internalType": "address",
          "name": "fromDelegate",
          "type": "address"
        },
        {
          "indexed": true,
          "internalType": "address",
          "name": "toDelegate",
          "type": "address"
        }
      ],
      "name": "DelegateChanged",
      "type": "event"
    },
    {
      "anonymous": false,
      "inputs": [
        {
          "indexed": true,
          "internalType": "address",
          "name": "delegate",
          "type": "address"
        },
        {
          "indexed": false,
          "internalType": "uint256",
          "name": "previousBalance",
          "type": "uint256"
        },
        {
          "indexed": false,
          "internalType": "uint256",
          "name": "newBalance",
          "type": "uint256"
        }
      ],
      "name": "DelegateVotesChanged",
      "type": "event"
    },
    {
      "anonymous": false,
      "inputs": [
        {
          "indexed": false,
          "internalType": "address",
          "name": "account",
          "type": "address"
        }
      ],
      "name": "Paused",
      "type": "event"
    },
    {
      "anonymous": false,
      "inputs": [
        {
          "indexed": true,
          "internalType": "bytes32",
          "name": "role",
          "type": "bytes32"
        },
        {
          "indexed": true,
          "internalType": "bytes32",
          "name": "previousAdminRole",
          "type": "bytes32"
        },
        {
          "indexed": true,
          "internalType": "bytes32",
          "name": "newAdminRole",
          "type": "bytes32"
        }
      ],
      "name": "RoleAdminChanged",
      "type": "event"
    },
    {
      "anonymous": false,
      "inputs": [
        {
          "indexed": true,
          "internalType": "bytes32",
          "name": "role",
          "type": "bytes32"
        },
        {
          "indexed": true,
          "internalType": "address",
          "name": "account",
          "type": "address"
        },
        {
          "indexed": true,
          "internalType": "address",
          "name": "sender",
          "type": "address"
        }
      ],
      "name": "RoleGranted",
      "type": "event"
    },
    {
      "anonymous": false,
      "inputs": [
        {
          "indexed": true,
          "internalType": "bytes32",
          "name": "role",
          "type": "bytes32"
        },
        {
          "indexed": true,
          "internalType": "address",
          "name": "account",
          "type": "address"
        },
        {
          "indexed": true,
          "internalType": "address",
          "name": "sender",
          "type": "address"
        }
      ],
      "name": "RoleRevoked",
      "type": "event"
    },
    {
      "anonymous": false,
      "inputs": [
        {
          "indexed": false,
          "internalType": "uint256",
          "name": "id",
          "type": "uint256"
        }
      ],
      "name": "Snapshot",
      "type": "event"
    },
    {
      "anonymous": false,
      "inputs": [
        {
          "indexed": true,
          "internalType": "address",
          "name": "from",
          "type": "address"
        },
        {
          "indexed": true,
          "internalType": "address",
          "name": "to",
          "type": "address"
        },
        {
          "indexed": false,
          "internalType": "uint256",
          "name": "value",
          "type": "uint256"
        }
      ],
      "name": "Transfer",
      "type": "event"
    },
    {
      "anonymous": false,
      "inputs": [
        {
          "indexed": false,
          "internalType": "address",
          "name": "account",
          "type": "address"
        }
      ],
      "name": "Unpaused",
      "type": "event"
    },
    {
      "anonymous": false,
      "inputs": [
        {
          "indexed": false,
          "internalType": "address",
          "name": "_receiver",
          "type": "address"
        },
        {
          "indexed": false,
          "internalType": "uint256",
          "name": "_amount",
          "type": "uint256"
        },
        {
          "indexed": false,
          "internalType": "string",
          "name": "message",
          "type": "string"
        }
      ],
      "name": "VotingPowerIncreased",
      "type": "event"
    },
    {
      "anonymous": false,
      "inputs": [
        {
          "indexed": false,
          "internalType": "address",
          "name": "_receiver",
          "type": "address"
        },
        {
          "indexed": false,
          "internalType": "uint256",
          "name": "_amount",
          "type": "uint256"
        },
        {
          "indexed": false,
          "internalType": "string",
          "name": "message",
          "type": "string"
        }
      ],
      "name": "VotingPowerSlashed",
      "type": "event"
    },
    {
      "inputs": [],
      "name": "DEFAULT_ADMIN_ROLE",
      "outputs": [
        {
          "internalType": "bytes32",
          "name": "",
          "type": "bytes32"
        }
      ],
      "stateMutability": "view",
      "type": "function",
      "constant": true
    },
    {
      "inputs": [],
      "name": "DOMAIN_SEPARATOR",
      "outputs": [
        {
          "internalType": "bytes32",
          "name": "",
          "type": "bytes32"
        }
      ],
      "stateMutability": "view",
      "type": "function",
      "constant": true
    },
    {
      "inputs": [
        {
          "internalType": "address",
          "name": "owner",
          "type": "address"
        },
        {
          "internalType": "address",
          "name": "spender",
          "type": "address"
        }
      ],
      "name": "allowance",
      "outputs": [
        {
          "internalType": "uint256",
          "name": "",
          "type": "uint256"
        }
      ],
      "stateMutability": "view",
      "type": "function",
      "constant": true
    },
    {
      "inputs": [
        {
          "internalType": "address",
          "name": "spender",
          "type": "address"
        },
        {
          "internalType": "uint256",
          "name": "amount",
          "type": "uint256"
        }
      ],
      "name": "approve",
      "outputs": [
        {
          "internalType": "bool",
          "name": "",
          "type": "bool"
        }
      ],
      "stateMutability": "nonpayable",
      "type": "function"
    },
    {
      "inputs": [
        {
          "internalType": "address",
          "name": "account",
          "type": "address"
        }
      ],
      "name": "balanceOf",
      "outputs": [
        {
          "internalType": "uint256",
          "name": "",
          "type": "uint256"
        }
      ],
      "stateMutability": "view",
      "type": "function",
      "constant": true
    },
    {
      "inputs": [
        {
          "internalType": "address",
          "name": "account",
          "type": "address"
        },
        {
          "internalType": "uint256",
          "name": "snapshotId",
          "type": "uint256"
        }
      ],
      "name": "balanceOfAt",
      "outputs": [
        {
          "internalType": "uint256",
          "name": "",
          "type": "uint256"
        }
      ],
      "stateMutability": "view",
      "type": "function",
      "constant": true
    },
    {
      "inputs": [
        {
          "internalType": "uint256",
          "name": "amount",
          "type": "uint256"
        }
      ],
      "name": "burn",
      "outputs": [],
      "stateMutability": "nonpayable",
      "type": "function"
    },
    {
      "inputs": [
        {
          "internalType": "address",
          "name": "account",
          "type": "address"
        },
        {
          "internalType": "uint256",
          "name": "amount",
          "type": "uint256"
        }
      ],
      "name": "burnFrom",
      "outputs": [],
      "stateMutability": "nonpayable",
      "type": "function"
    },
    {
      "inputs": [
        {
          "internalType": "address",
          "name": "account",
          "type": "address"
        },
        {
          "internalType": "uint32",
          "name": "pos",
          "type": "uint32"
        }
      ],
      "name": "checkpoints",
      "outputs": [
        {
          "components": [
            {
              "internalType": "uint32",
              "name": "fromBlock",
              "type": "uint32"
            },
            {
              "internalType": "uint224",
              "name": "votes",
              "type": "uint224"
            }
          ],
          "internalType": "struct ERC20Votes.Checkpoint",
          "name": "",
          "type": "tuple"
        }
      ],
      "stateMutability": "view",
      "type": "function",
      "constant": true
    },
    {
      "inputs": [],
      "name": "decimals",
      "outputs": [
        {
          "internalType": "uint8",
          "name": "",
          "type": "uint8"
        }
      ],
      "stateMutability": "view",
      "type": "function",
      "constant": true
    },
    {
      "inputs": [
        {
          "internalType": "address",
          "name": "spender",
          "type": "address"
        },
        {
          "internalType": "uint256",
          "name": "subtractedValue",
          "type": "uint256"
        }
      ],
      "name": "decreaseAllowance",
      "outputs": [
        {
          "internalType": "bool",
          "name": "",
          "type": "bool"
        }
      ],
      "stateMutability": "nonpayable",
      "type": "function"
    },
    {
      "inputs": [
        {
          "internalType": "address",
          "name": "account",
          "type": "address"
        }
      ],
      "name": "delegates",
      "outputs": [
        {
          "internalType": "address",
          "name": "",
          "type": "address"
        }
      ],
      "stateMutability": "view",
      "type": "function",
      "constant": true
    },
    {
      "inputs": [
        {
          "internalType": "uint256",
          "name": "blockNumber",
          "type": "uint256"
        }
      ],
      "name": "getPastTotalSupply",
      "outputs": [
        {
          "internalType": "uint256",
          "name": "",
          "type": "uint256"
        }
      ],
      "stateMutability": "view",
      "type": "function",
      "constant": true
    },
    {
      "inputs": [
        {
          "internalType": "address",
          "name": "account",
          "type": "address"
        },
        {
          "internalType": "uint256",
          "name": "blockNumber",
          "type": "uint256"
        }
      ],
      "name": "getPastVotes",
      "outputs": [
        {
          "internalType": "uint256",
          "name": "",
          "type": "uint256"
        }
      ],
      "stateMutability": "view",
      "type": "function",
      "constant": true
    },
    {
      "inputs": [
        {
          "internalType": "bytes32",
          "name": "role",
          "type": "bytes32"
        }
      ],
      "name": "getRoleAdmin",
      "outputs": [
        {
          "internalType": "bytes32",
          "name": "",
          "type": "bytes32"
        }
      ],
      "stateMutability": "view",
      "type": "function",
      "constant": true
    },
    {
      "inputs": [
        {
          "internalType": "address",
          "name": "account",
          "type": "address"
        }
      ],
      "name": "getVotes",
      "outputs": [
        {
          "internalType": "uint256",
          "name": "",
          "type": "uint256"
        }
      ],
      "stateMutability": "view",
      "type": "function",
      "constant": true
    },
    {
      "inputs": [
        {
          "internalType": "bytes32",
          "name": "role",
          "type": "bytes32"
        },
        {
          "internalType": "address",
          "name": "account",
          "type": "address"
        }
      ],
      "name": "grantRole",
      "outputs": [],
      "stateMutability": "nonpayable",
      "type": "function"
    },
    {
      "inputs": [
        {
          "internalType": "bytes32",
          "name": "role",
          "type": "bytes32"
        },
        {
          "internalType": "address",
          "name": "account",
          "type": "address"
        }
      ],
      "name": "hasRole",
      "outputs": [
        {
          "internalType": "bool",
          "name": "",
          "type": "bool"
        }
      ],
      "stateMutability": "view",
      "type": "function",
      "constant": true
    },
    {
      "inputs": [
        {
          "internalType": "address",
          "name": "spender",
          "type": "address"
        },
        {
          "internalType": "uint256",
          "name": "addedValue",
          "type": "uint256"
        }
      ],
      "name": "increaseAllowance",
      "outputs": [
        {
          "internalType": "bool",
          "name": "",
          "type": "bool"
        }
      ],
      "stateMutability": "nonpayable",
      "type": "function"
    },
    {
      "inputs": [],
      "name": "name",
      "outputs": [
        {
          "internalType": "string",
          "name": "",
          "type": "string"
        }
      ],
      "stateMutability": "view",
      "type": "function",
      "constant": true
    },
    {
      "inputs": [
        {
          "internalType": "address",
          "name": "owner",
          "type": "address"
        }
      ],
      "name": "nonces",
      "outputs": [
        {
          "internalType": "uint256",
          "name": "",
          "type": "uint256"
        }
      ],
      "stateMutability": "view",
      "type": "function",
      "constant": true
    },
    {
      "inputs": [
        {
          "internalType": "address",
          "name": "account",
          "type": "address"
        }
      ],
      "name": "numCheckpoints",
      "outputs": [
        {
          "internalType": "uint32",
          "name": "",
          "type": "uint32"
        }
      ],
      "stateMutability": "view",
      "type": "function",
      "constant": true
    },
    {
      "inputs": [],
      "name": "paused",
      "outputs": [
        {
          "internalType": "bool",
          "name": "",
          "type": "bool"
        }
      ],
      "stateMutability": "view",
      "type": "function",
      "constant": true
    },
    {
      "inputs": [
        {
          "internalType": "address",
          "name": "owner",
          "type": "address"
        },
        {
          "internalType": "address",
          "name": "spender",
          "type": "address"
        },
        {
          "internalType": "uint256",
          "name": "value",
          "type": "uint256"
        },
        {
          "internalType": "uint256",
          "name": "deadline",
          "type": "uint256"
        },
        {
          "internalType": "uint8",
          "name": "v",
          "type": "uint8"
        },
        {
          "internalType": "bytes32",
          "name": "r",
          "type": "bytes32"
        },
        {
          "internalType": "bytes32",
          "name": "s",
          "type": "bytes32"
        }
      ],
      "name": "permit",
      "outputs": [],
      "stateMutability": "nonpayable",
      "type": "function"
    },
    {
      "inputs": [
        {
          "internalType": "bytes32",
          "name": "role",
          "type": "bytes32"
        },
        {
          "internalType": "address",
          "name": "account",
          "type": "address"
        }
      ],
      "name": "renounceRole",
      "outputs": [],
      "stateMutability": "nonpayable",
      "type": "function"
    },
    {
      "inputs": [
        {
          "internalType": "bytes32",
          "name": "role",
          "type": "bytes32"
        },
        {
          "internalType": "address",
          "name": "account",
          "type": "address"
        }
      ],
      "name": "revokeRole",
      "outputs": [],
      "stateMutability": "nonpayable",
      "type": "function"
    },
    {
      "inputs": [
        {
          "internalType": "bytes4",
          "name": "interfaceId",
          "type": "bytes4"
        }
      ],
      "name": "supportsInterface",
      "outputs": [
        {
          "internalType": "bool",
          "name": "",
          "type": "bool"
        }
      ],
      "stateMutability": "view",
      "type": "function",
      "constant": true
    },
    {
      "inputs": [],
      "name": "symbol",
      "outputs": [
        {
          "internalType": "string",
          "name": "",
          "type": "string"
        }
      ],
      "stateMutability": "view",
      "type": "function",
      "constant": true
    },
    {
      "inputs": [],
      "name": "totalSupply",
      "outputs": [
        {
          "internalType": "uint256",
          "name": "",
          "type": "uint256"
        }
      ],
      "stateMutability": "view",
      "type": "function",
      "constant": true
    },
    {
      "inputs": [
        {
          "internalType": "uint256",
          "name": "snapshotId",
          "type": "uint256"
        }
      ],
      "name": "totalSupplyAt",
      "outputs": [
        {
          "internalType": "uint256",
          "name": "",
          "type": "uint256"
        }
      ],
      "stateMutability": "view",
      "type": "function",
      "constant": true
    },
    {
      "inputs": [
        {
          "internalType": "address",
          "name": "recipient",
          "type": "address"
        },
        {
          "internalType": "uint256",
          "name": "amount",
          "type": "uint256"
        }
      ],
      "name": "transfer",
      "outputs": [
        {
          "internalType": "bool",
          "name": "",
          "type": "bool"
        }
      ],
      "stateMutability": "nonpayable",
      "type": "function"
    },
    {
      "inputs": [
        {
          "internalType": "address",
          "name": "sender",
          "type": "address"
        },
        {
          "internalType": "address",
          "name": "recipient",
          "type": "address"
        },
        {
          "internalType": "uint256",
          "name": "amount",
          "type": "uint256"
        }
      ],
      "name": "transferFrom",
      "outputs": [
        {
          "internalType": "bool",
          "name": "",
          "type": "bool"
        }
      ],
      "stateMutability": "nonpayable",
      "type": "function"
    },
    {
      "inputs": [],
      "name": "getWeightLimit",
      "outputs": [
        {
          "internalType": "uint256",
          "name": "",
          "type": "uint256"
        }
      ],
      "stateMutability": "view",
      "type": "function",
      "constant": true
    },
    {
      "inputs": [],
      "name": "getRewardVotes",
      "outputs": [
        {
          "internalType": "uint256",
          "name": "",
          "type": "uint256"
        }
      ],
      "stateMutability": "view",
      "type": "function",
      "constant": true
    },
    {
      "inputs": [
        {
          "internalType": "uint256",
          "name": "newBase",
          "type": "uint256"
        }
      ],
      "name": "setRewardVotes",
      "outputs": [],
      "stateMutability": "nonpayable",
      "type": "function"
    },
    {
      "inputs": [
        {
          "internalType": "address",
          "name": "to",
          "type": "address"
        }
      ],
      "name": "rewardVotes",
      "outputs": [],
      "stateMutability": "nonpayable",
      "type": "function"
    },
    {
      "inputs": [
        {
          "internalType": "address",
          "name": "account",
          "type": "address"
        },
        {
          "internalType": "uint256",
          "name": "amount",
          "type": "uint256"
        }
      ],
      "name": "slashVotes",
      "outputs": [],
      "stateMutability": "nonpayable",
      "type": "function"
    },
    {
      "inputs": [],
      "name": "pause",
      "outputs": [],
      "stateMutability": "nonpayable",
      "type": "function"
    },
    {
      "inputs": [],
      "name": "unpause",
      "outputs": [],
      "stateMutability": "nonpayable",
      "type": "function"
    },
    {
      "inputs": [],
      "name": "snapShot",
      "outputs": [],
      "stateMutability": "nonpayable",
      "type": "function"
    },
    {
      "inputs": [
        {
          "internalType": "address",
          "name": "delgatee",
          "type": "address"
        }
      ],
      "name": "delegate",
      "outputs": [],
      "stateMutability": "pure",
      "type": "function",
      "constant": true
    },
    {
      "inputs": [
        {
          "internalType": "address",
          "name": "delegatee",
          "type": "address"
        },
        {
          "internalType": "uint256",
          "name": "nonce",
          "type": "uint256"
        },
        {
          "internalType": "uint256",
          "name": "expiry",
          "type": "uint256"
        },
        {
          "internalType": "uint8",
          "name": "v",
          "type": "uint8"
        },
        {
          "internalType": "bytes32",
          "name": "r",
          "type": "bytes32"
        },
        {
          "internalType": "bytes32",
          "name": "s",
          "type": "bytes32"
        }
      ],
      "name": "delegateBySig",
      "outputs": [],
      "stateMutability": "pure",
      "type": "function",
      "constant": true
    }
  ],
  "bytecode": "0x6101406040527f6e71edae12b1b97f4d1f60370fef10105fa2faae0126114a169c64845d6126c9610120908152503480156200003a57600080fd5b5060405162007de638038062007de6833981810160405281019062000060919062001b49565b6040518060400160405280601681526020017f496b6f6e44414f476f7665726e616e6365546f6b656e00000000000000000000815250806040518060400160405280600181526020017f31000000000000000000000000000000000000000000000000000000000000008152506040518060400160405280601681526020017f496b6f6e44414f476f7665726e616e6365546f6b656e000000000000000000008152506040518060400160405280600581526020017f20494b444700000000000000000000000000000000000000000000000000000081525081600390805190602001906200015192919062001870565b5080600490805190602001906200016a92919062001870565b5050506000600a60006101000a81548160ff02191690831515021790555060008280519060200120905060008280519060200120905060007f8b73c3c69bb8fe3d512ecc4cf759cc79239f7b179b0ffacaa9a75d522b39400f90508260c081815250508160e081815250504660a08181525050620001f08184846200039760201b60201c565b6080818152505080610100818152505050505050505083600f8190555080601081905550620002467f0454d691b20de09c741657b57037379cb9a924a8d5d937a8aedf7cda4a99940733620003d360201b60201c565b620002787f0454d691b20de09c741657b57037379cb9a924a8d5d937a8aedf7cda4a99940780620003e960201b60201c565b620002aa7fe2ee388674bf803621aa1aa895721341f3e06d0025bb34256e032326917ccbcb33620003d360201b60201c565b620002fc7fe2ee388674bf803621aa1aa895721341f3e06d0025bb34256e032326917ccbcb7f0454d691b20de09c741657b57037379cb9a924a8d5d937a8aedf7cda4a999407620003e960201b60201c565b60005b83518110156200037c576200033884828151811062000323576200032262001bda565b5b6020026020010151846200044d60201b60201c565b6200036684828151811062000352576200035162001bda565b5b6020026020010151620004bb60201b60201c565b8080620003739062001c38565b915050620002ff565b506200038d6200052360201b60201c565b505050506200240d565b60008383834630604051602001620003b495949392919062001cc3565b6040516020818303038152906040528051906020012090509392505050565b620003e582826200057860201b60201c565b5050565b6000620003fc836200066a60201b60201c565b90508160096000858152602001908152602001600020600101819055508181847fbd79b86ffe0ab8e8776151514217cd7cacd52c909f66475c3af44e129f0b00ff60405160405180910390a4505050565b6200045d6200068a60201b60201c565b15620004a0576040517f08c379a0000000000000000000000000000000000000000000000000000000008152600401620004979062001d81565b60405180910390fd5b620004b78282620006a160201b620018cb1760201c565b5050565b620004cb6200068a60201b60201c565b156200050e576040517f08c379a0000000000000000000000000000000000000000000000000000000008152600401620005059062001d81565b60405180910390fd5b6200052081826200075f60201b60201c565b50565b7f0454d691b20de09c741657b57037379cb9a924a8d5d937a8aedf7cda4a9994076200056581620005596200089160201b60201c565b6200089960201b60201c565b620005756200095d60201b60201c565b50565b6200058a828262000a1560201b60201c565b620006665760016009600084815260200190815260200160002060000160008373ffffffffffffffffffffffffffffffffffffffff1673ffffffffffffffffffffffffffffffffffffffff16815260200190815260200160002060006101000a81548160ff0219169083151502179055506200060b6200089160201b60201c565b73ffffffffffffffffffffffffffffffffffffffff168173ffffffffffffffffffffffffffffffffffffffff16837f2f8788117e7eff1d82e926ec794901d17c78024a50270940304540a733656f0d60405160405180910390a45b5050565b600060096000838152602001908152602001600020600101549050919050565b6000600a60009054906101000a900460ff16905090565b620006b8828262000a8060201b620019581760201c565b620006c862000bf960201b60201c565b7bffffffffffffffffffffffffffffffffffffffffffffffffffffffff16620006f662000c1d60201b60201c565b11156200073a576040517f08c379a0000000000000000000000000000000000000000000000000000000008152600401620007319062001e19565b60405180910390fd5b62000759600e62000c2760201b62001ab8178362000c3f60201b60201c565b50505050565b6000620007728362000ef060201b60201c565b90506000620007878462000f5960201b60201c565b905082600c60008673ffffffffffffffffffffffffffffffffffffffff1673ffffffffffffffffffffffffffffffffffffffff16815260200190815260200160002060006101000a81548173ffffffffffffffffffffffffffffffffffffffff021916908373ffffffffffffffffffffffffffffffffffffffff1602179055508273ffffffffffffffffffffffffffffffffffffffff168273ffffffffffffffffffffffffffffffffffffffff168573ffffffffffffffffffffffffffffffffffffffff167f3134e8a2e6d97e929a7e54011ea5485d7d196dd5f0ba4d4ef95803e8e3fc257f60405160405180910390a46200088b82848362000fa160201b60201c565b50505050565b600033905090565b620008ab828262000a1560201b60201c565b6200095957620008de8173ffffffffffffffffffffffffffffffffffffffff166014620011c460201b62001ace1760201c565b620008f98360001c6020620011c460201b62001ace1760201c565b6040516020016200090c92919062001f5e565b6040516020818303038152906040526040517f08c379a000000000000000000000000000000000000000000000000000000000815260040162000950919062001fe1565b60405180910390fd5b5050565b6200096d6200068a60201b60201c565b15620009b0576040517f08c379a0000000000000000000000000000000000000000000000000000000008152600401620009a79062001d81565b60405180910390fd5b6001600a60006101000a81548160ff0219169083151502179055507f62e78cea01bee320cd4e420270b5ea74000d11b0c9f74754ebdbfc544b05a258620009fc6200089160201b60201c565b60405162000a0b919062002005565b60405180910390a1565b60006009600084815260200190815260200160002060000160008373ffffffffffffffffffffffffffffffffffffffff1673ffffffffffffffffffffffffffffffffffffffff16815260200190815260200160002060009054906101000a900460ff16905092915050565b600073ffffffffffffffffffffffffffffffffffffffff168273ffffffffffffffffffffffffffffffffffffffff16141562000af3576040517f08c379a000000000000000000000000000000000000000000000000000000000815260040162000aea9062002072565b60405180910390fd5b62000b07600083836200141f60201b60201c565b806002600082825462000b1b919062002094565b92505081905550806000808473ffffffffffffffffffffffffffffffffffffffff1673ffffffffffffffffffffffffffffffffffffffff168152602001908152602001600020600082825462000b72919062002094565b925050819055508173ffffffffffffffffffffffffffffffffffffffff16600073ffffffffffffffffffffffffffffffffffffffff167fddf252ad1be2c89b69c2b068fc378daa952ba7f163c4a11628f55a4df523b3ef8360405162000bd99190620020f1565b60405180910390a362000bf5600083836200148f60201b60201c565b5050565b60007bffffffffffffffffffffffffffffffffffffffffffffffffffffffff905090565b6000600254905090565b6000818362000c37919062002094565b905092915050565b6000806000858054905090506000811462000cb4578560018262000c6491906200210e565b8154811062000c785762000c7762001bda565b5b9060005260206000200160000160049054906101000a90047bffffffffffffffffffffffffffffffffffffffffffffffffffffffff1662000cb7565b60005b7bffffffffffffffffffffffffffffffffffffffffffffffffffffffff16925062000ce383858760201c565b915060008111801562000d3c5750438660018362000d0291906200210e565b8154811062000d165762000d1562001bda565b5b9060005260206000200160000160009054906101000a900463ffffffff1663ffffffff16145b1562000ddd5762000d5882620014ac60201b62001d0a1760201c565b8660018362000d6891906200210e565b8154811062000d7c5762000d7b62001bda565b5b9060005260206000200160000160046101000a8154817bffffffffffffffffffffffffffffffffffffffffffffffffffffffff02191690837bffffffffffffffffffffffffffffffffffffffffffffffffffffffff16021790555062000ee7565b85604051806040016040528062000dff436200151a60201b62001d751760201c565b63ffffffff16815260200162000e2085620014ac60201b62001d0a1760201c565b7bffffffffffffffffffffffffffffffffffffffffffffffffffffffff168152509080600181540180825580915050600190039060005260206000200160009091909190915060008201518160000160006101000a81548163ffffffff021916908363ffffffff16021790555060208201518160000160046101000a8154817bffffffffffffffffffffffffffffffffffffffffffffffffffffffff02191690837bffffffffffffffffffffffffffffffffffffffffffffffffffffffff16021790555050505b50935093915050565b6000600c60008373ffffffffffffffffffffffffffffffffffffffff1673ffffffffffffffffffffffffffffffffffffffff16815260200190815260200160002060009054906101000a900473ffffffffffffffffffffffffffffffffffffffff169050919050565b60008060008373ffffffffffffffffffffffffffffffffffffffff1673ffffffffffffffffffffffffffffffffffffffff168152602001908152602001600020549050919050565b8173ffffffffffffffffffffffffffffffffffffffff168373ffffffffffffffffffffffffffffffffffffffff161415801562000fde5750600081115b15620011bf57600073ffffffffffffffffffffffffffffffffffffffff168373ffffffffffffffffffffffffffffffffffffffff1614620010d15760008062001078600d60008773ffffffffffffffffffffffffffffffffffffffff1673ffffffffffffffffffffffffffffffffffffffff1681526020019081526020016000206200157060201b62001dc8178562000c3f60201b60201c565b915091508473ffffffffffffffffffffffffffffffffffffffff167fdec2bacdd2f05b59de34da9b523dff8be42e5e38e818c82fdb0bae774387a7248383604051620010c692919062002149565b60405180910390a250505b600073ffffffffffffffffffffffffffffffffffffffff168273ffffffffffffffffffffffffffffffffffffffff1614620011be5760008062001165600d60008673ffffffffffffffffffffffffffffffffffffffff1673ffffffffffffffffffffffffffffffffffffffff16815260200190815260200160002062000c2760201b62001ab8178562000c3f60201b60201c565b915091508373ffffffffffffffffffffffffffffffffffffffff167fdec2bacdd2f05b59de34da9b523dff8be42e5e38e818c82fdb0bae774387a7248383604051620011b392919062002149565b60405180910390a250505b5b505050565b606060006002836002620011d9919062002176565b620011e5919062002094565b67ffffffffffffffff81111562001201576200120062001985565b5b6040519080825280601f01601f191660200182016040528015620012345781602001600182028036833780820191505090505b5090507f3000000000000000000000000000000000000000000000000000000000000000816000815181106200126f576200126e62001bda565b5b60200101907effffffffffffffffffffffffffffffffffffffffffffffffffffffffffffff1916908160001a9053507f780000000000000000000000000000000000000000000000000000000000000081600181518110620012d657620012d562001bda565b5b60200101907effffffffffffffffffffffffffffffffffffffffffffffffffffffffffffff1916908160001a9053506000600184600262001318919062002176565b62001324919062002094565b90505b6001811115620013ce577f3031323334353637383961626364656600000000000000000000000000000000600f8616601081106200136a576200136962001bda565b5b1a60f81b82828151811062001384576200138362001bda565b5b60200101907effffffffffffffffffffffffffffffffffffffffffffffffffffffffffffff1916908160001a905350600485901c945080620013c690620021d7565b905062001327565b506000841462001415576040517f08c379a00000000000000000000000000000000000000000000000000000000081526004016200140c9062002256565b60405180910390fd5b8091505092915050565b6200142f6200068a60201b60201c565b1562001472576040517f08c379a0000000000000000000000000000000000000000000000000000000008152600401620014699062001d81565b60405180910390fd5b6200148a8383836200158860201b62001dde1760201c565b505050565b620014a78383836200168360201b62001e981760201c565b505050565b60007bffffffffffffffffffffffffffffffffffffffffffffffffffffffff801682111562001512576040517f08c379a00000000000000000000000000000000000000000000000000000000081526004016200150990620022ee565b60405180910390fd5b819050919050565b600063ffffffff801682111562001568576040517f08c379a00000000000000000000000000000000000000000000000000000000081526004016200155f9062002386565b60405180910390fd5b819050919050565b600081836200158091906200210e565b905092915050565b620015a0838383620016d360201b62001ec31760201c565b600073ffffffffffffffffffffffffffffffffffffffff168373ffffffffffffffffffffffffffffffffffffffff161415620015fd57620015e782620016d860201b60201c565b620015f76200173b60201b60201c565b6200167e565b600073ffffffffffffffffffffffffffffffffffffffff168273ffffffffffffffffffffffffffffffffffffffff1614156200165a576200164483620016d860201b60201c565b620016546200173b60201b60201c565b6200167d565b6200166b83620016d860201b60201c565b6200167c82620016d860201b60201c565b5b5b505050565b6200169b8383836200175f60201b62001ec81760201c565b620016ce620016b08462000ef060201b60201c565b620016c18462000ef060201b60201c565b8362000fa160201b60201c565b505050565b505050565b62001738600560008373ffffffffffffffffffffffffffffffffffffffff1673ffffffffffffffffffffffffffffffffffffffff1681526020019081526020016000206200172c8362000f5960201b60201c565b6200176460201b60201c565b50565b6200175d60066200175162000c1d60201b60201c565b6200176460201b60201c565b565b505050565b600062001776620017f060201b60201c565b9050806200178d846000016200180e60201b60201c565b1015620017eb5782600001819080600181540180825580915050600190039060005260206000200160009091909190915055826001018290806001815401808255809150506001900390600052602060002001600090919091909150555b505050565b60006200180960086200186260201b62001ecd1760201c565b905090565b600080828054905014156200182757600090506200185d565b81600183805490506200183b91906200210e565b815481106200184f576200184e62001bda565b5b906000526020600020015490505b919050565b600081600001549050919050565b8280546200187e90620023d7565b90600052602060002090601f016020900481019282620018a25760008555620018ee565b82601f10620018bd57805160ff1916838001178555620018ee565b82800160010185558215620018ee579182015b82811115620018ed578251825591602001919060010190620018d0565b5b509050620018fd919062001901565b5090565b5b808211156200191c57600081600090555060010162001902565b5090565b6000604051905090565b600080fd5b600080fd5b6000819050919050565b620019498162001934565b81146200195557600080fd5b50565b60008151905062001969816200193e565b92915050565b600080fd5b6000601f19601f8301169050919050565b7f4e487b7100000000000000000000000000000000000000000000000000000000600052604160045260246000fd5b620019bf8262001974565b810181811067ffffffffffffffff82111715620019e157620019e062001985565b5b80604052505050565b6000620019f662001920565b905062001a048282620019b4565b919050565b600067ffffffffffffffff82111562001a275762001a2662001985565b5b602082029050602081019050919050565b600080fd5b600073ffffffffffffffffffffffffffffffffffffffff82169050919050565b600062001a6a8262001a3d565b9050919050565b62001a7c8162001a5d565b811462001a8857600080fd5b50565b60008151905062001a9c8162001a71565b92915050565b600062001ab962001ab38462001a09565b620019ea565b9050808382526020820190506020840283018581111562001adf5762001ade62001a38565b5b835b8181101562001b0c578062001af7888262001a8b565b84526020840193505060208101905062001ae1565b5050509392505050565b600082601f83011262001b2e5762001b2d6200196f565b5b815162001b4084826020860162001aa2565b91505092915050565b6000806000806080858703121562001b665762001b656200192a565b5b600062001b768782880162001958565b945050602085015167ffffffffffffffff81111562001b9a5762001b996200192f565b5b62001ba88782880162001b16565b935050604062001bbb8782880162001958565b925050606062001bce8782880162001958565b91505092959194509250565b7f4e487b7100000000000000000000000000000000000000000000000000000000600052603260045260246000fd5b7f4e487b7100000000000000000000000000000000000000000000000000000000600052601160045260246000fd5b600062001c458262001934565b91507fffffffffffffffffffffffffffffffffffffffffffffffffffffffffffffffff82141562001c7b5762001c7a62001c09565b5b600182019050919050565b6000819050919050565b62001c9b8162001c86565b82525050565b62001cac8162001934565b82525050565b62001cbd8162001a5d565b82525050565b600060a08201905062001cda600083018862001c90565b62001ce9602083018762001c90565b62001cf8604083018662001c90565b62001d07606083018562001ca1565b62001d16608083018462001cb2565b9695505050505050565b600082825260208201905092915050565b7f5061757361626c653a2070617573656400000000000000000000000000000000600082015250565b600062001d6960108362001d20565b915062001d768262001d31565b602082019050919050565b6000602082019050818103600083015262001d9c8162001d5a565b9050919050565b7f4552433230566f7465733a20746f74616c20737570706c79207269736b73206f60008201527f766572666c6f77696e6720766f74657300000000000000000000000000000000602082015250565b600062001e0160308362001d20565b915062001e0e8262001da3565b604082019050919050565b6000602082019050818103600083015262001e348162001df2565b9050919050565b600081905092915050565b7f416363657373436f6e74726f6c3a206163636f756e7420000000000000000000600082015250565b600062001e7e60178362001e3b565b915062001e8b8262001e46565b601782019050919050565b600081519050919050565b60005b8381101562001ec157808201518184015260208101905062001ea4565b8381111562001ed1576000848401525b50505050565b600062001ee48262001e96565b62001ef0818562001e3b565b935062001f0281856020860162001ea1565b80840191505092915050565b7f206973206d697373696e6720726f6c6520000000000000000000000000000000600082015250565b600062001f4660118362001e3b565b915062001f538262001f0e565b601182019050919050565b600062001f6b8262001e6f565b915062001f79828562001ed7565b915062001f868262001f37565b915062001f94828462001ed7565b91508190509392505050565b600062001fad8262001e96565b62001fb9818562001d20565b935062001fcb81856020860162001ea1565b62001fd68162001974565b840191505092915050565b6000602082019050818103600083015262001ffd818462001fa0565b905092915050565b60006020820190506200201c600083018462001cb2565b92915050565b7f45524332303a206d696e7420746f20746865207a65726f206164647265737300600082015250565b60006200205a601f8362001d20565b9150620020678262002022565b602082019050919050565b600060208201905081810360008301526200208d816200204b565b9050919050565b6000620020a18262001934565b9150620020ae8362001934565b9250827fffffffffffffffffffffffffffffffffffffffffffffffffffffffffffffffff03821115620020e657620020e562001c09565b5b828201905092915050565b600060208201905062002108600083018462001ca1565b92915050565b60006200211b8262001934565b9150620021288362001934565b9250828210156200213e576200213d62001c09565b5b828203905092915050565b600060408201905062002160600083018562001ca1565b6200216f602083018462001ca1565b9392505050565b6000620021838262001934565b9150620021908362001934565b9250817fffffffffffffffffffffffffffffffffffffffffffffffffffffffffffffffff0483118215151615620021cc57620021cb62001c09565b5b828202905092915050565b6000620021e48262001934565b91506000821415620021fb57620021fa62001c09565b5b600182039050919050565b7f537472696e67733a20686578206c656e67746820696e73756666696369656e74600082015250565b60006200223e60208362001d20565b91506200224b8262002206565b602082019050919050565b6000602082019050818103600083015262002271816200222f565b9050919050565b7f53616665436173743a2076616c756520646f65736e27742066697420696e203260008201527f3234206269747300000000000000000000000000000000000000000000000000602082015250565b6000620022d660278362001d20565b9150620022e38262002278565b604082019050919050565b600060208201905081810360008301526200230981620022c7565b9050919050565b7f53616665436173743a2076616c756520646f65736e27742066697420696e203360008201527f3220626974730000000000000000000000000000000000000000000000000000602082015250565b60006200236e60268362001d20565b91506200237b8262002310565b604082019050919050565b60006020820190508181036000830152620023a1816200235f565b9050919050565b7f4e487b7100000000000000000000000000000000000000000000000000000000600052602260045260246000fd5b60006002820490506001821680620023f057607f821691505b60208210811415620024075762002406620023a8565b5b50919050565b60805160a05160c05160e05161010051610120516159896200245d60003960006115c20152600061256e015260006125b00152600061258f0152600061251b0152600061254301526159896000f3fe608060405234801561001057600080fd5b506004361061025e5760003560e01c8063774aa6c411610146578063a457c2d7116100c3578063d41efd7711610087578063d41efd7714610793578063d505accf146107b1578063d547741f146107cd578063dd62ed3e146107e9578063e103864714610819578063f1127ed8146108235761025e565b8063a457c2d7146106df578063a9059cbb1461070f578063c1860b141461073f578063c3cda5201461075b578063caaf3fea146107775761025e565b806391d148541161010a57806391d148541461061357806395d89b4114610643578063981b24d0146106615780639ab24eb014610691578063a217fddf146106c15761025e565b8063774aa6c41461056f57806379cc67901461058d5780637ecebe00146105a95780638456cb59146105d95780638e539e8c146105e35761025e565b806339509351116101df5780634ee2cd7e116101a35780634ee2cd7e14610475578063587cde1e146104a55780635c19a95c146104d55780635c975abb146104f15780636fcfff451461050f57806370a082311461053f5761025e565b806339509351146103d35780633a46b1a8146104035780633f4ba83a1461043357806342966c681461043d57806345d037e2146104595761025e565b8063248a9ca311610226578063248a9ca31461032f5780632f2ff15d1461035f578063313ce5671461037b5780633644e5151461039957806336568abe146103b75761025e565b806301ffc9a71461026357806306fdde0314610293578063095ea7b3146102b157806318160ddd146102e157806323b872dd146102ff575b600080fd5b61027d60048036038101906102789190613cee565b610853565b60405161028a9190613d36565b60405180910390f35b61029b6108cd565b6040516102a89190613dea565b60405180910390f35b6102cb60048036038101906102c69190613ea0565b61095f565b6040516102d89190613d36565b60405180910390f35b6102e961097d565b6040516102f69190613eef565b60405180910390f35b61031960048036038101906103149190613f0a565b610987565b6040516103269190613d36565b60405180910390f35b61034960048036038101906103449190613f93565b610a7f565b6040516103569190613fcf565b60405180910390f35b61037960048036038101906103749190613fea565b610a9f565b005b610383610ac8565b6040516103909190614046565b60405180910390f35b6103a1610ad1565b6040516103ae9190613fcf565b60405180910390f35b6103d160048036038101906103cc9190613fea565b610ae0565b005b6103ed60048036038101906103e89190613ea0565b610b63565b6040516103fa9190613d36565b60405180910390f35b61041d60048036038101906104189190613ea0565b610c0f565b60405161042a9190613eef565b60405180910390f35b61043b610ca3565b005b61045760048036038101906104529190614061565b610ce0565b005b610473600480360381019061046e9190614061565b610cf4565b005b61048f600480360381019061048a9190613ea0565b610d31565b60405161049c9190613eef565b60405180910390f35b6104bf60048036038101906104ba919061408e565b610da1565b6040516104cc91906140ca565b60405180910390f35b6104ef60048036038101906104ea919061408e565b610e0a565b005b6104f9610e45565b6040516105069190613d36565b60405180910390f35b6105296004803603810190610524919061408e565b610e5c565b6040516105369190614104565b60405180910390f35b6105596004803603810190610554919061408e565b610eb0565b6040516105669190613eef565b60405180910390f35b610577610ef8565b6040516105849190613eef565b60405180910390f35b6105a760048036038101906105a29190613ea0565b610f02565b005b6105c360048036038101906105be919061408e565b610f7d565b6040516105d09190613eef565b60405180910390f35b6105e1610fcd565b005b6105fd60048036038101906105f89190614061565b61100a565b60405161060a9190613eef565b60405180910390f35b61062d60048036038101906106289190613fea565b611060565b60405161063a9190613d36565b60405180910390f35b61064b6110cb565b6040516106589190613dea565b60405180910390f35b61067b60048036038101906106769190614061565b61115d565b6040516106889190613eef565b60405180910390f35b6106ab60048036038101906106a6919061408e565b61118e565b6040516106b89190613eef565b60405180910390f35b6106c961129f565b6040516106d69190613fcf565b60405180910390f35b6106f960048036038101906106f49190613ea0565b6112a6565b6040516107069190613d36565b60405180910390f35b61072960048036038101906107249190613ea0565b611391565b6040516107369190613d36565b60405180910390f35b61075960048036038101906107549190613ea0565b6113af565b005b6107756004803603810190610770919061414b565b61144b565b005b610791600480360381019061078c919061408e565b611486565b005b61079b611545565b6040516107a89190613eef565b60405180910390f35b6107cb60048036038101906107c691906141d8565b61157b565b005b6107e760048036038101906107e29190613fea565b6116bd565b005b61080360048036038101906107fe919061427a565b6116e6565b6040516108109190613eef565b60405180910390f35b61082161176d565b005b61083d600480360381019061083891906142e6565b6117bb565b60405161084a919061439b565b60405180910390f35b60007f7965db0b000000000000000000000000000000000000000000000000000000007bffffffffffffffffffffffffffffffffffffffffffffffffffffffff1916827bffffffffffffffffffffffffffffffffffffffffffffffffffffffff191614806108c657506108c582611edb565b5b9050919050565b6060600380546108dc906143e5565b80601f0160208091040260200160405190810160405280929190818152602001828054610908906143e5565b80156109555780601f1061092a57610100808354040283529160200191610955565b820191906000526020600020905b81548152906001019060200180831161093857829003601f168201915b5050505050905090565b600061097361096c611f45565b8484611f4d565b6001905092915050565b6000600254905090565b6000610994848484612118565b6000600160008673ffffffffffffffffffffffffffffffffffffffff1673ffffffffffffffffffffffffffffffffffffffff16815260200190815260200160002060006109df611f45565b73ffffffffffffffffffffffffffffffffffffffff1673ffffffffffffffffffffffffffffffffffffffff16815260200190815260200160002054905082811015610a5f576040517f08c379a0000000000000000000000000000000000000000000000000000000008152600401610a5690614489565b60405180910390fd5b610a7385610a6b611f45565b858403611f4d565b60019150509392505050565b600060096000838152602001908152602001600020600101549050919050565b610aa882610a7f565b610ab981610ab4611f45565b612399565b610ac38383612436565b505050565b60006012905090565b6000610adb612517565b905090565b610ae8611f45565b73ffffffffffffffffffffffffffffffffffffffff168173ffffffffffffffffffffffffffffffffffffffff1614610b55576040517f08c379a0000000000000000000000000000000000000000000000000000000008152600401610b4c9061451b565b60405180910390fd5b610b5f82826125da565b5050565b6000610c05610b70611f45565b848460016000610b7e611f45565b73ffffffffffffffffffffffffffffffffffffffff1673ffffffffffffffffffffffffffffffffffffffff16815260200190815260200160002060008873ffffffffffffffffffffffffffffffffffffffff1673ffffffffffffffffffffffffffffffffffffffff16815260200190815260200160002054610c00919061456a565b611f4d565b6001905092915050565b6000438210610c53576040517f08c379a0000000000000000000000000000000000000000000000000000000008152600401610c4a9061460c565b60405180910390fd5b610c9b600d60008573ffffffffffffffffffffffffffffffffffffffff1673ffffffffffffffffffffffffffffffffffffffff168152602001908152602001600020836126bc565b905092915050565b7f0454d691b20de09c741657b57037379cb9a924a8d5d937a8aedf7cda4a999407610cd581610cd0611f45565b612399565b610cdd6127c8565b50565b610cf1610ceb611f45565b8261286a565b50565b7f0454d691b20de09c741657b57037379cb9a924a8d5d937a8aedf7cda4a999407610d2681610d21611f45565b612399565b816010819055505050565b6000806000610d7e84600560008873ffffffffffffffffffffffffffffffffffffffff1673ffffffffffffffffffffffffffffffffffffffff1681526020019081526020016000206128c0565b9150915081610d9557610d9085610eb0565b610d97565b805b9250505092915050565b6000600c60008373ffffffffffffffffffffffffffffffffffffffff1673ffffffffffffffffffffffffffffffffffffffff16815260200190815260200160002060009054906101000a900473ffffffffffffffffffffffffffffffffffffffff169050919050565b6040517f08c379a0000000000000000000000000000000000000000000000000000000008152600401610e3c90614678565b60405180910390fd5b6000600a60009054906101000a900460ff16905090565b6000610ea9600d60008473ffffffffffffffffffffffffffffffffffffffff1673ffffffffffffffffffffffffffffffffffffffff16815260200190815260200160002080549050611d75565b9050919050565b60008060008373ffffffffffffffffffffffffffffffffffffffff1673ffffffffffffffffffffffffffffffffffffffff168152602001908152602001600020549050919050565b6000601054905090565b6000610f1583610f10611f45565b6116e6565b905081811015610f5a576040517f08c379a0000000000000000000000000000000000000000000000000000000008152600401610f519061470a565b60405180910390fd5b610f6e83610f66611f45565b848403611f4d565b610f78838361286a565b505050565b6000610fc6600b60008473ffffffffffffffffffffffffffffffffffffffff1673ffffffffffffffffffffffffffffffffffffffff168152602001908152602001600020611ecd565b9050919050565b7f0454d691b20de09c741657b57037379cb9a924a8d5d937a8aedf7cda4a999407610fff81610ffa611f45565b612399565b6110076129b6565b50565b600043821061104e576040517f08c379a00000000000000000000000000000000000000000000000000000000081526004016110459061460c565b60405180910390fd5b611059600e836126bc565b9050919050565b60006009600084815260200190815260200160002060000160008373ffffffffffffffffffffffffffffffffffffffff1673ffffffffffffffffffffffffffffffffffffffff16815260200190815260200160002060009054906101000a900460ff16905092915050565b6060600480546110da906143e5565b80601f0160208091040260200160405190810160405280929190818152602001828054611106906143e5565b80156111535780601f1061112857610100808354040283529160200191611153565b820191906000526020600020905b81548152906001019060200180831161113657829003601f168201915b5050505050905090565b600080600061116d8460066128c0565b91509150816111835761117e61097d565b611185565b805b92505050919050565b600080600d60008473ffffffffffffffffffffffffffffffffffffffff1673ffffffffffffffffffffffffffffffffffffffff1681526020019081526020016000208054905090506000811461127657600d60008473ffffffffffffffffffffffffffffffffffffffff1673ffffffffffffffffffffffffffffffffffffffff16815260200190815260200160002060018261122a919061472a565b8154811061123b5761123a61475e565b5b9060005260206000200160000160049054906101000a90047bffffffffffffffffffffffffffffffffffffffffffffffffffffffff16611279565b60005b7bffffffffffffffffffffffffffffffffffffffffffffffffffffffff16915050919050565b6000801b81565b600080600160006112b5611f45565b73ffffffffffffffffffffffffffffffffffffffff1673ffffffffffffffffffffffffffffffffffffffff16815260200190815260200160002060008573ffffffffffffffffffffffffffffffffffffffff1673ffffffffffffffffffffffffffffffffffffffff16815260200190815260200160002054905082811015611372576040517f08c379a0000000000000000000000000000000000000000000000000000000008152600401611369906147ff565b60405180910390fd5b61138661137d611f45565b85858403611f4d565b600191505092915050565b60006113a561139e611f45565b8484612118565b6001905092915050565b7f0454d691b20de09c741657b57037379cb9a924a8d5d937a8aedf7cda4a9994076113e1816113dc611f45565b612399565b6113ea8361118e565b82111561142c576040517f08c379a00000000000000000000000000000000000000000000000000000000081526004016114239061486b565b60405180910390fd5b6114346127c8565b61143e8383612a59565b611446610fcd565b505050565b6040517f08c379a000000000000000000000000000000000000000000000000000000000815260040161147d90614678565b60405180910390fd5b7f0454d691b20de09c741657b57037379cb9a924a8d5d937a8aedf7cda4a9994076114b8816114b3611f45565b612399565b600073ffffffffffffffffffffffffffffffffffffffff168273ffffffffffffffffffffffffffffffffffffffff161415611528576040517f08c379a000000000000000000000000000000000000000000000000000000000815260040161151f906148d7565b60405180910390fd5b611530610ca3565b61153982612aaf565b611541610fcd565b5050565b60006115766064611568600f5461155a61097d565b612c0390919063ffffffff16565b612c1990919063ffffffff16565b905090565b834211156115be576040517f08c379a00000000000000000000000000000000000000000000000000000000081526004016115b590614943565b60405180910390fd5b60007f00000000000000000000000000000000000000000000000000000000000000008888886115ed8c612c2f565b8960405160200161160396959493929190614963565b604051602081830303815290604052805190602001209050600061162682612c8d565b9050600061163682878787612ca7565b90508973ffffffffffffffffffffffffffffffffffffffff168173ffffffffffffffffffffffffffffffffffffffff16146116a6576040517f08c379a000000000000000000000000000000000000000000000000000000000815260040161169d90614a10565b60405180910390fd5b6116b18a8a8a611f4d565b50505050505050505050565b6116c682610a7f565b6116d7816116d2611f45565b612399565b6116e183836125da565b505050565b6000600160008473ffffffffffffffffffffffffffffffffffffffff1673ffffffffffffffffffffffffffffffffffffffff16815260200190815260200160002060008373ffffffffffffffffffffffffffffffffffffffff1673ffffffffffffffffffffffffffffffffffffffff16815260200190815260200160002054905092915050565b7f0454d691b20de09c741657b57037379cb9a924a8d5d937a8aedf7cda4a99940761179f8161179a611f45565b612399565b6117a76127c8565b6117af612cd2565b506117b86129b6565b50565b6117c3613c53565b600d60008473ffffffffffffffffffffffffffffffffffffffff1673ffffffffffffffffffffffffffffffffffffffff1681526020019081526020016000208263ffffffff168154811061181a5761181961475e565b5b906000526020600020016040518060400160405290816000820160009054906101000a900463ffffffff1663ffffffff1663ffffffff1681526020016000820160049054906101000a90047bffffffffffffffffffffffffffffffffffffffffffffffffffffffff167bffffffffffffffffffffffffffffffffffffffffffffffffffffffff167bffffffffffffffffffffffffffffffffffffffffffffffffffffffff1681525050905092915050565b6118d58282611958565b6118dd612d28565b7bffffffffffffffffffffffffffffffffffffffffffffffffffffffff1661190361097d565b1115611944576040517f08c379a000000000000000000000000000000000000000000000000000000000815260040161193b90614aa2565b60405180910390fd5b611952600e611ab883612d4c565b50505050565b600073ffffffffffffffffffffffffffffffffffffffff168273ffffffffffffffffffffffffffffffffffffffff1614156119c8576040517f08c379a00000000000000000000000000000000000000000000000000000000081526004016119bf90614b0e565b60405180910390fd5b6119d460008383612fc4565b80600260008282546119e6919061456a565b92505081905550806000808473ffffffffffffffffffffffffffffffffffffffff1673ffffffffffffffffffffffffffffffffffffffff1681526020019081526020016000206000828254611a3b919061456a565b925050819055508173ffffffffffffffffffffffffffffffffffffffff16600073ffffffffffffffffffffffffffffffffffffffff167fddf252ad1be2c89b69c2b068fc378daa952ba7f163c4a11628f55a4df523b3ef83604051611aa09190613eef565b60405180910390a3611ab46000838361301c565b5050565b60008183611ac6919061456a565b905092915050565b606060006002836002611ae19190614b2e565b611aeb919061456a565b67ffffffffffffffff811115611b0457611b03614b88565b5b6040519080825280601f01601f191660200182016040528015611b365781602001600182028036833780820191505090505b5090507f300000000000000000000000000000000000000000000000000000000000000081600081518110611b6e57611b6d61475e565b5b60200101907effffffffffffffffffffffffffffffffffffffffffffffffffffffffffffff1916908160001a9053507f780000000000000000000000000000000000000000000000000000000000000081600181518110611bd257611bd161475e565b5b60200101907effffffffffffffffffffffffffffffffffffffffffffffffffffffffffffff1916908160001a90535060006001846002611c129190614b2e565b611c1c919061456a565b90505b6001811115611cbc577f3031323334353637383961626364656600000000000000000000000000000000600f861660108110611c5e57611c5d61475e565b5b1a60f81b828281518110611c7557611c7461475e565b5b60200101907effffffffffffffffffffffffffffffffffffffffffffffffffffffffffffff1916908160001a905350600485901c945080611cb590614bb7565b9050611c1f565b5060008414611d00576040517f08c379a0000000000000000000000000000000000000000000000000000000008152600401611cf790614c2d565b60405180910390fd5b8091505092915050565b60007bffffffffffffffffffffffffffffffffffffffffffffffffffffffff8016821115611d6d576040517f08c379a0000000000000000000000000000000000000000000000000000000008152600401611d6490614cbf565b60405180910390fd5b819050919050565b600063ffffffff8016821115611dc0576040517f08c379a0000000000000000000000000000000000000000000000000000000008152600401611db790614d51565b60405180910390fd5b819050919050565b60008183611dd6919061472a565b905092915050565b611de9838383611ec3565b600073ffffffffffffffffffffffffffffffffffffffff168373ffffffffffffffffffffffffffffffffffffffff161415611e3457611e278261302c565b611e2f61307f565b611e93565b600073ffffffffffffffffffffffffffffffffffffffff168273ffffffffffffffffffffffffffffffffffffffff161415611e7f57611e728361302c565b611e7a61307f565b611e92565b611e888361302c565b611e918261302c565b5b5b505050565b611ea3838383611ec8565b611ebe611eaf84610da1565b611eb884610da1565b83613093565b505050565b505050565b505050565b600081600001549050919050565b60007f01ffc9a7000000000000000000000000000000000000000000000000000000007bffffffffffffffffffffffffffffffffffffffffffffffffffffffff1916827bffffffffffffffffffffffffffffffffffffffffffffffffffffffff1916149050919050565b600033905090565b600073ffffffffffffffffffffffffffffffffffffffff168373ffffffffffffffffffffffffffffffffffffffff161415611fbd576040517f08c379a0000000000000000000000000000000000000000000000000000000008152600401611fb490614de3565b60405180910390fd5b600073ffffffffffffffffffffffffffffffffffffffff168273ffffffffffffffffffffffffffffffffffffffff16141561202d576040517f08c379a000000000000000000000000000000000000000000000000000000000815260040161202490614e75565b60405180910390fd5b80600160008573ffffffffffffffffffffffffffffffffffffffff1673ffffffffffffffffffffffffffffffffffffffff16815260200190815260200160002060008473ffffffffffffffffffffffffffffffffffffffff1673ffffffffffffffffffffffffffffffffffffffff168152602001908152602001600020819055508173ffffffffffffffffffffffffffffffffffffffff168373ffffffffffffffffffffffffffffffffffffffff167f8c5be1e5ebec7d5bd14f71427d1e84f3dd0314c0f7b2291e5b200ac8c7c3b9258360405161210b9190613eef565b60405180910390a3505050565b600073ffffffffffffffffffffffffffffffffffffffff168373ffffffffffffffffffffffffffffffffffffffff161415612188576040517f08c379a000000000000000000000000000000000000000000000000000000000815260040161217f90614f07565b60405180910390fd5b600073ffffffffffffffffffffffffffffffffffffffff168273ffffffffffffffffffffffffffffffffffffffff1614156121f8576040517f08c379a00000000000000000000000000000000000000000000000000000000081526004016121ef90614f99565b60405180910390fd5b612203838383612fc4565b60008060008573ffffffffffffffffffffffffffffffffffffffff1673ffffffffffffffffffffffffffffffffffffffff16815260200190815260200160002054905081811015612289576040517f08c379a00000000000000000000000000000000000000000000000000000000081526004016122809061502b565b60405180910390fd5b8181036000808673ffffffffffffffffffffffffffffffffffffffff1673ffffffffffffffffffffffffffffffffffffffff16815260200190815260200160002081905550816000808573ffffffffffffffffffffffffffffffffffffffff1673ffffffffffffffffffffffffffffffffffffffff168152602001908152602001600020600082825461231c919061456a565b925050819055508273ffffffffffffffffffffffffffffffffffffffff168473ffffffffffffffffffffffffffffffffffffffff167fddf252ad1be2c89b69c2b068fc378daa952ba7f163c4a11628f55a4df523b3ef846040516123809190613eef565b60405180910390a361239384848461301c565b50505050565b6123a38282611060565b612432576123c88173ffffffffffffffffffffffffffffffffffffffff166014611ace565b6123d68360001c6020611ace565b6040516020016123e792919061511f565b6040516020818303038152906040526040517f08c379a00000000000000000000000000000000000000000000000000000000081526004016124299190613dea565b60405180910390fd5b5050565b6124408282611060565b6125135760016009600084815260200190815260200160002060000160008373ffffffffffffffffffffffffffffffffffffffff1673ffffffffffffffffffffffffffffffffffffffff16815260200190815260200160002060006101000a81548160ff0219169083151502179055506124b8611f45565b73ffffffffffffffffffffffffffffffffffffffff168173ffffffffffffffffffffffffffffffffffffffff16837f2f8788117e7eff1d82e926ec794901d17c78024a50270940304540a733656f0d60405160405180910390a45b5050565b60007f0000000000000000000000000000000000000000000000000000000000000000461415612569577f000000000000000000000000000000000000000000000000000000000000000090506125d7565b6125d47f00000000000000000000000000000000000000000000000000000000000000007f00000000000000000000000000000000000000000000000000000000000000007f000000000000000000000000000000000000000000000000000000000000000061328c565b90505b90565b6125e48282611060565b156126b85760006009600084815260200190815260200160002060000160008373ffffffffffffffffffffffffffffffffffffffff1673ffffffffffffffffffffffffffffffffffffffff16815260200190815260200160002060006101000a81548160ff02191690831515021790555061265d611f45565b73ffffffffffffffffffffffffffffffffffffffff168173ffffffffffffffffffffffffffffffffffffffff16837ff6391f5c32d9c69d2a47ea670b442974b53935d1edc7fd64eb21e047a839171b60405160405180910390a45b5050565b6000808380549050905060005b8181101561273b5760006126dd82846132c6565b9050848682815481106126f3576126f261475e565b5b9060005260206000200160000160009054906101000a900463ffffffff1663ffffffff16111561272557809250612735565b600181612732919061456a565b91505b506126c9565b6000821461279d5784600183612751919061472a565b815481106127625761276161475e565b5b9060005260206000200160000160049054906101000a90047bffffffffffffffffffffffffffffffffffffffffffffffffffffffff166127a0565b60005b7bffffffffffffffffffffffffffffffffffffffffffffffffffffffff169250505092915050565b6127d0610e45565b61280f576040517f08c379a0000000000000000000000000000000000000000000000000000000008152600401612806906151a5565b60405180910390fd5b6000600a60006101000a81548160ff0219169083151502179055507f5db9ee0a495bf2e6ff9c91a7834c1ba4fdd244a5e8aa4e537bd38aeae4b073aa612853611f45565b60405161286091906140ca565b60405180910390a1565b612872610e45565b156128b2576040517f08c379a00000000000000000000000000000000000000000000000000000000081526004016128a990615211565b60405180910390fd5b6128bc82826132ec565b5050565b60008060008411612906576040517f08c379a00000000000000000000000000000000000000000000000000000000081526004016128fd9061527d565b60405180910390fd5b61290e61330a565b841115612950576040517f08c379a0000000000000000000000000000000000000000000000000000000008152600401612947906152e9565b60405180910390fd5b6000612968858560000161331b90919063ffffffff16565b905083600001805490508114156129865760008092509250506129af565b600184600101828154811061299e5761299d61475e565b5b906000526020600020015492509250505b9250929050565b6129be610e45565b156129fe576040517f08c379a00000000000000000000000000000000000000000000000000000000081526004016129f590615211565b60405180910390fd5b6001600a60006101000a81548160ff0219169083151502179055507f62e78cea01bee320cd4e420270b5ea74000d11b0c9f74754ebdbfc544b05a258612a42611f45565b604051612a4f91906140ca565b60405180910390a1565b612a61610e45565b15612aa1576040517f08c379a0000000000000000000000000000000000000000000000000000000008152600401612a9890615211565b60405180910390fd5b612aab828261286a565b5050565b612ab7610e45565b15612af7576040517f08c379a0000000000000000000000000000000000000000000000000000000008152600401612aee90615211565b60405180910390fd5b6000612b028261118e565b14612baf57600080612b13836133f5565b915091508115612b5b577f23a302a34465efc566602c74638c78732b72c6a201789a370b20b311999f549f8382604051612b4e92919061537b565b60405180910390a1612ba8565b612b658382613440565b612b6e836134c9565b7f23a302a34465efc566602c74638c78732b72c6a201789a370b20b311999f549f8382604051612b9f929190615403565b60405180910390a15b5050612c00565b612bbb81601054613440565b612bc4816134c9565b7f23a302a34465efc566602c74638c78732b72c6a201789a370b20b311999f549f81601054604051612bf7929190615403565b60405180910390a15b50565b60008183612c119190614b2e565b905092915050565b60008183612c27919061546e565b905092915050565b600080600b60008473ffffffffffffffffffffffffffffffffffffffff1673ffffffffffffffffffffffffffffffffffffffff1681526020019081526020016000209050612c7c81611ecd565b9150612c878161351e565b50919050565b6000612ca0612c9a612517565b83613534565b9050919050565b6000806000612cb887878787613567565b91509150612cc581613674565b8192505050949350505050565b6000612cde600861351e565b6000612ce861330a565b90507f8030e83b04d87bef53480e26263266d6ca66863aa8506aca6f2559d18aa1cb6781604051612d199190613eef565b60405180910390a18091505090565b60007bffffffffffffffffffffffffffffffffffffffffffffffffffffffff905090565b60008060008580549050905060008114612dba5785600182612d6e919061472a565b81548110612d7f57612d7e61475e565b5b9060005260206000200160000160049054906101000a90047bffffffffffffffffffffffffffffffffffffffffffffffffffffffff16612dbd565b60005b7bffffffffffffffffffffffffffffffffffffffffffffffffffffffff169250612deb83858763ffffffff16565b9150600081118015612e3e57504386600183612e07919061472a565b81548110612e1857612e1761475e565b5b9060005260206000200160000160009054906101000a900463ffffffff1663ffffffff16145b15612ecb57612e4c82611d0a565b86600183612e5a919061472a565b81548110612e6b57612e6a61475e565b5b9060005260206000200160000160046101000a8154817bffffffffffffffffffffffffffffffffffffffffffffffffffffffff02191690837bffffffffffffffffffffffffffffffffffffffffffffffffffffffff160217905550612fbb565b856040518060400160405280612ee043611d75565b63ffffffff168152602001612ef485611d0a565b7bffffffffffffffffffffffffffffffffffffffffffffffffffffffff168152509080600181540180825580915050600190039060005260206000200160009091909190915060008201518160000160006101000a81548163ffffffff021916908363ffffffff16021790555060208201518160000160046101000a8154817bffffffffffffffffffffffffffffffffffffffffffffffffffffffff02191690837bffffffffffffffffffffffffffffffffffffffffffffffffffffffff16021790555050505b50935093915050565b612fcc610e45565b1561300c576040517f08c379a000000000000000000000000000000000000000000000000000000000815260040161300390615211565b60405180910390fd5b613017838383611dde565b505050565b613027838383611e98565b505050565b61307c600560008373ffffffffffffffffffffffffffffffffffffffff1673ffffffffffffffffffffffffffffffffffffffff16815260200190815260200160002061307783610eb0565b613849565b50565b613091600661308c61097d565b613849565b565b8173ffffffffffffffffffffffffffffffffffffffff168373ffffffffffffffffffffffffffffffffffffffff16141580156130cf5750600081115b1561328757600073ffffffffffffffffffffffffffffffffffffffff168373ffffffffffffffffffffffffffffffffffffffff16146131ad57600080613156600d60008773ffffffffffffffffffffffffffffffffffffffff1673ffffffffffffffffffffffffffffffffffffffff168152602001908152602001600020611dc885612d4c565b915091508473ffffffffffffffffffffffffffffffffffffffff167fdec2bacdd2f05b59de34da9b523dff8be42e5e38e818c82fdb0bae774387a72483836040516131a292919061549f565b60405180910390a250505b600073ffffffffffffffffffffffffffffffffffffffff168273ffffffffffffffffffffffffffffffffffffffff16146132865760008061322f600d60008673ffffffffffffffffffffffffffffffffffffffff1673ffffffffffffffffffffffffffffffffffffffff168152602001908152602001600020611ab885612d4c565b915091508373ffffffffffffffffffffffffffffffffffffffff167fdec2bacdd2f05b59de34da9b523dff8be42e5e38e818c82fdb0bae774387a724838360405161327b92919061549f565b60405180910390a250505b5b505050565b600083838346306040516020016132a79594939291906154c8565b6040516020818303038152906040528051906020012090509392505050565b600060028284186132d7919061546e565b8284166132e4919061456a565b905092915050565b6132f682826138c4565b613304600e611dc883612d4c565b50505050565b60006133166008611ecd565b905090565b6000808380549050141561333257600090506133ef565b600080848054905090505b8082101561339657600061335183836132c6565b9050848682815481106133675761336661475e565b5b9060005260206000200154111561338057809150613390565b60018161338d919061456a565b92505b5061333d565b6000821180156133ce575083856001846133b0919061472a565b815481106133c1576133c061475e565b5b9060005260206000200154145b156133e9576001826133e0919061472a565b925050506133ef565b81925050505b92915050565b6000806000613402611545565b9050600061340f8561118e565b90508181101561342d5760009350836134288284613a9b565b613435565b600193508360005b935093505050915091565b7f0454d691b20de09c741657b57037379cb9a924a8d5d937a8aedf7cda4a9994076134728161346d611f45565b612399565b61347a610e45565b156134ba576040517f08c379a00000000000000000000000000000000000000000000000000000000081526004016134b190615211565b60405180910390fd5b6134c483836118cb565b505050565b6134d1610e45565b15613511576040517f08c379a000000000000000000000000000000000000000000000000000000000815260040161350890615211565b60405180910390fd5b61351b8182613ad6565b50565b6001816000016000828254019250508190555050565b60008282604051602001613549929190615588565b60405160208183030381529060405280519060200120905092915050565b6000807f7fffffffffffffffffffffffffffffff5d576e7357a4501ddfe92f46681b20a08360001c11156135a257600060039150915061366b565b601b8560ff16141580156135ba5750601c8560ff1614155b156135cc57600060049150915061366b565b6000600187878787604051600081526020016040526040516135f194939291906155bf565b6020604051602081039080840390855afa158015613613573d6000803e3d6000fd5b505050602060405103519050600073ffffffffffffffffffffffffffffffffffffffff168173ffffffffffffffffffffffffffffffffffffffff1614156136625760006001925092505061366b565b80600092509250505b94509492505050565b6000600481111561368857613687615604565b5b81600481111561369b5761369a615604565b5b14156136a657613846565b600160048111156136ba576136b9615604565b5b8160048111156136cd576136cc615604565b5b141561370e576040517f08c379a00000000000000000000000000000000000000000000000000000000081526004016137059061567f565b60405180910390fd5b6002600481111561372257613721615604565b5b81600481111561373557613734615604565b5b1415613776576040517f08c379a000000000000000000000000000000000000000000000000000000000815260040161376d906156eb565b60405180910390fd5b6003600481111561378a57613789615604565b5b81600481111561379d5761379c615604565b5b14156137de576040517f08c379a00000000000000000000000000000000000000000000000000000000081526004016137d59061577d565b60405180910390fd5b6004808111156137f1576137f0615604565b5b81600481111561380457613803615604565b5b1415613845576040517f08c379a000000000000000000000000000000000000000000000000000000000815260040161383c9061580f565b60405180910390fd5b5b50565b600061385361330a565b90508061386284600001613bf0565b10156138bf5782600001819080600181540180825580915050600190039060005260206000200160009091909190915055826001018290806001815401808255809150506001900390600052602060002001600090919091909150555b505050565b600073ffffffffffffffffffffffffffffffffffffffff168273ffffffffffffffffffffffffffffffffffffffff161415613934576040517f08c379a000000000000000000000000000000000000000000000000000000000815260040161392b906158a1565b60405180910390fd5b61394082600083612fc4565b60008060008473ffffffffffffffffffffffffffffffffffffffff1673ffffffffffffffffffffffffffffffffffffffff168152602001908152602001600020549050818110156139c6576040517f08c379a00000000000000000000000000000000000000000000000000000000081526004016139bd90615933565b60405180910390fd5b8181036000808573ffffffffffffffffffffffffffffffffffffffff1673ffffffffffffffffffffffffffffffffffffffff168152602001908152602001600020819055508160026000828254613a1d919061472a565b92505081905550600073ffffffffffffffffffffffffffffffffffffffff168373ffffffffffffffffffffffffffffffffffffffff167fddf252ad1be2c89b69c2b068fc378daa952ba7f163c4a11628f55a4df523b3ef84604051613a829190613eef565b60405180910390a3613a968360008461301c565b505050565b600081613ab360105485613c3d90919063ffffffff16565b1115613aca578282613ac5919061472a565b613ace565b6010545b905092915050565b6000613ae183610da1565b90506000613aee84610eb0565b905082600c60008673ffffffffffffffffffffffffffffffffffffffff1673ffffffffffffffffffffffffffffffffffffffff16815260200190815260200160002060006101000a81548173ffffffffffffffffffffffffffffffffffffffff021916908373ffffffffffffffffffffffffffffffffffffffff1602179055508273ffffffffffffffffffffffffffffffffffffffff168273ffffffffffffffffffffffffffffffffffffffff168573ffffffffffffffffffffffffffffffffffffffff167f3134e8a2e6d97e929a7e54011ea5485d7d196dd5f0ba4d4ef95803e8e3fc257f60405160405180910390a4613bea828483613093565b50505050565b60008082805490501415613c075760009050613c38565b8160018380549050613c19919061472a565b81548110613c2a57613c2961475e565b5b906000526020600020015490505b919050565b60008183613c4b919061456a565b905092915050565b6040518060400160405280600063ffffffff16815260200160007bffffffffffffffffffffffffffffffffffffffffffffffffffffffff1681525090565b600080fd5b60007fffffffff0000000000000000000000000000000000000000000000000000000082169050919050565b613ccb81613c96565b8114613cd657600080fd5b50565b600081359050613ce881613cc2565b92915050565b600060208284031215613d0457613d03613c91565b5b6000613d1284828501613cd9565b91505092915050565b60008115159050919050565b613d3081613d1b565b82525050565b6000602082019050613d4b6000830184613d27565b92915050565b600081519050919050565b600082825260208201905092915050565b60005b83811015613d8b578082015181840152602081019050613d70565b83811115613d9a576000848401525b50505050565b6000601f19601f8301169050919050565b6000613dbc82613d51565b613dc68185613d5c565b9350613dd6818560208601613d6d565b613ddf81613da0565b840191505092915050565b60006020820190508181036000830152613e048184613db1565b905092915050565b600073ffffffffffffffffffffffffffffffffffffffff82169050919050565b6000613e3782613e0c565b9050919050565b613e4781613e2c565b8114613e5257600080fd5b50565b600081359050613e6481613e3e565b92915050565b6000819050919050565b613e7d81613e6a565b8114613e8857600080fd5b50565b600081359050613e9a81613e74565b92915050565b60008060408385031215613eb757613eb6613c91565b5b6000613ec585828601613e55565b9250506020613ed685828601613e8b565b9150509250929050565b613ee981613e6a565b82525050565b6000602082019050613f046000830184613ee0565b92915050565b600080600060608486031215613f2357613f22613c91565b5b6000613f3186828701613e55565b9350506020613f4286828701613e55565b9250506040613f5386828701613e8b565b9150509250925092565b6000819050919050565b613f7081613f5d565b8114613f7b57600080fd5b50565b600081359050613f8d81613f67565b92915050565b600060208284031215613fa957613fa8613c91565b5b6000613fb784828501613f7e565b91505092915050565b613fc981613f5d565b82525050565b6000602082019050613fe46000830184613fc0565b92915050565b6000806040838503121561400157614000613c91565b5b600061400f85828601613f7e565b925050602061402085828601613e55565b9150509250929050565b600060ff82169050919050565b6140408161402a565b82525050565b600060208201905061405b6000830184614037565b92915050565b60006020828403121561407757614076613c91565b5b600061408584828501613e8b565b91505092915050565b6000602082840312156140a4576140a3613c91565b5b60006140b284828501613e55565b91505092915050565b6140c481613e2c565b82525050565b60006020820190506140df60008301846140bb565b92915050565b600063ffffffff82169050919050565b6140fe816140e5565b82525050565b600060208201905061411960008301846140f5565b92915050565b6141288161402a565b811461413357600080fd5b50565b6000813590506141458161411f565b92915050565b60008060008060008060c0878903121561416857614167613c91565b5b600061417689828a01613e55565b965050602061418789828a01613e8b565b955050604061419889828a01613e8b565b94505060606141a989828a01614136565b93505060806141ba89828a01613f7e565b92505060a06141cb89828a01613f7e565b9150509295509295509295565b600080600080600080600060e0888a0312156141f7576141f6613c91565b5b60006142058a828b01613e55565b97505060206142168a828b01613e55565b96505060406142278a828b01613e8b565b95505060606142388a828b01613e8b565b94505060806142498a828b01614136565b93505060a061425a8a828b01613f7e565b92505060c061426b8a828b01613f7e565b91505092959891949750929550565b6000806040838503121561429157614290613c91565b5b600061429f85828601613e55565b92505060206142b085828601613e55565b9150509250929050565b6142c3816140e5565b81146142ce57600080fd5b50565b6000813590506142e0816142ba565b92915050565b600080604083850312156142fd576142fc613c91565b5b600061430b85828601613e55565b925050602061431c858286016142d1565b9150509250929050565b61432f816140e5565b82525050565b60007bffffffffffffffffffffffffffffffffffffffffffffffffffffffff82169050919050565b61436681614335565b82525050565b6040820160008201516143826000850182614326565b506020820151614395602085018261435d565b50505050565b60006040820190506143b0600083018461436c565b92915050565b7f4e487b7100000000000000000000000000000000000000000000000000000000600052602260045260246000fd5b600060028204905060018216806143fd57607f821691505b60208210811415614411576144106143b6565b5b50919050565b7f45524332303a207472616e7366657220616d6f756e742065786365656473206160008201527f6c6c6f77616e6365000000000000000000000000000000000000000000000000602082015250565b6000614473602883613d5c565b915061447e82614417565b604082019050919050565b600060208201905081810360008301526144a281614466565b9050919050565b7f416363657373436f6e74726f6c3a2063616e206f6e6c792072656e6f756e636560008201527f20726f6c657320666f722073656c660000000000000000000000000000000000602082015250565b6000614505602f83613d5c565b9150614510826144a9565b604082019050919050565b60006020820190508181036000830152614534816144f8565b9050919050565b7f4e487b7100000000000000000000000000000000000000000000000000000000600052601160045260246000fd5b600061457582613e6a565b915061458083613e6a565b9250827fffffffffffffffffffffffffffffffffffffffffffffffffffffffffffffffff038211156145b5576145b461453b565b5b828201905092915050565b7f4552433230566f7465733a20626c6f636b206e6f7420796574206d696e656400600082015250565b60006145f6601f83613d5c565b9150614601826145c0565b602082019050919050565b60006020820190508181036000830152614625816145e9565b9050919050565b7f64656c65676174696e6720766f746573206e6f7420616c6c6f77656400000000600082015250565b6000614662601c83613d5c565b915061466d8261462c565b602082019050919050565b6000602082019050818103600083015261469181614655565b9050919050565b7f45524332303a206275726e20616d6f756e74206578636565647320616c6c6f7760008201527f616e636500000000000000000000000000000000000000000000000000000000602082015250565b60006146f4602483613d5c565b91506146ff82614698565b604082019050919050565b60006020820190508181036000830152614723816146e7565b9050919050565b600061473582613e6a565b915061474083613e6a565b9250828210156147535761475261453b565b5b828203905092915050565b7f4e487b7100000000000000000000000000000000000000000000000000000000600052603260045260246000fd5b7f45524332303a2064656372656173656420616c6c6f77616e63652062656c6f7760008201527f207a65726f000000000000000000000000000000000000000000000000000000602082015250565b60006147e9602583613d5c565b91506147f48261478d565b604082019050919050565b60006020820190508181036000830152614818816147dc565b9050919050565b7f616d6f756e742065786365656473207573657220766f74657300000000000000600082015250565b6000614855601983613d5c565b91506148608261481f565b602082019050919050565b6000602082019050818103600083015261488481614848565b9050919050565b7f6e6f7420612076616c6964206164647265737300000000000000000000000000600082015250565b60006148c1601383613d5c565b91506148cc8261488b565b602082019050919050565b600060208201905081810360008301526148f0816148b4565b9050919050565b7f45524332305065726d69743a206578706972656420646561646c696e65000000600082015250565b600061492d601d83613d5c565b9150614938826148f7565b602082019050919050565b6000602082019050818103600083015261495c81614920565b9050919050565b600060c0820190506149786000830189613fc0565b61498560208301886140bb565b61499260408301876140bb565b61499f6060830186613ee0565b6149ac6080830185613ee0565b6149b960a0830184613ee0565b979650505050505050565b7f45524332305065726d69743a20696e76616c6964207369676e61747572650000600082015250565b60006149fa601e83613d5c565b9150614a05826149c4565b602082019050919050565b60006020820190508181036000830152614a29816149ed565b9050919050565b7f4552433230566f7465733a20746f74616c20737570706c79207269736b73206f60008201527f766572666c6f77696e6720766f74657300000000000000000000000000000000602082015250565b6000614a8c603083613d5c565b9150614a9782614a30565b604082019050919050565b60006020820190508181036000830152614abb81614a7f565b9050919050565b7f45524332303a206d696e7420746f20746865207a65726f206164647265737300600082015250565b6000614af8601f83613d5c565b9150614b0382614ac2565b602082019050919050565b60006020820190508181036000830152614b2781614aeb565b9050919050565b6000614b3982613e6a565b9150614b4483613e6a565b9250817fffffffffffffffffffffffffffffffffffffffffffffffffffffffffffffffff0483118215151615614b7d57614b7c61453b565b5b828202905092915050565b7f4e487b7100000000000000000000000000000000000000000000000000000000600052604160045260246000fd5b6000614bc282613e6a565b91506000821415614bd657614bd561453b565b5b600182039050919050565b7f537472696e67733a20686578206c656e67746820696e73756666696369656e74600082015250565b6000614c17602083613d5c565b9150614c2282614be1565b602082019050919050565b60006020820190508181036000830152614c4681614c0a565b9050919050565b7f53616665436173743a2076616c756520646f65736e27742066697420696e203260008201527f3234206269747300000000000000000000000000000000000000000000000000602082015250565b6000614ca9602783613d5c565b9150614cb482614c4d565b604082019050919050565b60006020820190508181036000830152614cd881614c9c565b9050919050565b7f53616665436173743a2076616c756520646f65736e27742066697420696e203360008201527f3220626974730000000000000000000000000000000000000000000000000000602082015250565b6000614d3b602683613d5c565b9150614d4682614cdf565b604082019050919050565b60006020820190508181036000830152614d6a81614d2e565b9050919050565b7f45524332303a20617070726f76652066726f6d20746865207a65726f2061646460008201527f7265737300000000000000000000000000000000000000000000000000000000602082015250565b6000614dcd602483613d5c565b9150614dd882614d71565b604082019050919050565b60006020820190508181036000830152614dfc81614dc0565b9050919050565b7f45524332303a20617070726f766520746f20746865207a65726f20616464726560008201527f7373000000000000000000000000000000000000000000000000000000000000602082015250565b6000614e5f602283613d5c565b9150614e6a82614e03565b604082019050919050565b60006020820190508181036000830152614e8e81614e52565b9050919050565b7f45524332303a207472616e736665722066726f6d20746865207a65726f20616460008201527f6472657373000000000000000000000000000000000000000000000000000000602082015250565b6000614ef1602583613d5c565b9150614efc82614e95565b604082019050919050565b60006020820190508181036000830152614f2081614ee4565b9050919050565b7f45524332303a207472616e7366657220746f20746865207a65726f206164647260008201527f6573730000000000000000000000000000000000000000000000000000000000602082015250565b6000614f83602383613d5c565b9150614f8e82614f27565b604082019050919050565b60006020820190508181036000830152614fb281614f76565b9050919050565b7f45524332303a207472616e7366657220616d6f756e742065786365656473206260008201527f616c616e63650000000000000000000000000000000000000000000000000000602082015250565b6000615015602683613d5c565b915061502082614fb9565b604082019050919050565b6000602082019050818103600083015261504481615008565b9050919050565b600081905092915050565b7f416363657373436f6e74726f6c3a206163636f756e7420000000000000000000600082015250565b600061508c60178361504b565b915061509782615056565b601782019050919050565b60006150ad82613d51565b6150b7818561504b565b93506150c7818560208601613d6d565b80840191505092915050565b7f206973206d697373696e6720726f6c6520000000000000000000000000000000600082015250565b600061510960118361504b565b9150615114826150d3565b601182019050919050565b600061512a8261507f565b915061513682856150a2565b9150615141826150fc565b915061514d82846150a2565b91508190509392505050565b7f5061757361626c653a206e6f7420706175736564000000000000000000000000600082015250565b600061518f601483613d5c565b915061519a82615159565b602082019050919050565b600060208201905081810360008301526151be81615182565b9050919050565b7f5061757361626c653a2070617573656400000000000000000000000000000000600082015250565b60006151fb601083613d5c565b9150615206826151c5565b602082019050919050565b6000602082019050818103600083015261522a816151ee565b9050919050565b7f4552433230536e617073686f743a206964206973203000000000000000000000600082015250565b6000615267601683613d5c565b915061527282615231565b602082019050919050565b600060208201905081810360008301526152968161525a565b9050919050565b7f4552433230536e617073686f743a206e6f6e6578697374656e74206964000000600082015250565b60006152d3601d83613d5c565b91506152de8261529d565b602082019050919050565b60006020820190508181036000830152615302816152c6565b9050919050565b7f43616e2774206c6576656c20757020666f72206e6f772c207472792068656c7060008201527f696e67206f746865727300000000000000000000000000000000000000000000602082015250565b6000615365602a83613d5c565b915061537082615309565b604082019050919050565b600060608201905061539060008301856140bb565b61539d6020830184613ee0565b81810360408301526153ae81615358565b90509392505050565b7f4c6576656c207570000000000000000000000000000000000000000000000000600082015250565b60006153ed600883613d5c565b91506153f8826153b7565b602082019050919050565b600060608201905061541860008301856140bb565b6154256020830184613ee0565b8181036040830152615436816153e0565b90509392505050565b7f4e487b7100000000000000000000000000000000000000000000000000000000600052601260045260246000fd5b600061547982613e6a565b915061548483613e6a565b9250826154945761549361543f565b5b828204905092915050565b60006040820190506154b46000830185613ee0565b6154c16020830184613ee0565b9392505050565b600060a0820190506154dd6000830188613fc0565b6154ea6020830187613fc0565b6154f76040830186613fc0565b6155046060830185613ee0565b61551160808301846140bb565b9695505050505050565b7f1901000000000000000000000000000000000000000000000000000000000000600082015250565b600061555160028361504b565b915061555c8261551b565b600282019050919050565b6000819050919050565b61558261557d82613f5d565b615567565b82525050565b600061559382615544565b915061559f8285615571565b6020820191506155af8284615571565b6020820191508190509392505050565b60006080820190506155d46000830187613fc0565b6155e16020830186614037565b6155ee6040830185613fc0565b6155fb6060830184613fc0565b95945050505050565b7f4e487b7100000000000000000000000000000000000000000000000000000000600052602160045260246000fd5b7f45434453413a20696e76616c6964207369676e61747572650000000000000000600082015250565b6000615669601883613d5c565b915061567482615633565b602082019050919050565b600060208201905081810360008301526156988161565c565b9050919050565b7f45434453413a20696e76616c6964207369676e6174757265206c656e67746800600082015250565b60006156d5601f83613d5c565b91506156e08261569f565b602082019050919050565b60006020820190508181036000830152615704816156c8565b9050919050565b7f45434453413a20696e76616c6964207369676e6174757265202773272076616c60008201527f7565000000000000000000000000000000000000000000000000000000000000602082015250565b6000615767602283613d5c565b91506157728261570b565b604082019050919050565b600060208201905081810360008301526157968161575a565b9050919050565b7f45434453413a20696e76616c6964207369676e6174757265202776272076616c60008201527f7565000000000000000000000000000000000000000000000000000000000000602082015250565b60006157f9602283613d5c565b91506158048261579d565b604082019050919050565b60006020820190508181036000830152615828816157ec565b9050919050565b7f45524332303a206275726e2066726f6d20746865207a65726f2061646472657360008201527f7300000000000000000000000000000000000000000000000000000000000000602082015250565b600061588b602183613d5c565b91506158968261582f565b604082019050919050565b600060208201905081810360008301526158ba8161587e565b9050919050565b7f45524332303a206275726e20616d6f756e7420657863656564732062616c616e60008201527f6365000000000000000000000000000000000000000000000000000000000000602082015250565b600061591d602283613d5c565b9150615928826158c1565b604082019050919050565b6000602082019050818103600083015261594c81615910565b905091905056fea264697066735822122005ad6e68aea9c53633ddb685cd487cf3523c2531f4ac06f5a2bcf67724d1b4cf64736f6c634300080a0033",
  "immutableReferences": {
    "6986": [
      {
        "length": 32,
        "start": 5570
      }
    ],
    "9965": [
      {
        "length": 32,
        "start": 9539
      }
    ],
    "9967": [
      {
        "length": 32,
        "start": 9499
      }
    ],
    "9969": [
      {
        "length": 32,
        "start": 9615
      }
    ],
    "9971": [
      {
        "length": 32,
        "start": 9648
      }
    ],
    "9973": [
      {
        "length": 32,
        "start": 9582
      }
    ]
  },
  "source": "// SPDX-License-Identifier: MIT\npragma solidity ^0.8.2;\n\n/// @title The IkonDAOGovernance Token - extension of the icond \n/// @author Fernando M. Trouw\n/// @notice this contract should be used for basic simulation purposes only \n/// @notice this contract is an experimental contract and should not be used to initiate project that will hold real value\n/// @dev functions currently implemented (other then imported library) functions could contain side-effects\n\nimport \"@openzeppelin/contracts/token/ERC20/ERC20.sol\";\nimport \"@openzeppelin/contracts/token/ERC20/extensions/ERC20Snapshot.sol\";\nimport \"@openzeppelin/contracts/token/ERC20/extensions/ERC20Burnable.sol\";\nimport \"@openzeppelin/contracts/access/AccessControl.sol\";\nimport \"@openzeppelin/contracts/security/Pausable.sol\";\nimport \"@openzeppelin/contracts/token/ERC20/extensions/draft-ERC20Permit.sol\";\nimport \"@openzeppelin/contracts/token/ERC20/extensions/ERC20Votes.sol\";\nimport \"@openzeppelin/contracts/utils/math/SafeMath.sol\";\n\nimport \"./Constants.sol\";\n\n/// @custom:security-contact ftrouw@protonmail.com\ncontract IkonDAOGovernanceToken is ERC20Burnable, ERC20Snapshot, AccessControl, Pausable, ERC20Permit, ERC20Votes, Constants {\n\n    /// @notice represents the maximum amount of votes a user can own \n    /// @notice represented with decimals\n    /// @notice converted to - with decimals from the front end \n    uint private _weightLimitFraction; \n    uint private _baseRewardVotes;\n\n    using SafeMath for uint256;\n\n    event VotingPowerIncreased(address _receiver, uint256 _amount, string message);\n    event VotingPowerSlashed(address _receiver, uint256 _amount, string message);\n\n    constructor(uint256 _fraction, address[] memory _initialUsers, uint256 _initialVotes, uint256 _baseReward)\n        ERC20(\"IkonDAOGovernanceToken\", \" IKDG\")\n        ERC20Permit(\"IkonDAOGovernanceToken\")\n    {\n\n        _weightLimitFraction = _fraction;\n        _baseRewardVotes = _baseReward;\n        // _mint(msg.sender, 10000000 * 10 ** decimals());\n        \n        _setupRole(ADMIN_ROLE, msg.sender);\n        _setRoleAdmin(ADMIN_ROLE, ADMIN_ROLE);\n        _setupRole(SNAPSHOT_ROLE, msg.sender);\n        _setRoleAdmin(SNAPSHOT_ROLE, ADMIN_ROLE);\n\n        for (uint i = 0; i < _initialUsers.length; i++){\n            _mint(_initialUsers[i], _initialVotes);\n            selfDelegate(_initialUsers[i]);\n            // _govRewardVotes(_initialUsers[i], _initialVotes);\n        }\n        pause();\n    }\n    \n    /// @dev sets vote weight limit\n    /// @param _fraction fraction to which the weight limit should be set  \n    // function setWeightLimitFraction(uint256 _fraction) external onlyOwner {\n    //     _weightLimitFraction = _fraction;   \n    // }\n\n    /// @dev returns weight limit of governance token\n    function getWeightLimit() public view returns (uint256) {\n        return totalSupply().mul(_weightLimitFraction).div(100);\n    } \n\n    /// @dev exposes baseReward\n    function getRewardVotes() public view returns(uint256) {\n        return _baseRewardVotes; \n    }\n    \n    /// @dev sets _baseVotingReward\n    /// @param newBase is the amount to set rewards to \n    function setRewardVotes(uint256 newBase) external onlyRole(ADMIN_ROLE) {\n        _baseRewardVotes = newBase;\n    }\n\n    /// @dev checks wheter limit is reached it is it returns rest that should be sent\n    /// @param _receiver address of the contributor\n    function weightLimitReached(address _receiver) private view returns (bool _reached, uint256) {\n        uint256 limit = getWeightLimit();\n        uint256 votes = getVotes(_receiver);\n        return votes >= limit ? (_reached = true, 0) : (_reached = false, calculateRewards(votes, limit));\n    }\n\n    /// @dev calculates reward contribution\n    /// @param votes voteWeight of account\n    /// @param limit voteWeight limit  \n    function calculateRewards(uint256 votes, uint256 limit) private view returns (uint256){\n        return votes.add(_baseRewardVotes) <= limit ? _baseRewardVotes : limit - votes;\n    }\n    \n    /// @notice see _rewardvotes \n    function rewardVotes(address to) external onlyRole(ADMIN_ROLE) {\n        require(to != address(0), \"not a valid address\");\n        unpause(); // unpause the contract\n        _rewardVotes(to);\n        pause();\n    }\n\n    /// @dev mints reward tokens to contributors\n    /// @param _to contributors address\n    /// @notice checks first if weightlimit (maximumVotes) is breached\n    /// @notice also checks if reward + account balance\n    /// @notice use in constructor  \n    function _rewardVotes(address _to) private whenNotPaused {\n\n        /// @notice check if user balance is 0\n        if (getVotes(_to) != 0){\n            /// @notice if its not then proceed with actions below\n            /// @notice weight exceeds limit ?\n            (bool limitReached, uint256 reward) = weightLimitReached(_to);\n            if (limitReached){\n            \n                emit VotingPowerIncreased(_to, reward, \"Can't level up for now, try helping others\");\n            \n            } else {\n                mint(_to, reward);\n                selfDelegate(_to);\n                emit VotingPowerIncreased(_to, reward, \"Level up\");\n            }\n \n        } else {\n            mint(_to, _baseRewardVotes);\n            selfDelegate(_to);\n            emit VotingPowerIncreased(_to, _baseRewardVotes, \"Level up\");\n        }\n    }\n\n\n    /// @dev see _slashVotes\n    function slashVotes (address account, uint256 amount) external onlyRole(ADMIN_ROLE) {    \n        require(amount <= getVotes(account), \"amount exceeds user votes\");\n        _unpause();\n        _slashVotes(account, amount);\n        pause();\n    }\n\n    /// @dev removes votes from account (accountability)\n    /// @param _account account whose votes will removed \n    function _slashVotes(address _account, uint256 _amount) private whenNotPaused {\n        _burn(_account, _amount);\n    } \n\n    /// @dev dao \"self\" delegates votes to user  \n    /// @param delegatee user who will receive votes\n    function selfDelegate(address delegatee) private whenNotPaused {\n        return _delegate(delegatee, delegatee);\n    }\n\n    function pause() public onlyRole(ADMIN_ROLE) {\n        _pause();\n    }\n\n    function unpause() public onlyRole(ADMIN_ROLE) {\n        _unpause();\n    }\n\n    function snapShot() external onlyRole(ADMIN_ROLE) {\n        _unpause();\n        _snapshot();\n        _pause();\n    }\n\n    function mint(address to, uint256 amount) private onlyRole(ADMIN_ROLE) whenNotPaused {\n        super._mint(to, amount);\n    }\n\n    function _beforeTokenTransfer(address from, address to, uint256 amount)\n        internal\n        whenNotPaused\n        override(ERC20, ERC20Snapshot)\n    {   \n        super._beforeTokenTransfer(from, to, amount);\n    }\n\n    // The following functions are overrides required by Solidity.\n    function _afterTokenTransfer(address from, address to, uint256 amount)\n        internal\n        override(ERC20, ERC20Votes)\n    {\n        super._afterTokenTransfer(from, to, amount);\n    }\n\n    function _mint(address to, uint256 amount)\n        internal\n        override(ERC20, ERC20Votes) whenNotPaused\n    {\n        super._mint(to, amount);\n    }\n\n    function _burn(address account, uint256 amount)\n        internal\n        override(ERC20, ERC20Votes) whenNotPaused\n    {\n        super._burn(account, amount);\n    }\n    \n    /// @notice public delegate functions are overriden as dao does not allow delegateion of votes\n    function delegate (address delgatee) public pure override {\n        revert(\"delegating votes not allowed\");\n    }\n    function delegateBySig(address delegatee, uint256 nonce, uint256 expiry, uint8 v, bytes32 r, bytes32 s) public pure override {\n        revert(\"delegating votes not allowed\");\n    }\n    \n}\n",
  "sourcePath": "/home/rasguy92/Documents/blockchain-developer-bootcamp-final-project/contracts/IkonDAOGovernanceToken.sol",
  "compiler": {
    "name": "solc",
    "version": "0.8.10+commit.fc410830.Emscripten.clang"
  },
  "schemaVersion": "3.4.3",
  "updatedAt": "2021-11-25T08:44:08.454Z",
  "networkType": "ethereum",
  "devdoc": {
    "custom:security-contact": "ftrouw@protonmail.com",
    "kind": "dev",
    "methods": {
      "DOMAIN_SEPARATOR()": {
        "details": "See {IERC20Permit-DOMAIN_SEPARATOR}."
      },
      "allowance(address,address)": {
        "details": "See {IERC20-allowance}."
      },
      "approve(address,uint256)": {
        "details": "See {IERC20-approve}. Requirements: - `spender` cannot be the zero address."
      },
      "balanceOf(address)": {
        "details": "See {IERC20-balanceOf}."
      },
      "balanceOfAt(address,uint256)": {
        "details": "Retrieves the balance of `account` at the time `snapshotId` was created."
      },
      "burn(uint256)": {
        "details": "Destroys `amount` tokens from the caller. See {ERC20-_burn}."
      },
      "burnFrom(address,uint256)": {
        "details": "Destroys `amount` tokens from `account`, deducting from the caller's allowance. See {ERC20-_burn} and {ERC20-allowance}. Requirements: - the caller must have allowance for ``accounts``'s tokens of at least `amount`."
      },
      "checkpoints(address,uint32)": {
        "details": "Get the `pos`-th checkpoint for `account`."
      },
      "decimals()": {
        "details": "Returns the number of decimals used to get its user representation. For example, if `decimals` equals `2`, a balance of `505` tokens should be displayed to a user as `5.05` (`505 / 10 ** 2`). Tokens usually opt for a value of 18, imitating the relationship between Ether and Wei. This is the value {ERC20} uses, unless this function is overridden; NOTE: This information is only used for _display_ purposes: it in no way affects any of the arithmetic of the contract, including {IERC20-balanceOf} and {IERC20-transfer}."
      },
      "decreaseAllowance(address,uint256)": {
        "details": "Atomically decreases the allowance granted to `spender` by the caller. This is an alternative to {approve} that can be used as a mitigation for problems described in {IERC20-approve}. Emits an {Approval} event indicating the updated allowance. Requirements: - `spender` cannot be the zero address. - `spender` must have allowance for the caller of at least `subtractedValue`."
      },
      "delegateBySig(address,uint256,uint256,uint8,bytes32,bytes32)": {
        "details": "Delegates votes from signer to `delegatee`"
      },
      "delegates(address)": {
        "details": "Get the address `account` is currently delegating to."
      },
      "getPastTotalSupply(uint256)": {
        "details": "Retrieve the `totalSupply` at the end of `blockNumber`. Note, this value is the sum of all balances. It is but NOT the sum of all the delegated votes! Requirements: - `blockNumber` must have been already mined"
      },
      "getPastVotes(address,uint256)": {
        "details": "Retrieve the number of votes for `account` at the end of `blockNumber`. Requirements: - `blockNumber` must have been already mined"
      },
      "getRewardVotes()": {
        "details": "exposes baseReward"
      },
      "getRoleAdmin(bytes32)": {
        "details": "Returns the admin role that controls `role`. See {grantRole} and {revokeRole}. To change a role's admin, use {_setRoleAdmin}."
      },
      "getVotes(address)": {
        "details": "Gets the current votes balance for `account`"
      },
      "getWeightLimit()": {
        "details": "returns weight limit of governance token"
      },
      "grantRole(bytes32,address)": {
        "details": "Grants `role` to `account`. If `account` had not been already granted `role`, emits a {RoleGranted} event. Requirements: - the caller must have ``role``'s admin role."
      },
      "hasRole(bytes32,address)": {
        "details": "Returns `true` if `account` has been granted `role`."
      },
      "increaseAllowance(address,uint256)": {
        "details": "Atomically increases the allowance granted to `spender` by the caller. This is an alternative to {approve} that can be used as a mitigation for problems described in {IERC20-approve}. Emits an {Approval} event indicating the updated allowance. Requirements: - `spender` cannot be the zero address."
      },
      "name()": {
        "details": "Returns the name of the token."
      },
      "nonces(address)": {
        "details": "See {IERC20Permit-nonces}."
      },
      "numCheckpoints(address)": {
        "details": "Get number of checkpoints for `account`."
      },
      "paused()": {
        "details": "Returns true if the contract is paused, and false otherwise."
      },
      "permit(address,address,uint256,uint256,uint8,bytes32,bytes32)": {
        "details": "See {IERC20Permit-permit}."
      },
      "renounceRole(bytes32,address)": {
        "details": "Revokes `role` from the calling account. Roles are often managed via {grantRole} and {revokeRole}: this function's purpose is to provide a mechanism for accounts to lose their privileges if they are compromised (such as when a trusted device is misplaced). If the calling account had been granted `role`, emits a {RoleRevoked} event. Requirements: - the caller must be `account`."
      },
      "revokeRole(bytes32,address)": {
        "details": "Revokes `role` from `account`. If `account` had been granted `role`, emits a {RoleRevoked} event. Requirements: - the caller must have ``role``'s admin role."
      },
      "setRewardVotes(uint256)": {
        "details": "sets _baseVotingReward",
        "params": {
          "newBase": "is the amount to set rewards to "
        }
      },
      "slashVotes(address,uint256)": {
        "details": "see _slashVotes"
      },
      "supportsInterface(bytes4)": {
        "details": "See {IERC165-supportsInterface}."
      },
      "symbol()": {
        "details": "Returns the symbol of the token, usually a shorter version of the name."
      },
      "totalSupply()": {
        "details": "See {IERC20-totalSupply}."
      },
      "totalSupplyAt(uint256)": {
        "details": "Retrieves the total supply at the time `snapshotId` was created."
      },
      "transfer(address,uint256)": {
        "details": "See {IERC20-transfer}. Requirements: - `recipient` cannot be the zero address. - the caller must have a balance of at least `amount`."
      },
      "transferFrom(address,address,uint256)": {
        "details": "See {IERC20-transferFrom}. Emits an {Approval} event indicating the updated allowance. This is not required by the EIP. See the note at the beginning of {ERC20}. Requirements: - `sender` and `recipient` cannot be the zero address. - `sender` must have a balance of at least `amount`. - the caller must have allowance for ``sender``'s tokens of at least `amount`."
      }
    },
    "version": 1
  },
  "userdoc": {
    "kind": "user",
    "methods": {
      "delegate(address)": {
        "notice": "public delegate functions are overriden as dao does not allow delegateion of votes"
      },
      "rewardVotes(address)": {
        "notice": "see _rewardvotes "
      }
    },
    "version": 1
  }
}